{
  "_format": "hh-sol-artifact-1",
  "contractName": "MapleGlobals",
  "sourceName": "packages/protocol/contracts/MapleGlobals.sol",
  "abi": [
    {
      "inputs": [
        {
          "internalType": "address",
          "name": "_governor",
          "type": "address"
        },
        {
          "internalType": "address",
          "name": "_mpl",
          "type": "address"
        },
        {
          "internalType": "address",
          "name": "_globalAdmin",
          "type": "address"
        }
      ],
      "stateMutability": "nonpayable",
      "type": "constructor"
    },
    {
      "anonymous": false,
      "inputs": [
        {
          "indexed": false,
          "internalType": "address",
          "name": "balancerPool",
          "type": "address"
        },
        {
          "indexed": false,
          "internalType": "bool",
          "name": "valid",
          "type": "bool"
        }
      ],
      "name": "BalancerPoolSet",
      "type": "event"
    },
    {
      "anonymous": false,
      "inputs": [
        {
          "indexed": false,
          "internalType": "address",
          "name": "asset",
          "type": "address"
        },
        {
          "indexed": false,
          "internalType": "uint256",
          "name": "decimals",
          "type": "uint256"
        },
        {
          "indexed": false,
          "internalType": "string",
          "name": "symbol",
          "type": "string"
        },
        {
          "indexed": false,
          "internalType": "bool",
          "name": "valid",
          "type": "bool"
        }
      ],
      "name": "CollateralAssetSet",
      "type": "event"
    },
    {
      "anonymous": false,
      "inputs": [
        {
          "indexed": true,
          "internalType": "address",
          "name": "newGlobalAdmin",
          "type": "address"
        }
      ],
      "name": "GlobalAdminSet",
      "type": "event"
    },
    {
      "anonymous": false,
      "inputs": [
        {
          "indexed": true,
          "internalType": "bytes32",
          "name": "which",
          "type": "bytes32"
        },
        {
          "indexed": false,
          "internalType": "address",
          "name": "addr",
          "type": "address"
        }
      ],
      "name": "GlobalsAddressSet",
      "type": "event"
    },
    {
      "anonymous": false,
      "inputs": [
        {
          "indexed": true,
          "internalType": "bytes32",
          "name": "which",
          "type": "bytes32"
        },
        {
          "indexed": false,
          "internalType": "uint256",
          "name": "value",
          "type": "uint256"
        }
      ],
      "name": "GlobalsParamSet",
      "type": "event"
    },
    {
      "anonymous": false,
      "inputs": [
        {
          "indexed": true,
          "internalType": "address",
          "name": "governor",
          "type": "address"
        }
      ],
      "name": "GovernorAccepted",
      "type": "event"
    },
    {
      "anonymous": false,
      "inputs": [],
      "name": "Initialized",
      "type": "event"
    },
    {
      "anonymous": false,
      "inputs": [
        {
          "indexed": false,
          "internalType": "address",
          "name": "asset",
          "type": "address"
        },
        {
          "indexed": false,
          "internalType": "uint256",
          "name": "decimals",
          "type": "uint256"
        },
        {
          "indexed": false,
          "internalType": "string",
          "name": "symbol",
          "type": "string"
        },
        {
          "indexed": false,
          "internalType": "bool",
          "name": "valid",
          "type": "bool"
        }
      ],
      "name": "LiquidityAssetSet",
      "type": "event"
    },
    {
      "anonymous": false,
      "inputs": [
        {
          "indexed": false,
          "internalType": "address",
          "name": "asset",
          "type": "address"
        },
        {
          "indexed": false,
          "internalType": "address",
          "name": "oracle",
          "type": "address"
        }
      ],
      "name": "OracleSet",
      "type": "event"
    },
    {
      "anonymous": false,
      "inputs": [
        {
          "indexed": true,
          "internalType": "address",
          "name": "pendingGovernor",
          "type": "address"
        }
      ],
      "name": "PendingGovernorSet",
      "type": "event"
    },
    {
      "anonymous": false,
      "inputs": [
        {
          "indexed": true,
          "internalType": "address",
          "name": "delegate",
          "type": "address"
        },
        {
          "indexed": false,
          "internalType": "bool",
          "name": "valid",
          "type": "bool"
        }
      ],
      "name": "PoolDelegateSet",
      "type": "event"
    },
    {
      "anonymous": false,
      "inputs": [
        {
          "indexed": false,
          "internalType": "bool",
          "name": "pause",
          "type": "bool"
        }
      ],
      "name": "ProtocolPaused",
      "type": "event"
    },
    {
      "anonymous": false,
      "inputs": [
        {
          "indexed": true,
          "internalType": "address",
          "name": "exemptedContract",
          "type": "address"
        },
        {
          "indexed": false,
          "internalType": "bool",
          "name": "valid",
          "type": "bool"
        }
      ],
      "name": "TransferRestrictionExemptionSet",
      "type": "event"
    },
    {
      "inputs": [],
      "name": "acceptGovernor",
      "outputs": [],
      "stateMutability": "nonpayable",
      "type": "function"
    },
    {
      "inputs": [],
      "name": "defaultGracePeriod",
      "outputs": [
        {
          "internalType": "uint256",
          "name": "",
          "type": "uint256"
        }
      ],
      "stateMutability": "view",
      "type": "function"
    },
    {
      "inputs": [
        {
          "internalType": "address",
          "name": "",
          "type": "address"
        },
        {
          "internalType": "address",
          "name": "",
          "type": "address"
        }
      ],
      "name": "defaultUniswapPath",
      "outputs": [
        {
          "internalType": "address",
          "name": "",
          "type": "address"
        }
      ],
      "stateMutability": "view",
      "type": "function"
    },
    {
      "inputs": [],
      "name": "fundingPeriod",
      "outputs": [
        {
          "internalType": "uint256",
          "name": "",
          "type": "uint256"
        }
      ],
      "stateMutability": "view",
      "type": "function"
    },
    {
      "inputs": [
        {
          "internalType": "address",
          "name": "asset",
          "type": "address"
        }
      ],
      "name": "getLatestPrice",
      "outputs": [
        {
          "internalType": "uint256",
          "name": "",
          "type": "uint256"
        }
      ],
      "stateMutability": "view",
      "type": "function"
    },
    {
      "inputs": [],
      "name": "getLpCooldownParams",
      "outputs": [
        {
          "internalType": "uint256",
          "name": "",
          "type": "uint256"
        },
        {
          "internalType": "uint256",
          "name": "",
          "type": "uint256"
        }
      ],
      "stateMutability": "view",
      "type": "function"
    },
    {
      "inputs": [],
      "name": "globalAdmin",
      "outputs": [
        {
          "internalType": "address",
          "name": "",
          "type": "address"
        }
      ],
      "stateMutability": "view",
      "type": "function"
    },
    {
      "inputs": [],
      "name": "governor",
      "outputs": [
        {
          "internalType": "address",
          "name": "",
          "type": "address"
        }
      ],
      "stateMutability": "view",
      "type": "function"
    },
    {
      "inputs": [],
      "name": "investorFee",
      "outputs": [
        {
          "internalType": "uint256",
          "name": "",
          "type": "uint256"
        }
      ],
      "stateMutability": "view",
      "type": "function"
    },
    {
      "inputs": [
        {
          "internalType": "address",
          "name": "",
          "type": "address"
        }
      ],
      "name": "isValidBalancerPool",
      "outputs": [
        {
          "internalType": "bool",
          "name": "",
          "type": "bool"
        }
      ],
      "stateMutability": "view",
      "type": "function"
    },
    {
      "inputs": [
        {
          "internalType": "address",
          "name": "calc",
          "type": "address"
        },
        {
          "internalType": "uint8",
          "name": "calcType",
          "type": "uint8"
        }
      ],
      "name": "isValidCalc",
      "outputs": [
        {
          "internalType": "bool",
          "name": "",
          "type": "bool"
        }
      ],
      "stateMutability": "view",
      "type": "function"
    },
    {
      "inputs": [
        {
          "internalType": "address",
          "name": "",
          "type": "address"
        }
      ],
      "name": "isValidCollateralAsset",
      "outputs": [
        {
          "internalType": "bool",
          "name": "",
          "type": "bool"
        }
      ],
      "stateMutability": "view",
      "type": "function"
    },
    {
      "inputs": [
        {
          "internalType": "address",
          "name": "",
          "type": "address"
        }
      ],
      "name": "isValidLiquidityAsset",
      "outputs": [
        {
          "internalType": "bool",
          "name": "",
          "type": "bool"
        }
      ],
      "stateMutability": "view",
      "type": "function"
    },
    {
      "inputs": [
        {
          "internalType": "address",
          "name": "",
          "type": "address"
        }
      ],
      "name": "isValidLoanFactory",
      "outputs": [
        {
          "internalType": "bool",
          "name": "",
          "type": "bool"
        }
      ],
      "stateMutability": "view",
      "type": "function"
    },
    {
      "inputs": [
        {
          "internalType": "address",
          "name": "",
          "type": "address"
        }
      ],
      "name": "isValidPoolDelegate",
      "outputs": [
        {
          "internalType": "bool",
          "name": "",
          "type": "bool"
        }
      ],
      "stateMutability": "view",
      "type": "function"
    },
    {
      "inputs": [
        {
          "internalType": "address",
          "name": "",
          "type": "address"
        }
      ],
      "name": "isValidPoolFactory",
      "outputs": [
        {
          "internalType": "bool",
          "name": "",
          "type": "bool"
        }
      ],
      "stateMutability": "view",
      "type": "function"
    },
    {
      "inputs": [
        {
          "internalType": "address",
          "name": "superFactory",
          "type": "address"
        },
        {
          "internalType": "address",
          "name": "subFactory",
          "type": "address"
        },
        {
          "internalType": "uint8",
          "name": "factoryType",
          "type": "uint8"
        }
      ],
      "name": "isValidSubFactory",
      "outputs": [
        {
          "internalType": "bool",
          "name": "",
          "type": "bool"
        }
      ],
      "stateMutability": "view",
      "type": "function"
    },
    {
      "inputs": [],
      "name": "lpCooldownPeriod",
      "outputs": [
        {
          "internalType": "uint256",
          "name": "",
          "type": "uint256"
        }
      ],
      "stateMutability": "view",
      "type": "function"
    },
    {
      "inputs": [],
      "name": "lpWithdrawWindow",
      "outputs": [
        {
          "internalType": "uint256",
          "name": "",
          "type": "uint256"
        }
      ],
      "stateMutability": "view",
      "type": "function"
    },
    {
      "inputs": [],
      "name": "mapleTreasury",
      "outputs": [
        {
          "internalType": "address",
          "name": "",
          "type": "address"
        }
      ],
      "stateMutability": "view",
      "type": "function"
    },
    {
      "inputs": [],
      "name": "maxSwapSlippage",
      "outputs": [
        {
          "internalType": "uint256",
          "name": "",
          "type": "uint256"
        }
      ],
      "stateMutability": "view",
      "type": "function"
    },
    {
      "inputs": [],
      "name": "minLoanEquity",
      "outputs": [
        {
          "internalType": "uint256",
          "name": "",
          "type": "uint256"
        }
      ],
      "stateMutability": "view",
      "type": "function"
    },
    {
      "inputs": [],
      "name": "mpl",
      "outputs": [
        {
          "internalType": "address",
          "name": "",
          "type": "address"
        }
      ],
      "stateMutability": "view",
      "type": "function"
    },
    {
      "inputs": [
        {
          "internalType": "address",
          "name": "",
          "type": "address"
        }
      ],
      "name": "oracleFor",
      "outputs": [
        {
          "internalType": "address",
          "name": "",
          "type": "address"
        }
      ],
      "stateMutability": "view",
      "type": "function"
    },
    {
      "inputs": [],
      "name": "pendingGovernor",
      "outputs": [
        {
          "internalType": "address",
          "name": "",
          "type": "address"
        }
      ],
      "stateMutability": "view",
      "type": "function"
    },
    {
      "inputs": [],
      "name": "protocolPaused",
      "outputs": [
        {
          "internalType": "bool",
          "name": "",
          "type": "bool"
        }
      ],
      "stateMutability": "view",
      "type": "function"
    },
    {
      "inputs": [
        {
          "internalType": "address",
          "name": "calc",
          "type": "address"
        },
        {
          "internalType": "bool",
          "name": "valid",
          "type": "bool"
        }
      ],
      "name": "setCalc",
      "outputs": [],
      "stateMutability": "nonpayable",
      "type": "function"
    },
    {
      "inputs": [
        {
          "internalType": "address",
          "name": "asset",
          "type": "address"
        },
        {
          "internalType": "bool",
          "name": "valid",
          "type": "bool"
        }
      ],
      "name": "setCollateralAsset",
      "outputs": [],
      "stateMutability": "nonpayable",
      "type": "function"
    },
    {
      "inputs": [
        {
          "internalType": "uint256",
          "name": "_defaultGracePeriod",
          "type": "uint256"
        }
      ],
      "name": "setDefaultGracePeriod",
      "outputs": [],
      "stateMutability": "nonpayable",
      "type": "function"
    },
    {
      "inputs": [
        {
          "internalType": "address",
          "name": "from",
          "type": "address"
        },
        {
          "internalType": "address",
          "name": "to",
          "type": "address"
        },
        {
          "internalType": "address",
          "name": "mid",
          "type": "address"
        }
      ],
      "name": "setDefaultUniswapPath",
      "outputs": [],
      "stateMutability": "nonpayable",
      "type": "function"
    },
    {
      "inputs": [
        {
          "internalType": "uint256",
          "name": "_fundingPeriod",
          "type": "uint256"
        }
      ],
      "name": "setFundingPeriod",
      "outputs": [],
      "stateMutability": "nonpayable",
      "type": "function"
    },
    {
      "inputs": [
        {
          "internalType": "address",
          "name": "newGlobalAdmin",
          "type": "address"
        }
      ],
      "name": "setGlobalAdmin",
      "outputs": [],
      "stateMutability": "nonpayable",
      "type": "function"
    },
    {
      "inputs": [
        {
          "internalType": "uint256",
          "name": "_fee",
          "type": "uint256"
        }
      ],
      "name": "setInvestorFee",
      "outputs": [],
      "stateMutability": "nonpayable",
      "type": "function"
    },
    {
      "inputs": [
        {
          "internalType": "address",
          "name": "asset",
          "type": "address"
        },
        {
          "internalType": "bool",
          "name": "valid",
          "type": "bool"
        }
      ],
      "name": "setLiquidityAsset",
      "outputs": [],
      "stateMutability": "nonpayable",
      "type": "function"
    },
    {
      "inputs": [
        {
          "internalType": "uint256",
          "name": "newCooldownPeriod",
          "type": "uint256"
        }
      ],
      "name": "setLpCooldownPeriod",
      "outputs": [],
      "stateMutability": "nonpayable",
      "type": "function"
    },
    {
      "inputs": [
        {
          "internalType": "uint256",
          "name": "newLpWithdrawWindow",
          "type": "uint256"
        }
      ],
      "name": "setLpWithdrawWindow",
      "outputs": [],
      "stateMutability": "nonpayable",
      "type": "function"
    },
    {
      "inputs": [
        {
          "internalType": "address",
          "name": "_mapleTreasury",
          "type": "address"
        }
      ],
      "name": "setMapleTreasury",
      "outputs": [],
      "stateMutability": "nonpayable",
      "type": "function"
    },
    {
      "inputs": [
        {
          "internalType": "uint256",
          "name": "newMaxSlippage",
          "type": "uint256"
        }
      ],
      "name": "setMaxSwapSlippage",
      "outputs": [],
      "stateMutability": "nonpayable",
      "type": "function"
    },
    {
      "inputs": [
        {
          "internalType": "uint256",
          "name": "_minLoanEquity",
          "type": "uint256"
        }
      ],
      "name": "setMinLoanEquity",
      "outputs": [],
      "stateMutability": "nonpayable",
      "type": "function"
    },
    {
      "inputs": [
        {
          "internalType": "address",
          "name": "_pendingGovernor",
          "type": "address"
        }
      ],
      "name": "setPendingGovernor",
      "outputs": [],
      "stateMutability": "nonpayable",
      "type": "function"
    },
    {
      "inputs": [
        {
          "internalType": "address",
          "name": "delegate",
          "type": "address"
        },
        {
          "internalType": "bool",
          "name": "valid",
          "type": "bool"
        }
      ],
      "name": "setPoolDelegateAllowlist",
      "outputs": [],
      "stateMutability": "nonpayable",
      "type": "function"
    },
    {
      "inputs": [
        {
          "internalType": "address",
          "name": "asset",
          "type": "address"
        },
        {
          "internalType": "address",
          "name": "oracle",
          "type": "address"
        }
      ],
      "name": "setPriceOracle",
      "outputs": [],
      "stateMutability": "nonpayable",
      "type": "function"
    },
    {
      "inputs": [
        {
          "internalType": "bool",
          "name": "pause",
          "type": "bool"
        }
      ],
      "name": "setProtocolPause",
      "outputs": [],
      "stateMutability": "nonpayable",
      "type": "function"
    },
    {
      "inputs": [
        {
          "internalType": "uint256",
          "name": "newCooldownPeriod",
          "type": "uint256"
        }
      ],
      "name": "setStakerCooldownPeriod",
      "outputs": [],
      "stateMutability": "nonpayable",
      "type": "function"
    },
    {
      "inputs": [
        {
          "internalType": "uint256",
          "name": "newUnstakeWindow",
          "type": "uint256"
        }
      ],
      "name": "setStakerUnstakeWindow",
      "outputs": [],
      "stateMutability": "nonpayable",
      "type": "function"
    },
    {
      "inputs": [
        {
          "internalType": "uint256",
          "name": "amt",
          "type": "uint256"
        }
      ],
      "name": "setSwapOutRequired",
      "outputs": [],
      "stateMutability": "nonpayable",
      "type": "function"
    },
    {
      "inputs": [
        {
          "internalType": "uint256",
          "name": "_fee",
          "type": "uint256"
        }
      ],
      "name": "setTreasuryFee",
      "outputs": [],
      "stateMutability": "nonpayable",
      "type": "function"
    },
    {
      "inputs": [
        {
          "internalType": "address",
          "name": "balancerPool",
          "type": "address"
        },
        {
          "internalType": "bool",
          "name": "valid",
          "type": "bool"
        }
      ],
      "name": "setValidBalancerPool",
      "outputs": [],
      "stateMutability": "nonpayable",
      "type": "function"
    },
    {
      "inputs": [
        {
          "internalType": "address",
          "name": "loanFactory",
          "type": "address"
        },
        {
          "internalType": "bool",
          "name": "valid",
          "type": "bool"
        }
      ],
      "name": "setValidLoanFactory",
      "outputs": [],
      "stateMutability": "nonpayable",
      "type": "function"
    },
    {
      "inputs": [
        {
          "internalType": "address",
          "name": "poolFactory",
          "type": "address"
        },
        {
          "internalType": "bool",
          "name": "valid",
          "type": "bool"
        }
      ],
      "name": "setValidPoolFactory",
      "outputs": [],
      "stateMutability": "nonpayable",
      "type": "function"
    },
    {
      "inputs": [
        {
          "internalType": "address",
          "name": "superFactory",
          "type": "address"
        },
        {
          "internalType": "address",
          "name": "subFactory",
          "type": "address"
        },
        {
          "internalType": "bool",
          "name": "valid",
          "type": "bool"
        }
      ],
      "name": "setValidSubFactory",
      "outputs": [],
      "stateMutability": "nonpayable",
      "type": "function"
    },
    {
      "inputs": [],
      "name": "stakerCooldownPeriod",
      "outputs": [
        {
          "internalType": "uint256",
          "name": "",
          "type": "uint256"
        }
      ],
      "stateMutability": "view",
      "type": "function"
    },
    {
      "inputs": [],
      "name": "stakerUnstakeWindow",
      "outputs": [
        {
          "internalType": "uint256",
          "name": "",
          "type": "uint256"
        }
      ],
      "stateMutability": "view",
      "type": "function"
    },
    {
      "inputs": [],
      "name": "swapOutRequired",
      "outputs": [
        {
          "internalType": "uint256",
          "name": "",
          "type": "uint256"
        }
      ],
      "stateMutability": "view",
      "type": "function"
    },
    {
      "inputs": [],
      "name": "treasuryFee",
      "outputs": [
        {
          "internalType": "uint256",
          "name": "",
          "type": "uint256"
        }
      ],
      "stateMutability": "view",
      "type": "function"
    },
    {
      "inputs": [
        {
          "internalType": "address",
          "name": "",
          "type": "address"
        }
      ],
      "name": "validCalcs",
      "outputs": [
        {
          "internalType": "bool",
          "name": "",
          "type": "bool"
        }
      ],
      "stateMutability": "view",
      "type": "function"
    },
    {
      "inputs": [
        {
          "internalType": "address",
          "name": "",
          "type": "address"
        },
        {
          "internalType": "address",
          "name": "",
          "type": "address"
        }
      ],
      "name": "validSubFactories",
      "outputs": [
        {
          "internalType": "bool",
          "name": "",
          "type": "bool"
        }
      ],
      "stateMutability": "view",
      "type": "function"
    }
  ],
  "bytecode": "0x60a06040523480156200001157600080fd5b5060405162003e3138038062003e318339818101604052810190620000379190620001a3565b82600160006101000a81548173ffffffffffffffffffffffffffffffffffffffff021916908373ffffffffffffffffffffffffffffffffffffffff1602179055508173ffffffffffffffffffffffffffffffffffffffff1660808173ffffffffffffffffffffffffffffffffffffffff1660601b81525050612710600581905550620d2f0060068190555062069780600481905550603260078190555060326008819055506103e86009819055506107d0600a8190555080600360006101000a81548173ffffffffffffffffffffffffffffffffffffffff021916908373ffffffffffffffffffffffffffffffffffffffff160217905550620d2f00600b81905550620d2f00600c819055506202a300600d819055506202a300600e819055507f5daa87a0e9463431830481fd4b6e3403442dfb9a12b9c07597e9f61d50b633c860405160405180910390a150505062000247565b6000815190506200019d816200022d565b92915050565b600080600060608486031215620001b957600080fd5b6000620001c9868287016200018c565b9350506020620001dc868287016200018c565b9250506040620001ef868287016200018c565b9150509250925092565b600062000206826200020d565b9050919050565b600073ffffffffffffffffffffffffffffffffffffffff82169050919050565b6200023881620001f9565b81146200024457600080fd5b50565b60805160601c613bcc62000265600039806120795250613bcc6000f3fe608060405234801561001057600080fd5b50600436106103835760003560e01c80637303de25116101de578063c9c672401161010f578063e58bb639116100ad578063f33ef09a1161007c578063f33ef09a14610a6b578063f389766314610a87578063f85ee6f814610aa3578063fd4a912114610abf57610383565b8063e58bb63914610a0b578063ec9a936814610a15578063efdb16fc14610a33578063f235757f14610a4f57610383565b8063dbc6c552116100e9578063dbc6c55214610995578063dd02e0ec146109b1578063df3d02bd146109cf578063e3056a34146109ed57610383565b8063c9c672401461093f578063cc32d1761461095b578063d1cdf3011461097957610383565b8063a05309461161017c578063aed019b911610156578063aed019b9146108a7578063b53afda7146108d7578063be44ed6b14610907578063c52bc31d1461092357610383565b8063a05309461461084d578063a5a276051461086b578063a965d6b51461088957610383565b80638608a6e1116101b85780638608a6e1146107b25780638695118a146107ce5780638c14834b146107fe5780639f51290b1461082e57610383565b80637303de251461075c57806374d7c62b1461077857806377e741c71461079657610383565b80633106374c116102b85780634e989118116102565780636597b899116102305780636597b899146106d657806367a74ddc146106f2578063705d5f241461070e57806372a22d711461072c57610383565b80634e98911814610680578063553231951461069c5780635e045467146106ba57610383565b806344c14f711161029257806344c14f71146105fa578063490dae64146106165780634a2697c4146106325780634d8665921461065057610383565b80633106374c1461058e578063372e3546146105ac578063425fad58146105dc57610383565b80631beb84e711610325578063298b795d116102ff578063298b795d1461051e5780632a5aa2921461053a5780632daa0d89146105565780632fa6c88f1461057257610383565b80631beb84e7146104b45780632018b870146104e4578063267186061461050257610383565b806316345f181161036157806316345f181461040657806316a12d7a146104365780631b1804aa146104545780631b5833f71461048457610383565b80630c340a2414610388578063107c0240146103a657806313d459fb146103d6575b600080fd5b610390610adb565b60405161039d91906137b3565b60405180910390f35b6103c060048036038101906103bb91906131f5565b610b01565b6040516103cd919061386c565b60405180910390f35b6103f060048036038101906103eb91906132f8565b610b21565b6040516103fd919061386c565b60405180910390f35b610420600480360381019061041b91906131f5565b610c44565b60405161042d91906139c7565b60405180910390f35b61043e610d2a565b60405161044b91906139c7565b60405180910390f35b61046e6004803603810190610469919061321e565b610d30565b60405161047b919061386c565b60405180910390f35b61049e60048036038101906104999190613383565b610d5f565b6040516104ab919061386c565b60405180910390f35b6104ce60048036038101906104c991906131f5565b610e44565b6040516104db919061386c565b60405180910390f35b6104ec610e64565b6040516104f991906139c7565b60405180910390f35b61051c60048036038101906105179190613452565b610e6a565b005b61053860048036038101906105339190613452565b610f5c565b005b610554600480360381019061054f9190613452565b611057565b005b610570600480360381019061056b9190613347565b611149565b005b61058c60048036038101906105879190613347565b611370565b005b610596611597565b6040516105a391906139c7565b60405180910390f35b6105c660048036038101906105c191906131f5565b61159d565b6040516105d3919061386c565b60405180910390f35b6105e46115bd565b6040516105f1919061386c565b60405180910390f35b610614600480360381019061060f9190613452565b6115d0565b005b610630600480360381019061062b9190613347565b6116c2565b005b61063a6117e6565b60405161064791906139c7565b60405180910390f35b61066a6004803603810190610665919061321e565b6117ec565b60405161067791906137b3565b60405180910390f35b61069a600480360381019061069591906133bf565b61182e565b005b6106a4611912565b6040516106b191906139c7565b60405180910390f35b6106d460048036038101906106cf9190613452565b611918565b005b6106f060048036038101906106eb9190613347565b611a27565b005b61070c6004803603810190610707919061321e565b611b12565b005b610716611c5d565b60405161072391906139c7565b60405180910390f35b610746600480360381019061074191906131f5565b611c63565b604051610753919061386c565b60405180910390f35b610776600480360381019061077191906131f5565b611c83565b005b610780611e1f565b60405161078d91906139c7565b60405180910390f35b6107b060048036038101906107ab9190613452565b611e25565b005b6107cc60048036038101906107c79190613452565b611f34565b005b6107e860048036038101906107e391906131f5565b612026565b6040516107f5919061386c565b60405180910390f35b610818600480360381019061081391906131f5565b612046565b604051610825919061386c565b60405180910390f35b610836612066565b6040516108449291906139e2565b60405180910390f35b610855612077565b60405161086291906137b3565b60405180910390f35b61087361209b565b60405161088091906137b3565b60405180910390f35b6108916120c1565b60405161089e91906139c7565b60405180910390f35b6108c160048036038101906108bc91906131f5565b6120c7565b6040516108ce91906137b3565b60405180910390f35b6108f160048036038101906108ec91906131f5565b6120fa565b6040516108fe919061386c565b60405180910390f35b610921600480360381019061091c9190613347565b61211a565b005b61093d600480360381019061093891906131f5565b612205565b005b61095960048036038101906109549190613347565b6123a5565b005b610963612490565b60405161097091906139c7565b60405180910390f35b610993600480360381019061098e9190613452565b612496565b005b6109af60048036038101906109aa9190613452565b612588565b005b6109b96126bf565b6040516109c691906139c7565b60405180910390f35b6109d76126c5565b6040516109e491906139c7565b60405180910390f35b6109f56126cb565b604051610a0291906137b3565b60405180910390f35b610a136126f0565b005b610a1d612846565b604051610a2a91906137b3565b60405180910390f35b610a4d6004803603810190610a489190613347565b61286c565b005b610a696004803603810190610a6491906131f5565b6129a5565b005b610a856004803603810190610a809190613452565b612b2b565b005b610aa16004803603810190610a9c919061325a565b612c26565b005b610abd6004803603810190610ab891906132a9565b612d76565b005b610ad96004803603810190610ad49190613452565b612f7f565b005b600160009054906101000a900473ffffffffffffffffffffffffffffffffffffffff1681565b60176020528060005260406000206000915054906101000a900460ff1681565b6000601960008573ffffffffffffffffffffffffffffffffffffffff1673ffffffffffffffffffffffffffffffffffffffff16815260200190815260200160002060008473ffffffffffffffffffffffffffffffffffffffff1673ffffffffffffffffffffffffffffffffffffffff16815260200190815260200160002060009054906101000a900460ff168015610c3b57508160ff168373ffffffffffffffffffffffffffffffffffffffff166364e1fd556040518163ffffffff1660e01b815260040160206040518083038186803b158015610bfe57600080fd5b505afa158015610c12573d6000803e3d6000fd5b505050506040513d601f19601f82011682018060405250810190610c3691906134a4565b60ff16145b90509392505050565b6000601660008373ffffffffffffffffffffffffffffffffffffffff1673ffffffffffffffffffffffffffffffffffffffff16815260200190815260200160002060009054906101000a900473ffffffffffffffffffffffffffffffffffffffff1673ffffffffffffffffffffffffffffffffffffffff16638e15f4736040518163ffffffff1660e01b815260040160206040518083038186803b158015610ceb57600080fd5b505afa158015610cff573d6000803e3d6000fd5b505050506040513d601f19601f82011682018060405250810190610d2391906133e8565b9050919050565b60075481565b60196020528160005260406000206020528060005260406000206000915091509054906101000a900460ff1681565b6000601260008473ffffffffffffffffffffffffffffffffffffffff1673ffffffffffffffffffffffffffffffffffffffff16815260200190815260200160002060009054906101000a900460ff168015610e3c57508160ff168373ffffffffffffffffffffffffffffffffffffffff16639d8ae4466040518163ffffffff1660e01b815260040160206040518083038186803b158015610dff57600080fd5b505afa158015610e13573d6000803e3d6000fd5b505050506040513d601f19601f82011682018060405250810190610e3791906134a4565b60ff16145b905092915050565b60126020528060005260406000206000915054906101000a900460ff1681565b600d5481565b600160009054906101000a900473ffffffffffffffffffffffffffffffffffffffff1673ffffffffffffffffffffffffffffffffffffffff163373ffffffffffffffffffffffffffffffffffffffff1614610efa576040517f08c379a0000000000000000000000000000000000000000000000000000000008152600401610ef190613967565b60405180910390fd5b80600e819055507f4c505f57495448445241575f57494e444f5700000000000000000000000000007fd8780a041c72589f51af8b3fade9cc8a466d00ecef64d45657dd6cdebf1ecf4782604051610f5191906139c7565b60405180910390a250565b600160009054906101000a900473ffffffffffffffffffffffffffffffffffffffff1673ffffffffffffffffffffffffffffffffffffffff163373ffffffffffffffffffffffffffffffffffffffff1614610fec576040517f08c379a0000000000000000000000000000000000000000000000000000000008152600401610fe390613967565b60405180910390fd5b610ff581613071565b80600a819055507f4d494e5f4c4f414e5f45515549545900000000000000000000000000000000007fd8780a041c72589f51af8b3fade9cc8a466d00ecef64d45657dd6cdebf1ecf478260405161104c91906139c7565b60405180910390a250565b600160009054906101000a900473ffffffffffffffffffffffffffffffffffffffff1673ffffffffffffffffffffffffffffffffffffffff163373ffffffffffffffffffffffffffffffffffffffff16146110e7576040517f08c379a00000000000000000000000000000000000000000000000000000000081526004016110de90613967565b60405180910390fd5b806006819055507f46554e44494e475f504552494f440000000000000000000000000000000000007fd8780a041c72589f51af8b3fade9cc8a466d00ecef64d45657dd6cdebf1ecf478260405161113e91906139c7565b60405180910390a250565b600160009054906101000a900473ffffffffffffffffffffffffffffffffffffffff1673ffffffffffffffffffffffffffffffffffffffff163373ffffffffffffffffffffffffffffffffffffffff16146111d9576040517f08c379a00000000000000000000000000000000000000000000000000000000081526004016111d090613967565b60405180910390fd5b80601060008473ffffffffffffffffffffffffffffffffffffffff1673ffffffffffffffffffffffffffffffffffffffff16815260200190815260200160002060006101000a81548160ff0219169083151502179055507f18d231995d1f7e4354b1786418aa8f34f99996ded9cc6b1d43c3815eb6f5ab79828373ffffffffffffffffffffffffffffffffffffffff1663313ce5676040518163ffffffff1660e01b815260040160206040518083038186803b15801561129857600080fd5b505afa1580156112ac573d6000803e3d6000fd5b505050506040513d601f19601f820116820180604052508101906112d0919061347b565b8473ffffffffffffffffffffffffffffffffffffffff166395d89b416040518163ffffffff1660e01b815260040160006040518083038186803b15801561131657600080fd5b505afa15801561132a573d6000803e3d6000fd5b505050506040513d6000823e3d601f19601f820116820180604052508101906113539190613411565b846040516113649493929190613820565b60405180910390a15050565b600160009054906101000a900473ffffffffffffffffffffffffffffffffffffffff1673ffffffffffffffffffffffffffffffffffffffff163373ffffffffffffffffffffffffffffffffffffffff1614611400576040517f08c379a00000000000000000000000000000000000000000000000000000000081526004016113f790613967565b60405180910390fd5b80601160008473ffffffffffffffffffffffffffffffffffffffff1673ffffffffffffffffffffffffffffffffffffffff16815260200190815260200160002060006101000a81548160ff0219169083151502179055507fb9456501e6a30eefbf8c4f9d199ef0c7ac7491abb068d594bbafbdec85447ccc828373ffffffffffffffffffffffffffffffffffffffff1663313ce5676040518163ffffffff1660e01b815260040160206040518083038186803b1580156114bf57600080fd5b505afa1580156114d3573d6000803e3d6000fd5b505050506040513d601f19601f820116820180604052508101906114f7919061347b565b8473ffffffffffffffffffffffffffffffffffffffff166395d89b416040518163ffffffff1660e01b815260040160006040518083038186803b15801561153d57600080fd5b505afa158015611551573d6000803e3d6000fd5b505050506040513d6000823e3d601f19601f8201168201806040525081019061157a9190613411565b8460405161158b9493929190613820565b60405180910390a15050565b60055481565b60136020528060005260406000206000915054906101000a900460ff1681565b600f60009054906101000a900460ff1681565b600160009054906101000a900473ffffffffffffffffffffffffffffffffffffffff1673ffffffffffffffffffffffffffffffffffffffff163373ffffffffffffffffffffffffffffffffffffffff1614611660576040517f08c379a000000000000000000000000000000000000000000000000000000000815260040161165790613967565b60405180910390fd5b806004819055507f44454641554c545f47524143455f504552494f440000000000000000000000007fd8780a041c72589f51af8b3fade9cc8a466d00ecef64d45657dd6cdebf1ecf47826040516116b791906139c7565b60405180910390a250565b600160009054906101000a900473ffffffffffffffffffffffffffffffffffffffff1673ffffffffffffffffffffffffffffffffffffffff163373ffffffffffffffffffffffffffffffffffffffff1614611752576040517f08c379a000000000000000000000000000000000000000000000000000000000815260040161174990613967565b60405180910390fd5b80601460008473ffffffffffffffffffffffffffffffffffffffff1673ffffffffffffffffffffffffffffffffffffffff16815260200190815260200160002060006101000a81548160ff0219169083151502179055507f936e0e50587b3c03d3e833e5cc880e9a62afb49d51808e96d00c4790ed03796282826040516117da9291906137f7565b60405180910390a15050565b600a5481565b60156020528160005260406000206020528060005260406000206000915091509054906101000a900473ffffffffffffffffffffffffffffffffffffffff1681565b600360009054906101000a900473ffffffffffffffffffffffffffffffffffffffff1673ffffffffffffffffffffffffffffffffffffffff163373ffffffffffffffffffffffffffffffffffffffff16146118be576040517f08c379a00000000000000000000000000000000000000000000000000000000081526004016118b5906139a7565b60405180910390fd5b80600f60006101000a81548160ff0219169083151502179055507f6e0cb5fa7a57c38eb7939c1104f95fccb5b7a6a8c1a7cab76934305439b639f581604051611907919061386c565b60405180910390a150565b60095481565b600160009054906101000a900473ffffffffffffffffffffffffffffffffffffffff1673ffffffffffffffffffffffffffffffffffffffff163373ffffffffffffffffffffffffffffffffffffffff16146119a8576040517f08c379a000000000000000000000000000000000000000000000000000000000815260040161199f90613967565b60405180910390fd5b6119c56119c0826008546130b990919063ffffffff16565b613071565b806007819055507f494e564553544f525f46454500000000000000000000000000000000000000007fd8780a041c72589f51af8b3fade9cc8a466d00ecef64d45657dd6cdebf1ecf4782604051611a1c91906139c7565b60405180910390a250565b600160009054906101000a900473ffffffffffffffffffffffffffffffffffffffff1673ffffffffffffffffffffffffffffffffffffffff163373ffffffffffffffffffffffffffffffffffffffff1614611ab7576040517f08c379a0000000000000000000000000000000000000000000000000000000008152600401611aae90613967565b60405180910390fd5b80601760008473ffffffffffffffffffffffffffffffffffffffff1673ffffffffffffffffffffffffffffffffffffffff16815260200190815260200160002060006101000a81548160ff0219169083151502179055505050565b600160009054906101000a900473ffffffffffffffffffffffffffffffffffffffff1673ffffffffffffffffffffffffffffffffffffffff163373ffffffffffffffffffffffffffffffffffffffff1614611ba2576040517f08c379a0000000000000000000000000000000000000000000000000000000008152600401611b9990613967565b60405180910390fd5b80601660008473ffffffffffffffffffffffffffffffffffffffff1673ffffffffffffffffffffffffffffffffffffffff16815260200190815260200160002060006101000a81548173ffffffffffffffffffffffffffffffffffffffff021916908373ffffffffffffffffffffffffffffffffffffffff1602179055507fc1d3048301c0d23629a2532c8defa6d68f8e1a0e4157918769e9fb1b2eeb888e8282604051611c519291906137ce565b60405180910390a15050565b60045481565b60146020528060005260406000206000915054906101000a900460ff1681565b600160009054906101000a900473ffffffffffffffffffffffffffffffffffffffff1673ffffffffffffffffffffffffffffffffffffffff163373ffffffffffffffffffffffffffffffffffffffff1614611d13576040517f08c379a0000000000000000000000000000000000000000000000000000000008152600401611d0a90613967565b60405180910390fd5b600073ffffffffffffffffffffffffffffffffffffffff168173ffffffffffffffffffffffffffffffffffffffff161415611d83576040517f08c379a0000000000000000000000000000000000000000000000000000000008152600401611d7a90613947565b60405180910390fd5b80600260006101000a81548173ffffffffffffffffffffffffffffffffffffffff021916908373ffffffffffffffffffffffffffffffffffffffff1602179055507f4d41504c455f54524541535552590000000000000000000000000000000000007f806b6f19dfa971f58fc9140115f19907b73e8336024786c79c2ffc56f6678ec182604051611e1491906137b3565b60405180910390a250565b60065481565b600160009054906101000a900473ffffffffffffffffffffffffffffffffffffffff1673ffffffffffffffffffffffffffffffffffffffff163373ffffffffffffffffffffffffffffffffffffffff1614611eb5576040517f08c379a0000000000000000000000000000000000000000000000000000000008152600401611eac90613967565b60405180910390fd5b611ed2611ecd826007546130b990919063ffffffff16565b613071565b806008819055507f54524541535552595f46454500000000000000000000000000000000000000007fd8780a041c72589f51af8b3fade9cc8a466d00ecef64d45657dd6cdebf1ecf4782604051611f2991906139c7565b60405180910390a250565b600160009054906101000a900473ffffffffffffffffffffffffffffffffffffffff1673ffffffffffffffffffffffffffffffffffffffff163373ffffffffffffffffffffffffffffffffffffffff1614611fc4576040517f08c379a0000000000000000000000000000000000000000000000000000000008152600401611fbb90613967565b60405180910390fd5b80600c819055507f4c505f434f4f4c444f574e5f504552494f4400000000000000000000000000007fd8780a041c72589f51af8b3fade9cc8a466d00ecef64d45657dd6cdebf1ecf478260405161201b91906139c7565b60405180910390a250565b60106020528060005260406000206000915054906101000a900460ff1681565b60116020528060005260406000206000915054906101000a900460ff1681565b600080600c54600e54915091509091565b7f000000000000000000000000000000000000000000000000000000000000000081565b600260009054906101000a900473ffffffffffffffffffffffffffffffffffffffff1681565b600b5481565b60166020528060005260406000206000915054906101000a900473ffffffffffffffffffffffffffffffffffffffff1681565b60186020528060005260406000206000915054906101000a900460ff1681565b600160009054906101000a900473ffffffffffffffffffffffffffffffffffffffff1673ffffffffffffffffffffffffffffffffffffffff163373ffffffffffffffffffffffffffffffffffffffff16146121aa576040517f08c379a00000000000000000000000000000000000000000000000000000000081526004016121a190613967565b60405180910390fd5b80601260008473ffffffffffffffffffffffffffffffffffffffff1673ffffffffffffffffffffffffffffffffffffffff16815260200190815260200160002060006101000a81548160ff0219169083151502179055505050565b600160009054906101000a900473ffffffffffffffffffffffffffffffffffffffff1673ffffffffffffffffffffffffffffffffffffffff163373ffffffffffffffffffffffffffffffffffffffff1614801561228f5750600073ffffffffffffffffffffffffffffffffffffffff168173ffffffffffffffffffffffffffffffffffffffff1614155b6122ce576040517f08c379a00000000000000000000000000000000000000000000000000000000081526004016122c5906138a7565b60405180910390fd5b600f60009054906101000a900460ff161561231e576040517f08c379a000000000000000000000000000000000000000000000000000000000815260040161231590613907565b60405180910390fd5b80600360006101000a81548173ffffffffffffffffffffffffffffffffffffffff021916908373ffffffffffffffffffffffffffffffffffffffff1602179055508073ffffffffffffffffffffffffffffffffffffffff167fad3f8fa73ce3985d027e4c3bbe1194701a23e635a746bcf73d8632f677ac388260405160405180910390a250565b600160009054906101000a900473ffffffffffffffffffffffffffffffffffffffff1673ffffffffffffffffffffffffffffffffffffffff163373ffffffffffffffffffffffffffffffffffffffff1614612435576040517f08c379a000000000000000000000000000000000000000000000000000000000815260040161242c90613967565b60405180910390fd5b80601860008473ffffffffffffffffffffffffffffffffffffffff1673ffffffffffffffffffffffffffffffffffffffff16815260200190815260200160002060006101000a81548160ff0219169083151502179055505050565b60085481565b600160009054906101000a900473ffffffffffffffffffffffffffffffffffffffff1673ffffffffffffffffffffffffffffffffffffffff163373ffffffffffffffffffffffffffffffffffffffff1614612526576040517f08c379a000000000000000000000000000000000000000000000000000000000815260040161251d90613967565b60405180910390fd5b80600d819055507f5354414b45525f554e5354414b455f57494e444f5700000000000000000000007fd8780a041c72589f51af8b3fade9cc8a466d00ecef64d45657dd6cdebf1ecf478260405161257d91906139c7565b60405180910390a250565b600160009054906101000a900473ffffffffffffffffffffffffffffffffffffffff1673ffffffffffffffffffffffffffffffffffffffff163373ffffffffffffffffffffffffffffffffffffffff1614612618576040517f08c379a000000000000000000000000000000000000000000000000000000000815260040161260f90613967565b60405180910390fd5b61271081101561265d576040517f08c379a000000000000000000000000000000000000000000000000000000000815260040161265490613927565b60405180910390fd5b806005819055507f535741505f4f55545f52455155495245440000000000000000000000000000007fd8780a041c72589f51af8b3fade9cc8a466d00ecef64d45657dd6cdebf1ecf47826040516126b491906139c7565b60405180910390a250565b600c5481565b600e5481565b6000809054906101000a900473ffffffffffffffffffffffffffffffffffffffff1681565b6000809054906101000a900473ffffffffffffffffffffffffffffffffffffffff1673ffffffffffffffffffffffffffffffffffffffff163373ffffffffffffffffffffffffffffffffffffffff161461277f576040517f08c379a0000000000000000000000000000000000000000000000000000000008152600401612776906138c7565b60405180910390fd5b33600160006101000a81548173ffffffffffffffffffffffffffffffffffffffff021916908373ffffffffffffffffffffffffffffffffffffffff16021790555060008060006101000a81548173ffffffffffffffffffffffffffffffffffffffff021916908373ffffffffffffffffffffffffffffffffffffffff1602179055503373ffffffffffffffffffffffffffffffffffffffff167fb7a4788848eba3319c766bdd6428c7d7a10e4cba4fd6ade9b79b7102b7099b3660405160405180910390a2565b600360009054906101000a900473ffffffffffffffffffffffffffffffffffffffff1681565b600160009054906101000a900473ffffffffffffffffffffffffffffffffffffffff1673ffffffffffffffffffffffffffffffffffffffff163373ffffffffffffffffffffffffffffffffffffffff16146128fc576040517f08c379a00000000000000000000000000000000000000000000000000000000081526004016128f390613967565b60405180910390fd5b80601360008473ffffffffffffffffffffffffffffffffffffffff1673ffffffffffffffffffffffffffffffffffffffff16815260200190815260200160002060006101000a81548160ff0219169083151502179055508173ffffffffffffffffffffffffffffffffffffffff167fd2e6a599a52383178be9bf2d0be60c96615b89f8d9cf6c680f06962aa73679fc82604051612999919061386c565b60405180910390a25050565b600160009054906101000a900473ffffffffffffffffffffffffffffffffffffffff1673ffffffffffffffffffffffffffffffffffffffff163373ffffffffffffffffffffffffffffffffffffffff1614612a35576040517f08c379a0000000000000000000000000000000000000000000000000000000008152600401612a2c90613967565b60405180910390fd5b600073ffffffffffffffffffffffffffffffffffffffff168173ffffffffffffffffffffffffffffffffffffffff161415612aa5576040517f08c379a0000000000000000000000000000000000000000000000000000000008152600401612a9c90613947565b60405180910390fd5b806000806101000a81548173ffffffffffffffffffffffffffffffffffffffff021916908373ffffffffffffffffffffffffffffffffffffffff1602179055508073ffffffffffffffffffffffffffffffffffffffff167f56bddfa0cee9697cebddf9acd7f23dc6583663b05e007b877056d05017994def60405160405180910390a250565b600160009054906101000a900473ffffffffffffffffffffffffffffffffffffffff1673ffffffffffffffffffffffffffffffffffffffff163373ffffffffffffffffffffffffffffffffffffffff1614612bbb576040517f08c379a0000000000000000000000000000000000000000000000000000000008152600401612bb290613967565b60405180910390fd5b612bc481613071565b806009819055507f4d41585f535741505f534c4950504147450000000000000000000000000000007fd8780a041c72589f51af8b3fade9cc8a466d00ecef64d45657dd6cdebf1ecf4782604051612c1b91906139c7565b60405180910390a250565b600160009054906101000a900473ffffffffffffffffffffffffffffffffffffffff1673ffffffffffffffffffffffffffffffffffffffff163373ffffffffffffffffffffffffffffffffffffffff1614612cb6576040517f08c379a0000000000000000000000000000000000000000000000000000000008152600401612cad90613967565b60405180910390fd5b80601560008573ffffffffffffffffffffffffffffffffffffffff1673ffffffffffffffffffffffffffffffffffffffff16815260200190815260200160002060008473ffffffffffffffffffffffffffffffffffffffff1673ffffffffffffffffffffffffffffffffffffffff16815260200190815260200160002060006101000a81548173ffffffffffffffffffffffffffffffffffffffff021916908373ffffffffffffffffffffffffffffffffffffffff160217905550505050565b600160009054906101000a900473ffffffffffffffffffffffffffffffffffffffff1673ffffffffffffffffffffffffffffffffffffffff163373ffffffffffffffffffffffffffffffffffffffff1614612e06576040517f08c379a0000000000000000000000000000000000000000000000000000000008152600401612dfd90613967565b60405180910390fd5b601860008473ffffffffffffffffffffffffffffffffffffffff1673ffffffffffffffffffffffffffffffffffffffff16815260200190815260200160002060009054906101000a900460ff1680612ea75750601760008473ffffffffffffffffffffffffffffffffffffffff1673ffffffffffffffffffffffffffffffffffffffff16815260200190815260200160002060009054906101000a900460ff165b612ee6576040517f08c379a0000000000000000000000000000000000000000000000000000000008152600401612edd90613987565b60405180910390fd5b80601960008573ffffffffffffffffffffffffffffffffffffffff1673ffffffffffffffffffffffffffffffffffffffff16815260200190815260200160002060008473ffffffffffffffffffffffffffffffffffffffff1673ffffffffffffffffffffffffffffffffffffffff16815260200190815260200160002060006101000a81548160ff021916908315150217905550505050565b600160009054906101000a900473ffffffffffffffffffffffffffffffffffffffff1673ffffffffffffffffffffffffffffffffffffffff163373ffffffffffffffffffffffffffffffffffffffff161461300f576040517f08c379a000000000000000000000000000000000000000000000000000000000815260040161300690613967565b60405180910390fd5b80600b819055507f5354414b45525f434f4f4c444f574e5f504552494f44000000000000000000007fd8780a041c72589f51af8b3fade9cc8a466d00ecef64d45657dd6cdebf1ecf478260405161306691906139c7565b60405180910390a250565b6127108111156130b6576040517f08c379a00000000000000000000000000000000000000000000000000000000081526004016130ad90613887565b60405180910390fd5b50565b600080828401905083811015613104576040517f08c379a00000000000000000000000000000000000000000000000000000000081526004016130fb906138e7565b60405180910390fd5b8091505092915050565b60008135905061311d81613b23565b92915050565b60008135905061313281613b3a565b92915050565b60008151905061314781613b51565b92915050565b600082601f83011261315e57600080fd5b815161317161316c82613a38565b613a0b565b9150808252602083016020830185838301111561318d57600080fd5b613198838284613adf565b50505092915050565b6000813590506131b081613b68565b92915050565b6000815190506131c581613b68565b92915050565b6000813590506131da81613b7f565b92915050565b6000815190506131ef81613b7f565b92915050565b60006020828403121561320757600080fd5b60006132158482850161310e565b91505092915050565b6000806040838503121561323157600080fd5b600061323f8582860161310e565b92505060206132508582860161310e565b9150509250929050565b60008060006060848603121561326f57600080fd5b600061327d8682870161310e565b935050602061328e8682870161310e565b925050604061329f8682870161310e565b9150509250925092565b6000806000606084860312156132be57600080fd5b60006132cc8682870161310e565b93505060206132dd8682870161310e565b92505060406132ee86828701613123565b9150509250925092565b60008060006060848603121561330d57600080fd5b600061331b8682870161310e565b935050602061332c8682870161310e565b925050604061333d868287016131cb565b9150509250925092565b6000806040838503121561335a57600080fd5b60006133688582860161310e565b925050602061337985828601613123565b9150509250929050565b6000806040838503121561339657600080fd5b60006133a48582860161310e565b92505060206133b5858286016131cb565b9150509250929050565b6000602082840312156133d157600080fd5b60006133df84828501613123565b91505092915050565b6000602082840312156133fa57600080fd5b600061340884828501613138565b91505092915050565b60006020828403121561342357600080fd5b600082015167ffffffffffffffff81111561343d57600080fd5b6134498482850161314d565b91505092915050565b60006020828403121561346457600080fd5b6000613472848285016131a1565b91505092915050565b60006020828403121561348d57600080fd5b600061349b848285016131b6565b91505092915050565b6000602082840312156134b657600080fd5b60006134c4848285016131e0565b91505092915050565b6134d681613a80565b82525050565b6134e581613a92565b82525050565b60006134f682613a64565b6135008185613a6f565b9350613510818560208601613adf565b61351981613b12565b840191505092915050565b6000613531600a83613a6f565b91507f4d473a5043545f4f4f42000000000000000000000000000000000000000000006000830152602082019050919050565b6000613571601383613a6f565b91507f4d473a4e4f545f474f565f4f525f41444d494e000000000000000000000000006000830152602082019050919050565b60006135b1601283613a6f565b91507f4d473a4e4f545f50454e44494e475f474f5600000000000000000000000000006000830152602082019050919050565b60006135f1601b83613a6f565b91507f536166654d6174683a206164646974696f6e206f766572666c6f7700000000006000830152602082019050919050565b6000613631600f83613a6f565b91507f4d473a50524f544f5f50415553454400000000000000000000000000000000006000830152602082019050919050565b6000613671601383613a6f565b91507f4d473a535741505f4f55545f544f4f5f4c4f57000000000000000000000000006000830152602082019050919050565b60006136b1600c83613a6f565b91507f4d473a5a45524f5f4144445200000000000000000000000000000000000000006000830152602082019050919050565b60006136f1600a83613a6f565b91507f4d473a4e4f545f474f56000000000000000000000000000000000000000000006000830152602082019050919050565b6000613731601283613a6f565b91507f4d473a494e56414c49445f53555045525f4600000000000000000000000000006000830152602082019050919050565b6000613771600c83613a6f565b91507f4d473a4e4f545f41444d494e00000000000000000000000000000000000000006000830152602082019050919050565b6137ad81613ac8565b82525050565b60006020820190506137c860008301846134cd565b92915050565b60006040820190506137e360008301856134cd565b6137f060208301846134cd565b9392505050565b600060408201905061380c60008301856134cd565b61381960208301846134dc565b9392505050565b600060808201905061383560008301876134cd565b61384260208301866137a4565b818103604083015261385481856134eb565b905061386360608301846134dc565b95945050505050565b600060208201905061388160008301846134dc565b92915050565b600060208201905081810360008301526138a081613524565b9050919050565b600060208201905081810360008301526138c081613564565b9050919050565b600060208201905081810360008301526138e0816135a4565b9050919050565b60006020820190508181036000830152613900816135e4565b9050919050565b6000602082019050818103600083015261392081613624565b9050919050565b6000602082019050818103600083015261394081613664565b9050919050565b60006020820190508181036000830152613960816136a4565b9050919050565b60006020820190508181036000830152613980816136e4565b9050919050565b600060208201905081810360008301526139a081613724565b9050919050565b600060208201905081810360008301526139c081613764565b9050919050565b60006020820190506139dc60008301846137a4565b92915050565b60006040820190506139f760008301856137a4565b613a0460208301846137a4565b9392505050565b6000604051905081810181811067ffffffffffffffff82111715613a2e57600080fd5b8060405250919050565b600067ffffffffffffffff821115613a4f57600080fd5b601f19601f8301169050602081019050919050565b600081519050919050565b600082825260208201905092915050565b6000613a8b82613aa8565b9050919050565b60008115159050919050565b6000819050919050565b600073ffffffffffffffffffffffffffffffffffffffff82169050919050565b6000819050919050565b600060ff82169050919050565b60005b83811015613afd578082015181840152602081019050613ae2565b83811115613b0c576000848401525b50505050565b6000601f19601f8301169050919050565b613b2c81613a80565b8114613b3757600080fd5b50565b613b4381613a92565b8114613b4e57600080fd5b50565b613b5a81613a9e565b8114613b6557600080fd5b50565b613b7181613ac8565b8114613b7c57600080fd5b50565b613b8881613ad2565b8114613b9357600080fd5b5056fea26469706673582212204eeb32493282a3e41c64bf331e2acb118e968a61b6b35b7fbb0b6e41af61063a64736f6c634300060b0033",
  "linkReferences": {},
  "deployedLinkReferences": {}
}