{
  "address": "0x0b817045bb15F58dE938E5Cf7E3a79c1C08fa436",
  "abi": [
    {
      "inputs": [
        {
          "internalType": "address",
          "name": "_governor",
          "type": "address"
        },
        {
          "internalType": "address",
          "name": "_hls",
          "type": "address"
        },
        {
          "internalType": "address",
          "name": "_globalAdmin",
          "type": "address"
        }
      ],
      "stateMutability": "nonpayable",
      "type": "constructor"
    },
    {
      "anonymous": false,
      "inputs": [
        {
          "indexed": false,
          "internalType": "address",
          "name": "balancerPool",
          "type": "address"
        },
        {
          "indexed": false,
          "internalType": "bool",
          "name": "valid",
          "type": "bool"
        }
      ],
      "name": "BalancerPoolSet",
      "type": "event"
    },
    {
      "anonymous": false,
      "inputs": [
        {
          "indexed": false,
          "internalType": "address",
          "name": "asset",
          "type": "address"
        },
        {
          "indexed": false,
          "internalType": "uint256",
          "name": "decimals",
          "type": "uint256"
        },
        {
          "indexed": false,
          "internalType": "string",
          "name": "symbol",
          "type": "string"
        },
        {
          "indexed": false,
          "internalType": "bool",
          "name": "valid",
          "type": "bool"
        }
      ],
      "name": "CollateralAssetSet",
      "type": "event"
    },
    {
      "anonymous": false,
      "inputs": [
        {
          "indexed": true,
          "internalType": "address",
          "name": "newGlobalAdmin",
          "type": "address"
        }
      ],
      "name": "GlobalAdminSet",
      "type": "event"
    },
    {
      "anonymous": false,
      "inputs": [
        {
          "indexed": true,
          "internalType": "bytes32",
          "name": "which",
          "type": "bytes32"
        },
        {
          "indexed": false,
          "internalType": "address",
          "name": "addr",
          "type": "address"
        }
      ],
      "name": "GlobalsAddressSet",
      "type": "event"
    },
    {
      "anonymous": false,
      "inputs": [
        {
          "indexed": true,
          "internalType": "bytes32",
          "name": "which",
          "type": "bytes32"
        },
        {
          "indexed": false,
          "internalType": "uint256",
          "name": "value",
          "type": "uint256"
        }
      ],
      "name": "GlobalsParamSet",
      "type": "event"
    },
    {
      "anonymous": false,
      "inputs": [
        {
          "indexed": true,
          "internalType": "address",
          "name": "governor",
          "type": "address"
        }
      ],
      "name": "GovernorAccepted",
      "type": "event"
    },
    {
      "anonymous": false,
      "inputs": [],
      "name": "Initialized",
      "type": "event"
    },
    {
      "anonymous": false,
      "inputs": [
        {
          "indexed": false,
          "internalType": "address",
          "name": "asset",
          "type": "address"
        },
        {
          "indexed": false,
          "internalType": "uint256",
          "name": "decimals",
          "type": "uint256"
        },
        {
          "indexed": false,
          "internalType": "string",
          "name": "symbol",
          "type": "string"
        },
        {
          "indexed": false,
          "internalType": "bool",
          "name": "valid",
          "type": "bool"
        }
      ],
      "name": "LiquidityAssetSet",
      "type": "event"
    },
    {
      "anonymous": false,
      "inputs": [
        {
          "indexed": false,
          "internalType": "address",
          "name": "asset",
          "type": "address"
        },
        {
          "indexed": false,
          "internalType": "address",
          "name": "oracle",
          "type": "address"
        }
      ],
      "name": "OracleSet",
      "type": "event"
    },
    {
      "anonymous": false,
      "inputs": [
        {
          "indexed": true,
          "internalType": "address",
          "name": "pendingGovernor",
          "type": "address"
        }
      ],
      "name": "PendingGovernorSet",
      "type": "event"
    },
    {
      "anonymous": false,
      "inputs": [
        {
          "indexed": true,
          "internalType": "address",
          "name": "delegate",
          "type": "address"
        },
        {
          "indexed": false,
          "internalType": "bool",
          "name": "valid",
          "type": "bool"
        }
      ],
      "name": "PoolDelegateSet",
      "type": "event"
    },
    {
      "anonymous": false,
      "inputs": [
        {
          "indexed": false,
          "internalType": "bool",
          "name": "pause",
          "type": "bool"
        }
      ],
      "name": "ProtocolPaused",
      "type": "event"
    },
    {
      "anonymous": false,
      "inputs": [
        {
          "indexed": true,
          "internalType": "address",
          "name": "exemptedContract",
          "type": "address"
        },
        {
          "indexed": false,
          "internalType": "bool",
          "name": "valid",
          "type": "bool"
        }
      ],
      "name": "TransferRestrictionExemptionSet",
      "type": "event"
    },
    {
      "inputs": [],
      "name": "acceptGovernor",
      "outputs": [],
      "stateMutability": "nonpayable",
      "type": "function"
    },
    {
      "inputs": [],
      "name": "defaultGracePeriod",
      "outputs": [
        {
          "internalType": "uint256",
          "name": "",
          "type": "uint256"
        }
      ],
      "stateMutability": "view",
      "type": "function"
    },
    {
      "inputs": [
        {
          "internalType": "address",
          "name": "",
          "type": "address"
        },
        {
          "internalType": "address",
          "name": "",
          "type": "address"
        }
      ],
      "name": "defaultUniswapPath",
      "outputs": [
        {
          "internalType": "address",
          "name": "",
          "type": "address"
        }
      ],
      "stateMutability": "view",
      "type": "function"
    },
    {
      "inputs": [],
      "name": "fundingPeriod",
      "outputs": [
        {
          "internalType": "uint256",
          "name": "",
          "type": "uint256"
        }
      ],
      "stateMutability": "view",
      "type": "function"
    },
    {
      "inputs": [
        {
          "internalType": "address",
          "name": "asset",
          "type": "address"
        }
      ],
      "name": "getLatestPrice",
      "outputs": [
        {
          "internalType": "uint256",
          "name": "",
          "type": "uint256"
        }
      ],
      "stateMutability": "view",
      "type": "function"
    },
    {
      "inputs": [],
      "name": "getLpCooldownParams",
      "outputs": [
        {
          "internalType": "uint256",
          "name": "",
          "type": "uint256"
        },
        {
          "internalType": "uint256",
          "name": "",
          "type": "uint256"
        }
      ],
      "stateMutability": "view",
      "type": "function"
    },
    {
      "inputs": [],
      "name": "globalAdmin",
      "outputs": [
        {
          "internalType": "address",
          "name": "",
          "type": "address"
        }
      ],
      "stateMutability": "view",
      "type": "function"
    },
    {
      "inputs": [],
      "name": "governor",
      "outputs": [
        {
          "internalType": "address",
          "name": "",
          "type": "address"
        }
      ],
      "stateMutability": "view",
      "type": "function"
    },
    {
      "inputs": [],
      "name": "heliosTreasury",
      "outputs": [
        {
          "internalType": "address",
          "name": "",
          "type": "address"
        }
      ],
      "stateMutability": "view",
      "type": "function"
    },
    {
      "inputs": [],
      "name": "hls",
      "outputs": [
        {
          "internalType": "address",
          "name": "",
          "type": "address"
        }
      ],
      "stateMutability": "view",
      "type": "function"
    },
    {
      "inputs": [],
      "name": "investorFee",
      "outputs": [
        {
          "internalType": "uint256",
          "name": "",
          "type": "uint256"
        }
      ],
      "stateMutability": "view",
      "type": "function"
    },
    {
      "inputs": [
        {
          "internalType": "address",
          "name": "",
          "type": "address"
        }
      ],
      "name": "isValidBalancerPool",
      "outputs": [
        {
          "internalType": "bool",
          "name": "",
          "type": "bool"
        }
      ],
      "stateMutability": "view",
      "type": "function"
    },
    {
      "inputs": [
        {
          "internalType": "address",
          "name": "calc",
          "type": "address"
        },
        {
          "internalType": "uint8",
          "name": "calcType",
          "type": "uint8"
        }
      ],
      "name": "isValidCalc",
      "outputs": [
        {
          "internalType": "bool",
          "name": "",
          "type": "bool"
        }
      ],
      "stateMutability": "view",
      "type": "function"
    },
    {
      "inputs": [
        {
          "internalType": "address",
          "name": "",
          "type": "address"
        }
      ],
      "name": "isValidCollateralAsset",
      "outputs": [
        {
          "internalType": "bool",
          "name": "",
          "type": "bool"
        }
      ],
      "stateMutability": "view",
      "type": "function"
    },
    {
      "inputs": [
        {
          "internalType": "address",
          "name": "",
          "type": "address"
        }
      ],
      "name": "isValidLiquidityAsset",
      "outputs": [
        {
          "internalType": "bool",
          "name": "",
          "type": "bool"
        }
      ],
      "stateMutability": "view",
      "type": "function"
    },
    {
      "inputs": [
        {
          "internalType": "address",
          "name": "",
          "type": "address"
        }
      ],
      "name": "isValidLoanFactory",
      "outputs": [
        {
          "internalType": "bool",
          "name": "",
          "type": "bool"
        }
      ],
      "stateMutability": "view",
      "type": "function"
    },
    {
      "inputs": [
        {
          "internalType": "address",
          "name": "",
          "type": "address"
        }
      ],
      "name": "isValidPoolDelegate",
      "outputs": [
        {
          "internalType": "bool",
          "name": "",
          "type": "bool"
        }
      ],
      "stateMutability": "view",
      "type": "function"
    },
    {
      "inputs": [
        {
          "internalType": "address",
          "name": "",
          "type": "address"
        }
      ],
      "name": "isValidPoolFactory",
      "outputs": [
        {
          "internalType": "bool",
          "name": "",
          "type": "bool"
        }
      ],
      "stateMutability": "view",
      "type": "function"
    },
    {
      "inputs": [
        {
          "internalType": "address",
          "name": "superFactory",
          "type": "address"
        },
        {
          "internalType": "address",
          "name": "subFactory",
          "type": "address"
        },
        {
          "internalType": "uint8",
          "name": "factoryType",
          "type": "uint8"
        }
      ],
      "name": "isValidSubFactory",
      "outputs": [
        {
          "internalType": "bool",
          "name": "",
          "type": "bool"
        }
      ],
      "stateMutability": "view",
      "type": "function"
    },
    {
      "inputs": [],
      "name": "lpCooldownPeriod",
      "outputs": [
        {
          "internalType": "uint256",
          "name": "",
          "type": "uint256"
        }
      ],
      "stateMutability": "view",
      "type": "function"
    },
    {
      "inputs": [],
      "name": "lpWithdrawWindow",
      "outputs": [
        {
          "internalType": "uint256",
          "name": "",
          "type": "uint256"
        }
      ],
      "stateMutability": "view",
      "type": "function"
    },
    {
      "inputs": [],
      "name": "maxSwapSlippage",
      "outputs": [
        {
          "internalType": "uint256",
          "name": "",
          "type": "uint256"
        }
      ],
      "stateMutability": "view",
      "type": "function"
    },
    {
      "inputs": [],
      "name": "minLoanEquity",
      "outputs": [
        {
          "internalType": "uint256",
          "name": "",
          "type": "uint256"
        }
      ],
      "stateMutability": "view",
      "type": "function"
    },
    {
      "inputs": [
        {
          "internalType": "address",
          "name": "",
          "type": "address"
        }
      ],
      "name": "oracleFor",
      "outputs": [
        {
          "internalType": "address",
          "name": "",
          "type": "address"
        }
      ],
      "stateMutability": "view",
      "type": "function"
    },
    {
      "inputs": [],
      "name": "pendingGovernor",
      "outputs": [
        {
          "internalType": "address",
          "name": "",
          "type": "address"
        }
      ],
      "stateMutability": "view",
      "type": "function"
    },
    {
      "inputs": [],
      "name": "protocolPaused",
      "outputs": [
        {
          "internalType": "bool",
          "name": "",
          "type": "bool"
        }
      ],
      "stateMutability": "view",
      "type": "function"
    },
    {
      "inputs": [
        {
          "internalType": "address",
          "name": "calc",
          "type": "address"
        },
        {
          "internalType": "bool",
          "name": "valid",
          "type": "bool"
        }
      ],
      "name": "setCalc",
      "outputs": [],
      "stateMutability": "nonpayable",
      "type": "function"
    },
    {
      "inputs": [
        {
          "internalType": "address",
          "name": "asset",
          "type": "address"
        },
        {
          "internalType": "bool",
          "name": "valid",
          "type": "bool"
        }
      ],
      "name": "setCollateralAsset",
      "outputs": [],
      "stateMutability": "nonpayable",
      "type": "function"
    },
    {
      "inputs": [
        {
          "internalType": "uint256",
          "name": "_defaultGracePeriod",
          "type": "uint256"
        }
      ],
      "name": "setDefaultGracePeriod",
      "outputs": [],
      "stateMutability": "nonpayable",
      "type": "function"
    },
    {
      "inputs": [
        {
          "internalType": "address",
          "name": "from",
          "type": "address"
        },
        {
          "internalType": "address",
          "name": "to",
          "type": "address"
        },
        {
          "internalType": "address",
          "name": "mid",
          "type": "address"
        }
      ],
      "name": "setDefaultUniswapPath",
      "outputs": [],
      "stateMutability": "nonpayable",
      "type": "function"
    },
    {
      "inputs": [
        {
          "internalType": "uint256",
          "name": "_fundingPeriod",
          "type": "uint256"
        }
      ],
      "name": "setFundingPeriod",
      "outputs": [],
      "stateMutability": "nonpayable",
      "type": "function"
    },
    {
      "inputs": [
        {
          "internalType": "address",
          "name": "newGlobalAdmin",
          "type": "address"
        }
      ],
      "name": "setGlobalAdmin",
      "outputs": [],
      "stateMutability": "nonpayable",
      "type": "function"
    },
    {
      "inputs": [
        {
          "internalType": "address",
          "name": "_heliosTreasury",
          "type": "address"
        }
      ],
      "name": "setHeliosTreasury",
      "outputs": [],
      "stateMutability": "nonpayable",
      "type": "function"
    },
    {
      "inputs": [
        {
          "internalType": "uint256",
          "name": "_fee",
          "type": "uint256"
        }
      ],
      "name": "setInvestorFee",
      "outputs": [],
      "stateMutability": "nonpayable",
      "type": "function"
    },
    {
      "inputs": [
        {
          "internalType": "address",
          "name": "asset",
          "type": "address"
        },
        {
          "internalType": "bool",
          "name": "valid",
          "type": "bool"
        }
      ],
      "name": "setLiquidityAsset",
      "outputs": [],
      "stateMutability": "nonpayable",
      "type": "function"
    },
    {
      "inputs": [
        {
          "internalType": "uint256",
          "name": "newCooldownPeriod",
          "type": "uint256"
        }
      ],
      "name": "setLpCooldownPeriod",
      "outputs": [],
      "stateMutability": "nonpayable",
      "type": "function"
    },
    {
      "inputs": [
        {
          "internalType": "uint256",
          "name": "newLpWithdrawWindow",
          "type": "uint256"
        }
      ],
      "name": "setLpWithdrawWindow",
      "outputs": [],
      "stateMutability": "nonpayable",
      "type": "function"
    },
    {
      "inputs": [
        {
          "internalType": "uint256",
          "name": "newMaxSlippage",
          "type": "uint256"
        }
      ],
      "name": "setMaxSwapSlippage",
      "outputs": [],
      "stateMutability": "nonpayable",
      "type": "function"
    },
    {
      "inputs": [
        {
          "internalType": "uint256",
          "name": "_minLoanEquity",
          "type": "uint256"
        }
      ],
      "name": "setMinLoanEquity",
      "outputs": [],
      "stateMutability": "nonpayable",
      "type": "function"
    },
    {
      "inputs": [
        {
          "internalType": "address",
          "name": "_pendingGovernor",
          "type": "address"
        }
      ],
      "name": "setPendingGovernor",
      "outputs": [],
      "stateMutability": "nonpayable",
      "type": "function"
    },
    {
      "inputs": [
        {
          "internalType": "address",
          "name": "delegate",
          "type": "address"
        },
        {
          "internalType": "bool",
          "name": "valid",
          "type": "bool"
        }
      ],
      "name": "setPoolDelegateAllowlist",
      "outputs": [],
      "stateMutability": "nonpayable",
      "type": "function"
    },
    {
      "inputs": [
        {
          "internalType": "address",
          "name": "asset",
          "type": "address"
        },
        {
          "internalType": "address",
          "name": "oracle",
          "type": "address"
        }
      ],
      "name": "setPriceOracle",
      "outputs": [],
      "stateMutability": "nonpayable",
      "type": "function"
    },
    {
      "inputs": [
        {
          "internalType": "bool",
          "name": "pause",
          "type": "bool"
        }
      ],
      "name": "setProtocolPause",
      "outputs": [],
      "stateMutability": "nonpayable",
      "type": "function"
    },
    {
      "inputs": [
        {
          "internalType": "uint256",
          "name": "newCooldownPeriod",
          "type": "uint256"
        }
      ],
      "name": "setStakerCooldownPeriod",
      "outputs": [],
      "stateMutability": "nonpayable",
      "type": "function"
    },
    {
      "inputs": [
        {
          "internalType": "uint256",
          "name": "newUnstakeWindow",
          "type": "uint256"
        }
      ],
      "name": "setStakerUnstakeWindow",
      "outputs": [],
      "stateMutability": "nonpayable",
      "type": "function"
    },
    {
      "inputs": [
        {
          "internalType": "uint256",
          "name": "amt",
          "type": "uint256"
        }
      ],
      "name": "setSwapOutRequired",
      "outputs": [],
      "stateMutability": "nonpayable",
      "type": "function"
    },
    {
      "inputs": [
        {
          "internalType": "uint256",
          "name": "_fee",
          "type": "uint256"
        }
      ],
      "name": "setTreasuryFee",
      "outputs": [],
      "stateMutability": "nonpayable",
      "type": "function"
    },
    {
      "inputs": [
        {
          "internalType": "address",
          "name": "balancerPool",
          "type": "address"
        },
        {
          "internalType": "bool",
          "name": "valid",
          "type": "bool"
        }
      ],
      "name": "setValidBalancerPool",
      "outputs": [],
      "stateMutability": "nonpayable",
      "type": "function"
    },
    {
      "inputs": [
        {
          "internalType": "address",
          "name": "loanFactory",
          "type": "address"
        },
        {
          "internalType": "bool",
          "name": "valid",
          "type": "bool"
        }
      ],
      "name": "setValidLoanFactory",
      "outputs": [],
      "stateMutability": "nonpayable",
      "type": "function"
    },
    {
      "inputs": [
        {
          "internalType": "address",
          "name": "poolFactory",
          "type": "address"
        },
        {
          "internalType": "bool",
          "name": "valid",
          "type": "bool"
        }
      ],
      "name": "setValidPoolFactory",
      "outputs": [],
      "stateMutability": "nonpayable",
      "type": "function"
    },
    {
      "inputs": [
        {
          "internalType": "address",
          "name": "superFactory",
          "type": "address"
        },
        {
          "internalType": "address",
          "name": "subFactory",
          "type": "address"
        },
        {
          "internalType": "bool",
          "name": "valid",
          "type": "bool"
        }
      ],
      "name": "setValidSubFactory",
      "outputs": [],
      "stateMutability": "nonpayable",
      "type": "function"
    },
    {
      "inputs": [],
      "name": "stakerCooldownPeriod",
      "outputs": [
        {
          "internalType": "uint256",
          "name": "",
          "type": "uint256"
        }
      ],
      "stateMutability": "view",
      "type": "function"
    },
    {
      "inputs": [],
      "name": "stakerUnstakeWindow",
      "outputs": [
        {
          "internalType": "uint256",
          "name": "",
          "type": "uint256"
        }
      ],
      "stateMutability": "view",
      "type": "function"
    },
    {
      "inputs": [],
      "name": "swapOutRequired",
      "outputs": [
        {
          "internalType": "uint256",
          "name": "",
          "type": "uint256"
        }
      ],
      "stateMutability": "view",
      "type": "function"
    },
    {
      "inputs": [],
      "name": "treasuryFee",
      "outputs": [
        {
          "internalType": "uint256",
          "name": "",
          "type": "uint256"
        }
      ],
      "stateMutability": "view",
      "type": "function"
    },
    {
      "inputs": [
        {
          "internalType": "address",
          "name": "",
          "type": "address"
        }
      ],
      "name": "validCalcs",
      "outputs": [
        {
          "internalType": "bool",
          "name": "",
          "type": "bool"
        }
      ],
      "stateMutability": "view",
      "type": "function"
    },
    {
      "inputs": [
        {
          "internalType": "address",
          "name": "",
          "type": "address"
        },
        {
          "internalType": "address",
          "name": "",
          "type": "address"
        }
      ],
      "name": "validSubFactories",
      "outputs": [
        {
          "internalType": "bool",
          "name": "",
          "type": "bool"
        }
      ],
      "stateMutability": "view",
      "type": "function"
    }
  ],
  "transactionHash": "0xd5d7084c1211e611077841994a9829512addbad048522a3ba3749b83a89f90ad",
  "args": [
    "0xA744263c6f294db52c4b3b416BA5c1800f66BDBa",
    "0x0b932e28000A132fd25A36795f4Fd5F4557693DA",
    "0xA744263c6f294db52c4b3b416BA5c1800f66BDBa"
  ],
  "numDeployments": 1,
  "solcInputHash": "dffa7e128f2b675162a5be10778a0091",
  "bytecode": "0x60a06040523480156200001157600080fd5b5060405162001f9a38038062001f9a8339810160408190526200003491620000eb565b600180546001600160a01b038086166001600160a01b0319928316179092556001600160601b0319606085901b1660805260006005819055620d2f00600681905562069780600455603260078190556008556103e86009556107d0600a55600380549486169490931693909317909155600b829055600c919091556202a300600d819055600e556040517f5daa87a0e9463431830481fd4b6e3403442dfb9a12b9c07597e9f61d50b633c89190a150505062000157565b60008060006060848603121562000100578283fd5b83516200010d816200013e565b602085015190935062000120816200013e565b604085015190925062000133816200013e565b809150509250925092565b6001600160a01b03811681146200015457600080fd5b50565b60805160601c611e2562000175600039806113a85250611e256000f3fe608060405234801561001057600080fd5b50600436106103835760003560e01c806374d7c62b116101de578063d1cdf3011161010f578063ec9a9368116100ad578063f38976631161007c578063f3897663146106e6578063f85ee6f8146106f9578063fd4a91211461070c578063fd6f1de01461071f57610383565b8063ec9a9368146106a5578063efdb16fc146106ad578063f235757f146106c0578063f33ef09a146106d357610383565b8063df3d02bd116100e9578063df3d02bd14610685578063e1c5cdbd1461068d578063e3056a3414610695578063e58bb6391461069d57610383565b8063d1cdf30114610657578063dbc6c5521461066a578063dd02e0ec1461067d57610383565b8063ae9278fe1161017c578063be44ed6b11610156578063be44ed6b14610616578063c52bc31d14610629578063c9c672401461063c578063cc32d1761461064f57610383565b8063ae9278fe146105e8578063aed019b9146105f0578063b53afda71461060357610383565b80638695118a116101b85780638695118a146105a45780638c14834b146105b75780639f51290b146105ca578063a965d6b5146105e057610383565b806374d7c62b1461057657806377e741c71461057e5780638608a6e11461059157610383565b80633106374c116102b85780634e989118116102565780636597b899116102305780636597b8991461053557806367a74ddc14610548578063705d5f241461055b57806372a22d711461056357610383565b80634e98911814610507578063553231951461051a5780635e0454671461052257610383565b806344c14f711161029257806344c14f71146104c6578063490dae64146104d95780634a2697c4146104ec5780634d866592146104f457610383565b80633106374c146104a3578063372e3546146104ab578063425fad58146104be57610383565b80631beb84e711610325578063298b795d116102ff578063298b795d146104575780632a5aa2921461046a5780632daa0d891461047d5780632fa6c88f1461049057610383565b80631beb84e7146104275780632018b8701461043a578063267186061461044257610383565b806316345f181161036157806316345f18146103d957806316a12d7a146103f95780631b1804aa146104015780631b5833f71461041457610383565b80630c340a2414610388578063107c0240146103a657806313d459fb146103c6575b600080fd5b610390610732565b60405161039d9190611b0b565b60405180910390f35b6103b96103b4366004611886565b610741565b60405161039d9190611ba5565b6103b96103d4366004611964565b610756565b6103ec6103e7366004611886565b61080a565b60405161039d9190611d56565b6103ec61089a565b6103b961040f3660046118a1565b6108a0565b6103b96104223660046119dc565b6108c0565b6103b9610435366004611886565b610964565b6103ec610979565b610455610450366004611ad7565b61097f565b005b610455610465366004611ad7565b6109f7565b610455610478366004611ad7565b610a61565b61045561048b3660046119a1565b610ac1565b61045561049e3660046119a1565b610c31565b6103ec610cd7565b6103b96104b9366004611886565b610cdd565b6103b9610cf2565b6104556104d4366004611ad7565b610cfb565b6104556104e73660046119a1565b610d61565b6103ec610de1565b6103906105023660046118a1565b610de7565b610455610515366004611a08565b610e0d565b6103ec610e80565b610455610530366004611ad7565b610e86565b6104556105433660046119a1565b610f00565b6104556105563660046118a1565b610f55565b6103ec610fe0565b6103b9610571366004611886565b610fe6565b6103ec610ffb565b61045561058c366004611ad7565b611001565b61045561059f366004611ad7565b611076565b6103b96105b2366004611886565b6110da565b6103b96105c5366004611886565b6110ef565b6105d2611104565b60405161039d929190611d5f565b6103ec61110e565b610390611114565b6103906105fe366004611886565b611123565b6103b9610611366004611886565b61113e565b6104556106243660046119a1565b611153565b610455610637366004611886565b6111a8565b61045561064a3660046119a1565b611253565b6103ec6112a8565b610455610665366004611ad7565b6112ae565b610455610678366004611ad7565b611315565b6103ec61139a565b6103ec6113a0565b6103906113a6565b6103906113ca565b6104556113d9565b61039061144b565b6104556106bb3660046119a1565b61145a565b6104556106ce366004611886565b6114e4565b6104556106e1366004611ad7565b61157c565b6104556106f43660046118d5565b6115e8565b61045561070736600461191a565b61164f565b61045561071a366004611ad7565b61170e565b61045561072d366004611886565b611776565b6001546001600160a01b031681565b60176020526000908152604090205460ff1681565b6001600160a01b03808416600090815260196020908152604080832093861683529290529081205460ff16801561080257508160ff16836001600160a01b03166364e1fd556040518163ffffffff1660e01b815260040160206040518083038186803b1580156107c557600080fd5b505afa1580156107d9573d6000803e3d6000fd5b505050506040513d601f19601f820116820180604052508101906107fd9190611aef565b60ff16145b949350505050565b6001600160a01b038082166000908152601660209081526040808320548151638e15f47360e01b8152915193941692638e15f47392600480840193919291829003018186803b15801561085c57600080fd5b505afa158015610870573d6000803e3d6000fd5b505050506040513d601f19601f820116820180604052508101906108949190611a24565b92915050565b60075481565b601960209081526000928352604080842090915290825290205460ff1681565b6001600160a01b03821660009081526012602052604081205460ff16801561095d57508160ff16836001600160a01b0316639d8ae4466040518163ffffffff1660e01b815260040160206040518083038186803b15801561092057600080fd5b505afa158015610934573d6000803e3d6000fd5b505050506040513d601f19601f820116820180604052508101906109589190611aef565b60ff16145b9392505050565b60126020526000908152604090205460ff1681565b600d5481565b6001546001600160a01b031633146109b25760405162461bcd60e51b81526004016109a990611ce0565b60405180910390fd5b80600e81905550714c505f57495448445241575f57494e444f5760701b600080516020611dd0833981519152826040516109ec9190611d56565b60405180910390a250565b6001546001600160a01b03163314610a215760405162461bcd60e51b81526004016109a990611ce0565b610a2a81611825565b80600a819055506e4d494e5f4c4f414e5f45515549545960881b600080516020611dd0833981519152826040516109ec9190611d56565b6001546001600160a01b03163314610a8b5760405162461bcd60e51b81526004016109a990611ce0565b806006819055506d11955391125391d7d411549253d160921b600080516020611dd0833981519152826040516109ec9190611d56565b6001546001600160a01b03163314610aeb5760405162461bcd60e51b81526004016109a990611ce0565b6001600160a01b038216600081815260106020908152604091829020805460ff1916851515179055815163313ce56760e01b815291517f18d231995d1f7e4354b1786418aa8f34f99996ded9cc6b1d43c3815eb6f5ab79938693909263313ce56792600480840193829003018186803b158015610b6757600080fd5b505afa158015610b7b573d6000803e3d6000fd5b505050506040513d601f19601f82011682018060405250810190610b9f9190611a24565b846001600160a01b03166395d89b416040518163ffffffff1660e01b815260040160006040518083038186803b158015610bd857600080fd5b505afa158015610bec573d6000803e3d6000fd5b505050506040513d6000823e601f3d908101601f19168201604052610c149190810190611a3c565b84604051610c259493929190611b54565b60405180910390a15050565b6001546001600160a01b03163314610c5b5760405162461bcd60e51b81526004016109a990611ce0565b6001600160a01b038216600081815260116020908152604091829020805460ff1916851515179055815163313ce56760e01b815291517fb9456501e6a30eefbf8c4f9d199ef0c7ac7491abb068d594bbafbdec85447ccc938693909263313ce56792600480840193829003018186803b158015610b6757600080fd5b60055481565b60136020526000908152604090205460ff1681565b600f5460ff1681565b6001546001600160a01b03163314610d255760405162461bcd60e51b81526004016109a990611ce0565b80600481905550731111519055531517d1d49050d157d411549253d160621b600080516020611dd0833981519152826040516109ec9190611d56565b6001546001600160a01b03163314610d8b5760405162461bcd60e51b81526004016109a990611ce0565b6001600160a01b03821660009081526014602052604090819020805460ff1916831515179055517f936e0e50587b3c03d3e833e5cc880e9a62afb49d51808e96d00c4790ed03796290610c259084908490611b39565b600a5481565b60156020908152600092835260408084209091529082529020546001600160a01b031681565b6003546001600160a01b03163314610e375760405162461bcd60e51b81526004016109a990611d30565b600f805460ff19168215151790556040517f6e0cb5fa7a57c38eb7939c1104f95fccb5b7a6a8c1a7cab76934305439b639f590610e75908390611ba5565b60405180910390a150565b60095481565b6001546001600160a01b03163314610eb05760405162461bcd60e51b81526004016109a990611ce0565b600854610ecc90610ec7908363ffffffff61184a16565b611825565b806007819055506b494e564553544f525f46454560a01b600080516020611dd0833981519152826040516109ec9190611d56565b6001546001600160a01b03163314610f2a5760405162461bcd60e51b81526004016109a990611ce0565b6001600160a01b03919091166000908152601760205260409020805460ff1916911515919091179055565b6001546001600160a01b03163314610f7f5760405162461bcd60e51b81526004016109a990611ce0565b6001600160a01b038281166000908152601660205260409081902080546001600160a01b03191692841692909217909155517fc1d3048301c0d23629a2532c8defa6d68f8e1a0e4157918769e9fb1b2eeb888e90610c259084908490611b1f565b60045481565b60146020526000908152604090205460ff1681565b60065481565b6001546001600160a01b0316331461102b5760405162461bcd60e51b81526004016109a990611ce0565b60075461104290610ec7908363ffffffff61184a16565b806008819055506b54524541535552595f46454560a01b600080516020611dd0833981519152826040516109ec9190611d56565b6001546001600160a01b031633146110a05760405162461bcd60e51b81526004016109a990611ce0565b80600c8190555071131417d0d3d3d31113d5d397d411549253d160721b600080516020611dd0833981519152826040516109ec9190611d56565b60106020526000908152604090205460ff1681565b60116020526000908152604090205460ff1681565b600c54600e549091565b600b5481565b6002546001600160a01b031681565b6016602052600090815260409020546001600160a01b031681565b60186020526000908152604090205460ff1681565b6001546001600160a01b0316331461117d5760405162461bcd60e51b81526004016109a990611ce0565b6001600160a01b03919091166000908152601260205260409020805460ff1916911515919091179055565b6001546001600160a01b0316331480156111ca57506001600160a01b03811615155b6111e65760405162461bcd60e51b81526004016109a990611bd4565b600f5460ff16156112095760405162461bcd60e51b81526004016109a990611c64565b600380546001600160a01b0319166001600160a01b0383169081179091556040517fad3f8fa73ce3985d027e4c3bbe1194701a23e635a746bcf73d8632f677ac388290600090a250565b6001546001600160a01b0316331461127d5760405162461bcd60e51b81526004016109a990611ce0565b6001600160a01b03919091166000908152601860205260409020805460ff1916911515919091179055565b60085481565b6001546001600160a01b031633146112d85760405162461bcd60e51b81526004016109a990611ce0565b80600d81905550745354414b45525f554e5354414b455f57494e444f5760581b600080516020611dd0833981519152826040516109ec9190611d56565b6001546001600160a01b0316331461133f5760405162461bcd60e51b81526004016109a990611ce0565b6127108110156113615760405162461bcd60e51b81526004016109a990611c8d565b806005819055507014d5d05417d3d55517d491545552549151607a1b600080516020611dd0833981519152826040516109ec9190611d56565b600c5481565b600e5481565b7f000000000000000000000000000000000000000000000000000000000000000081565b6000546001600160a01b031681565b6000546001600160a01b031633146114035760405162461bcd60e51b81526004016109a990611c01565b60018054336001600160a01b031991821681179092556000805490911681556040517fb7a4788848eba3319c766bdd6428c7d7a10e4cba4fd6ade9b79b7102b7099b369190a2565b6003546001600160a01b031681565b6001546001600160a01b031633146114845760405162461bcd60e51b81526004016109a990611ce0565b6001600160a01b03821660008181526013602052604090819020805460ff1916841515179055517fd2e6a599a52383178be9bf2d0be60c96615b89f8d9cf6c680f06962aa73679fc906114d8908490611ba5565b60405180910390a25050565b6001546001600160a01b0316331461150e5760405162461bcd60e51b81526004016109a990611ce0565b6001600160a01b0381166115345760405162461bcd60e51b81526004016109a990611cba565b600080546001600160a01b0319166001600160a01b038316908117825560405190917f56bddfa0cee9697cebddf9acd7f23dc6583663b05e007b877056d05017994def91a250565b6001546001600160a01b031633146115a65760405162461bcd60e51b81526004016109a990611ce0565b6115af81611825565b80600981905550704d41585f535741505f534c49505041474560781b600080516020611dd0833981519152826040516109ec9190611d56565b6001546001600160a01b031633146116125760405162461bcd60e51b81526004016109a990611ce0565b6001600160a01b03928316600090815260156020908152604080832094861683529390529190912080546001600160a01b03191691909216179055565b6001546001600160a01b031633146116795760405162461bcd60e51b81526004016109a990611ce0565b6001600160a01b03831660009081526018602052604090205460ff16806116b857506001600160a01b03831660009081526017602052604090205460ff165b6116d45760405162461bcd60e51b81526004016109a990611d04565b6001600160a01b03928316600090815260196020908152604080832094909516825292909252919020805460ff1916911515919091179055565b6001546001600160a01b031633146117385760405162461bcd60e51b81526004016109a990611ce0565b80600b819055507514d51052d15497d0d3d3d31113d5d397d411549253d160521b600080516020611dd0833981519152826040516109ec9190611d56565b6001546001600160a01b031633146117a05760405162461bcd60e51b81526004016109a990611ce0565b6001600160a01b0381166117c65760405162461bcd60e51b81526004016109a990611cba565b600280546001600160a01b0319166001600160a01b0383161790556040516e48454c494f535f545245415355525960881b907f806b6f19dfa971f58fc9140115f19907b73e8336024786c79c2ffc56f6678ec1906109ec908490611b0b565b6127108111156118475760405162461bcd60e51b81526004016109a990611bb0565b50565b60008282018381101561095d5760405162461bcd60e51b81526004016109a990611c2d565b80356001600160a01b038116811461089457600080fd5b600060208284031215611897578081fd5b61095d838361186f565b600080604083850312156118b3578081fd5b6118bd848461186f565b91506118cc846020850161186f565b90509250929050565b6000806000606084860312156118e9578081fd5b6118f3858561186f565b9250611902856020860161186f565b9150611911856040860161186f565b90509250925092565b60008060006060848603121561192e578283fd5b833561193981611d9d565b9250602084013561194981611d9d565b9150604084013561195981611db2565b809150509250925092565b600080600060608486031215611978578283fd5b611982858561186f565b9250611991856020860161186f565b9150604084013561195981611dc0565b600080604083850312156119b3578182fd5b6119bd848461186f565b9150602083013580151581146119d1578182fd5b809150509250929050565b600080604083850312156119ee578182fd5b6119f8848461186f565b915060208301356119d181611dc0565b600060208284031215611a19578081fd5b813561095d81611db2565b600060208284031215611a35578081fd5b5051919050565b600060208284031215611a4d578081fd5b815167ffffffffffffffff80821115611a64578283fd5b81840185601f820112611a75578384fd5b8051925081831115611a85578384fd5b604051601f8401601f191681016020018381118282101715611aa5578586fd5b604052838152818401602001871015611abc578485fd5b611acd846020830160208501611d6d565b9695505050505050565b600060208284031215611ae8578081fd5b5035919050565b600060208284031215611b00578081fd5b815161095d81611dc0565b6001600160a01b0391909116815260200190565b6001600160a01b0392831681529116602082015260400190565b6001600160a01b039290921682521515602082015260400190565b600060018060a01b0386168252846020830152608060408301528351806080840152611b878160a0850160208801611d6d565b921515606083015250601f91909101601f19160160a0019392505050565b901515815260200190565b6020808252600a908201526926a39d2821aa2fa7a7a160b11b604082015260600190565b60208082526013908201527226a39d2727aa2fa3a7ab2fa7a92fa0a226a4a760691b604082015260600190565b60208082526012908201527126a39d2727aa2fa822a72224a723afa3a7ab60711b604082015260600190565b6020808252601b908201527f536166654d6174683a206164646974696f6e206f766572666c6f770000000000604082015260600190565b6020808252600f908201526e1351ce941493d513d7d4105554d151608a1b604082015260600190565b6020808252601390820152724d473a535741505f4f55545f544f4f5f4c4f5760681b604082015260600190565b6020808252600c908201526b26a39d2d22a927afa0a2222960a11b604082015260600190565b6020808252600a908201526926a39d2727aa2fa3a7ab60b11b604082015260600190565b60208082526012908201527126a39d24a72b20a624a22fa9aaa822a92fa360711b604082015260600190565b6020808252600c908201526b26a39d2727aa2fa0a226a4a760a11b604082015260600190565b90815260200190565b918252602082015260400190565b60005b83811015611d88578181015183820152602001611d70565b83811115611d97576000848401525b50505050565b6001600160a01b038116811461184757600080fd5b801515811461184757600080fd5b60ff8116811461184757600080fdfed8780a041c72589f51af8b3fade9cc8a466d00ecef64d45657dd6cdebf1ecf47a2646970667358221220187be69e5bf2a5ea344892fd29245a2dcdbca2b3d847ac8acb35af17024726b364736f6c634300060b0033",
  "libraries": {},
  "devdoc": {
    "kind": "dev",
    "methods": {
      "acceptGovernor()": {
        "details": "Accept the Governor position. Only the Pending Governor can call this function.It emits a `GovernorAccepted` event."
      },
      "constructor": {
        "details": "Constructor function.It emits an `Initialized` event.",
        "params": {
          "_globalAdmin": "Address the Global Admin.",
          "_governor": "Address of Governor.",
          "_hls": "Address of the ERC-2222 Helios Token for the Helios protocol."
        }
      },
      "getLatestPrice(address)": {
        "details": "Fetch price for asset from Chainlink oracles.",
        "params": {
          "asset": "Asset to fetch price of."
        },
        "returns": {
          "_0": "Price of asset in USD."
        }
      },
      "getLpCooldownParams()": {
        "details": "Returns the `lpCooldownPeriod` and `lpWithdrawWindow` as a tuple, for convenience.",
        "returns": {
          "_0": "[0] = lpCooldownPeriod [1] = lpWithdrawWindow"
        }
      },
      "isValidCalc(address,uint8)": {
        "details": "Checks that a Calculator is valid.",
        "params": {
          "calc": "Calculator address.",
          "calcType": "Calculator type."
        }
      },
      "isValidSubFactory(address,address,uint8)": {
        "details": "Checks that a subFactory is valid as it relates to a super factory.",
        "params": {
          "factoryType": "The type expected for the subFactory. References listed below. 0 = COLLATERAL_LOCKER_FACTORY 1 = DEBT_LOCKER_FACTORY 2 = FUNDING_LOCKER_FACTORY 3 = LIQUIDITY_LOCKER_FACTORY 4 = STAKE_LOCKER_FACTORY",
          "subFactory": "The sub factory used by core factory (e.g. LiquidityLockerFactory).",
          "superFactory": "The core factory (e.g. PoolFactory, LoanFactory)."
        }
      },
      "setCalc(address,bool)": {
        "details": "Sets the validity of a calculator contract. Only the Governor can call this function.",
        "params": {
          "calc": "Calculator address.",
          "valid": "The new validity status of a Calculator."
        }
      },
      "setCollateralAsset(address,bool)": {
        "details": "Sets the validity of an asset for collateral. Only the Governor can call this function.It emits a `CollateralAssetSet` event.",
        "params": {
          "asset": "The asset to assign validity to.",
          "valid": "The new validity status of a Collateral Asset."
        }
      },
      "setDefaultGracePeriod(uint256)": {
        "details": "Sets the default grace period. Only the Governor can call this function.It emits a `GlobalsParamSet` event.",
        "params": {
          "_defaultGracePeriod": "Number of seconds to set the grace period to."
        }
      },
      "setDefaultUniswapPath(address,address,address)": {
        "details": "Sets the path to swap an asset through Uniswap. Only the Governor can call this function.",
        "params": {
          "from": "Asset being swapped.",
          "mid": "Middle asset.** Set to == mid to enable a bilateral swap (single path swap). Set to != mid to enable a triangular swap (multi path swap).",
          "to": "Final asset to receive. **"
        }
      },
      "setFundingPeriod(uint256)": {
        "details": "Sets the funding period. Only the Governor can call this function.It emits a `GlobalsParamSet` event.",
        "params": {
          "_fundingPeriod": "Number of seconds to set the drawdown grace period to."
        }
      },
      "setGlobalAdmin(address)": {
        "details": "Sets the Global Admin. Only the Governor can call this function.It emits a `GlobalAdminSet` event.",
        "params": {
          "newGlobalAdmin": "New global admin address."
        }
      },
      "setHeliosTreasury(address)": {
        "details": "Sets the HeliosTreasury. Only the Governor can call this function.It emits a `GlobalsParamSet` event.",
        "params": {
          "_heliosTreasury": "New HeliosTreasury address."
        }
      },
      "setInvestorFee(uint256)": {
        "details": "Sets the investor fee (in basis points). Only the Governor can call this function.It emits a `GlobalsParamSet` event.",
        "params": {
          "_fee": "The fee, e.g., 50 = 0.50%."
        }
      },
      "setLiquidityAsset(address,bool)": {
        "details": "Sets the validity of an asset for liquidity in Pools. Only the Governor can call this function.It emits a `LiquidityAssetSet` event.",
        "params": {
          "asset": "Address of the valid asset.",
          "valid": "The new validity status a Liquidity Asset in Pools."
        }
      },
      "setLpCooldownPeriod(uint256)": {
        "details": "Sets the Liquidity Pool cooldown period. This change will affect the existing cool down period for the LPs that already intended to withdraw. Only the Governor can call this function.It emits a `GlobalsParamSet` event.",
        "params": {
          "newCooldownPeriod": "New value for the cool down period."
        }
      },
      "setLpWithdrawWindow(uint256)": {
        "details": "Sets the Liquidity Pool withdraw window. This change will affect the existing window for the LPs that already intended to withdraw. Only the Governor can call this function.It emits a `GlobalsParamSet` event.",
        "params": {
          "newLpWithdrawWindow": "New value for the withdraw window."
        }
      },
      "setMaxSwapSlippage(uint256)": {
        "details": "Sets the allowed Uniswap slippage percentage, in basis points. Only the Governor can call this function.It emits a `GlobalsParamSet` event.",
        "params": {
          "newMaxSlippage": "New max slippage percentage (in basis points)"
        }
      },
      "setMinLoanEquity(uint256)": {
        "details": "Sets the minimum Loan equity. Only the Governor can call this function.It emits a `GlobalsParamSet` event.",
        "params": {
          "_minLoanEquity": "Min percentage of Loan equity an account must have to trigger liquidations."
        }
      },
      "setPendingGovernor(address)": {
        "details": "Sets a new Pending Governor. This address can become Governor if they accept. Only the Governor can call this function.It emits a `PendingGovernorSet` event.",
        "params": {
          "_pendingGovernor": "Address of new Pending Governor."
        }
      },
      "setPoolDelegateAllowlist(address,bool)": {
        "details": "Sets the validity of a Pool Delegate (those allowed to create Pools). Only the Governor can call this function.It emits a `PoolDelegateSet` event.",
        "params": {
          "delegate": "Address to manage permissions for.",
          "valid": "The new validity status of a Pool Delegate."
        }
      },
      "setPriceOracle(address,address)": {
        "details": "Sets a price feed's oracle. Only the Governor can call this function.It emits a `OracleSet` event.",
        "params": {
          "asset": "Asset to update price for.",
          "oracle": "New oracle to use."
        }
      },
      "setProtocolPause(bool)": {
        "details": "Sets the paused/unpaused state of the protocol. Only the Global Admin can call this function.It emits a `ProtocolPaused` event.",
        "params": {
          "pause": "Boolean flag to switch externally facing functionality in the protocol on/off."
        }
      },
      "setStakerCooldownPeriod(uint256)": {
        "details": "Sets the Staker cooldown period. This change will affect the existing cool down period for the Stakers that already intended to unstake. Only the Governor can call this function.It emits a `GlobalsParamSet` event.",
        "params": {
          "newCooldownPeriod": "New value for the cool down period."
        }
      },
      "setStakerUnstakeWindow(uint256)": {
        "details": "Sets the Staker unstake window. This change will affect the existing window for the Stakers that already intended to unstake. Only the Governor can call this function.It emits a `GlobalsParamSet` event.",
        "params": {
          "newUnstakeWindow": "New value for the unstake window."
        }
      },
      "setSwapOutRequired(uint256)": {
        "details": "Sets the the minimum Pool cover required to finalize a Pool. Only the Governor can call this function. FIXIt emits a `GlobalsParamSet` event.",
        "params": {
          "amt": "The new minimum swap out required."
        }
      },
      "setTreasuryFee(uint256)": {
        "details": "Sets the treasury fee (in basis points). Only the Governor can call this function.It emits a `GlobalsParamSet` event.",
        "params": {
          "_fee": "The fee, e.g., 50 = 0.50%."
        }
      },
      "setValidBalancerPool(address,bool)": {
        "details": "Sets the validity of a Balancer Pool. Only the Governor can call this function.It emits a `BalancerPoolSet` event.",
        "params": {
          "balancerPool": "Address of Balancer Pool contract.",
          "valid": "The new validity status of a Balancer Pool."
        }
      },
      "setValidLoanFactory(address,bool)": {
        "details": "Sets the validity of a LoanFactory. Only the Governor can call this function.",
        "params": {
          "loanFactory": "Address of LoanFactory.",
          "valid": "The new validity status of a LoanFactory."
        }
      },
      "setValidPoolFactory(address,bool)": {
        "details": "Sets the validity of a PoolFactory. Only the Governor can call this function.",
        "params": {
          "poolFactory": "Address of PoolFactory.",
          "valid": "The new validity status of a PoolFactory."
        }
      },
      "setValidSubFactory(address,address,bool)": {
        "details": "Sets the validity of a sub factory as it relates to a super factory. Only the Governor can call this function.",
        "params": {
          "subFactory": "The sub factory used by core factory (e.g. LiquidityLockerFactory).",
          "superFactory": "The core factory (e.g. PoolFactory, LoanFactory).",
          "valid": "The new validity status of a subFactory within context of super factory."
        }
      }
    },
    "title": "HeliosGlobals maintains a central source of parameters and allowlists for the Helios protocol.",
    "version": 1
  },
  "userdoc": {
    "kind": "user",
    "methods": {},
    "version": 1
  },
  "storageLayout": {
    "storage": [
      {
        "astId": 4375,
        "contract": "packages/protocol/contracts/HeliosGlobals.sol:HeliosGlobals",
        "label": "pendingGovernor",
        "offset": 0,
        "slot": "0",
        "type": "t_address"
      },
      {
        "astId": 4377,
        "contract": "packages/protocol/contracts/HeliosGlobals.sol:HeliosGlobals",
        "label": "governor",
        "offset": 0,
        "slot": "1",
        "type": "t_address"
      },
      {
        "astId": 4379,
        "contract": "packages/protocol/contracts/HeliosGlobals.sol:HeliosGlobals",
        "label": "heliosTreasury",
        "offset": 0,
        "slot": "2",
        "type": "t_address"
      },
      {
        "astId": 4381,
        "contract": "packages/protocol/contracts/HeliosGlobals.sol:HeliosGlobals",
        "label": "globalAdmin",
        "offset": 0,
        "slot": "3",
        "type": "t_address"
      },
      {
        "astId": 4383,
        "contract": "packages/protocol/contracts/HeliosGlobals.sol:HeliosGlobals",
        "label": "defaultGracePeriod",
        "offset": 0,
        "slot": "4",
        "type": "t_uint256"
      },
      {
        "astId": 4385,
        "contract": "packages/protocol/contracts/HeliosGlobals.sol:HeliosGlobals",
        "label": "swapOutRequired",
        "offset": 0,
        "slot": "5",
        "type": "t_uint256"
      },
      {
        "astId": 4387,
        "contract": "packages/protocol/contracts/HeliosGlobals.sol:HeliosGlobals",
        "label": "fundingPeriod",
        "offset": 0,
        "slot": "6",
        "type": "t_uint256"
      },
      {
        "astId": 4389,
        "contract": "packages/protocol/contracts/HeliosGlobals.sol:HeliosGlobals",
        "label": "investorFee",
        "offset": 0,
        "slot": "7",
        "type": "t_uint256"
      },
      {
        "astId": 4391,
        "contract": "packages/protocol/contracts/HeliosGlobals.sol:HeliosGlobals",
        "label": "treasuryFee",
        "offset": 0,
        "slot": "8",
        "type": "t_uint256"
      },
      {
        "astId": 4393,
        "contract": "packages/protocol/contracts/HeliosGlobals.sol:HeliosGlobals",
        "label": "maxSwapSlippage",
        "offset": 0,
        "slot": "9",
        "type": "t_uint256"
      },
      {
        "astId": 4395,
        "contract": "packages/protocol/contracts/HeliosGlobals.sol:HeliosGlobals",
        "label": "minLoanEquity",
        "offset": 0,
        "slot": "10",
        "type": "t_uint256"
      },
      {
        "astId": 4397,
        "contract": "packages/protocol/contracts/HeliosGlobals.sol:HeliosGlobals",
        "label": "stakerCooldownPeriod",
        "offset": 0,
        "slot": "11",
        "type": "t_uint256"
      },
      {
        "astId": 4399,
        "contract": "packages/protocol/contracts/HeliosGlobals.sol:HeliosGlobals",
        "label": "lpCooldownPeriod",
        "offset": 0,
        "slot": "12",
        "type": "t_uint256"
      },
      {
        "astId": 4401,
        "contract": "packages/protocol/contracts/HeliosGlobals.sol:HeliosGlobals",
        "label": "stakerUnstakeWindow",
        "offset": 0,
        "slot": "13",
        "type": "t_uint256"
      },
      {
        "astId": 4403,
        "contract": "packages/protocol/contracts/HeliosGlobals.sol:HeliosGlobals",
        "label": "lpWithdrawWindow",
        "offset": 0,
        "slot": "14",
        "type": "t_uint256"
      },
      {
        "astId": 4405,
        "contract": "packages/protocol/contracts/HeliosGlobals.sol:HeliosGlobals",
        "label": "protocolPaused",
        "offset": 0,
        "slot": "15",
        "type": "t_bool"
      },
      {
        "astId": 4409,
        "contract": "packages/protocol/contracts/HeliosGlobals.sol:HeliosGlobals",
        "label": "isValidLiquidityAsset",
        "offset": 0,
        "slot": "16",
        "type": "t_mapping(t_address,t_bool)"
      },
      {
        "astId": 4413,
        "contract": "packages/protocol/contracts/HeliosGlobals.sol:HeliosGlobals",
        "label": "isValidCollateralAsset",
        "offset": 0,
        "slot": "17",
        "type": "t_mapping(t_address,t_bool)"
      },
      {
        "astId": 4417,
        "contract": "packages/protocol/contracts/HeliosGlobals.sol:HeliosGlobals",
        "label": "validCalcs",
        "offset": 0,
        "slot": "18",
        "type": "t_mapping(t_address,t_bool)"
      },
      {
        "astId": 4421,
        "contract": "packages/protocol/contracts/HeliosGlobals.sol:HeliosGlobals",
        "label": "isValidPoolDelegate",
        "offset": 0,
        "slot": "19",
        "type": "t_mapping(t_address,t_bool)"
      },
      {
        "astId": 4425,
        "contract": "packages/protocol/contracts/HeliosGlobals.sol:HeliosGlobals",
        "label": "isValidBalancerPool",
        "offset": 0,
        "slot": "20",
        "type": "t_mapping(t_address,t_bool)"
      },
      {
        "astId": 4431,
        "contract": "packages/protocol/contracts/HeliosGlobals.sol:HeliosGlobals",
        "label": "defaultUniswapPath",
        "offset": 0,
        "slot": "21",
        "type": "t_mapping(t_address,t_mapping(t_address,t_address))"
      },
      {
        "astId": 4435,
        "contract": "packages/protocol/contracts/HeliosGlobals.sol:HeliosGlobals",
        "label": "oracleFor",
        "offset": 0,
        "slot": "22",
        "type": "t_mapping(t_address,t_address)"
      },
      {
        "astId": 4439,
        "contract": "packages/protocol/contracts/HeliosGlobals.sol:HeliosGlobals",
        "label": "isValidPoolFactory",
        "offset": 0,
        "slot": "23",
        "type": "t_mapping(t_address,t_bool)"
      },
      {
        "astId": 4443,
        "contract": "packages/protocol/contracts/HeliosGlobals.sol:HeliosGlobals",
        "label": "isValidLoanFactory",
        "offset": 0,
        "slot": "24",
        "type": "t_mapping(t_address,t_bool)"
      },
      {
        "astId": 4449,
        "contract": "packages/protocol/contracts/HeliosGlobals.sol:HeliosGlobals",
        "label": "validSubFactories",
        "offset": 0,
        "slot": "25",
        "type": "t_mapping(t_address,t_mapping(t_address,t_bool))"
      }
    ],
    "types": {
      "t_address": {
        "encoding": "inplace",
        "label": "address",
        "numberOfBytes": "20"
      },
      "t_bool": {
        "encoding": "inplace",
        "label": "bool",
        "numberOfBytes": "1"
      },
      "t_mapping(t_address,t_address)": {
        "encoding": "mapping",
        "key": "t_address",
        "label": "mapping(address => address)",
        "numberOfBytes": "32",
        "value": "t_address"
      },
      "t_mapping(t_address,t_bool)": {
        "encoding": "mapping",
        "key": "t_address",
        "label": "mapping(address => bool)",
        "numberOfBytes": "32",
        "value": "t_bool"
      },
      "t_mapping(t_address,t_mapping(t_address,t_address))": {
        "encoding": "mapping",
        "key": "t_address",
        "label": "mapping(address => mapping(address => address))",
        "numberOfBytes": "32",
        "value": "t_mapping(t_address,t_address)"
      },
      "t_mapping(t_address,t_mapping(t_address,t_bool))": {
        "encoding": "mapping",
        "key": "t_address",
        "label": "mapping(address => mapping(address => bool))",
        "numberOfBytes": "32",
        "value": "t_mapping(t_address,t_bool)"
      },
      "t_uint256": {
        "encoding": "inplace",
        "label": "uint256",
        "numberOfBytes": "32"
      }
    }
  }
}