{
  "address": "0xa387a75585440791ddf23b58cF9E77a2918284D8",
  "abi": [
    {
      "anonymous": false,
      "inputs": [
        {
          "indexed": true,
          "internalType": "address",
          "name": "owner",
          "type": "address"
        },
        {
          "indexed": false,
          "internalType": "address",
          "name": "liquidityLocker",
          "type": "address"
        },
        {
          "indexed": false,
          "internalType": "address",
          "name": "liquidityAsset",
          "type": "address"
        }
      ],
      "name": "LiquidityLockerCreated",
      "type": "event"
    },
    {
      "inputs": [],
      "name": "factoryType",
      "outputs": [
        {
          "internalType": "uint8",
          "name": "",
          "type": "uint8"
        }
      ],
      "stateMutability": "view",
      "type": "function"
    },
    {
      "inputs": [
        {
          "internalType": "address",
          "name": "",
          "type": "address"
        }
      ],
      "name": "isLocker",
      "outputs": [
        {
          "internalType": "bool",
          "name": "",
          "type": "bool"
        }
      ],
      "stateMutability": "view",
      "type": "function"
    },
    {
      "inputs": [
        {
          "internalType": "address",
          "name": "liquidityAsset",
          "type": "address"
        }
      ],
      "name": "newLocker",
      "outputs": [
        {
          "internalType": "address",
          "name": "liquidityLocker",
          "type": "address"
        }
      ],
      "stateMutability": "nonpayable",
      "type": "function"
    },
    {
      "inputs": [
        {
          "internalType": "address",
          "name": "",
          "type": "address"
        }
      ],
      "name": "owner",
      "outputs": [
        {
          "internalType": "address",
          "name": "",
          "type": "address"
        }
      ],
      "stateMutability": "view",
      "type": "function"
    }
  ],
  "transactionHash": "0x715cca454b88e13116003a6bb6d1eaf5469248864828fcc6518c73cc94d4511e",
  "args": [],
  "numDeployments": 1,
  "solcInputHash": "dffa7e128f2b675162a5be10778a0091",
  "bytecode": "0x608060405234801561001057600080fd5b50610b0b806100206000396000f3fe608060405234801561001057600080fd5b506004361061004c5760003560e01c806319eb783a146100515780632ec63d7c1461009357806364e1fd55146100cd578063666e1b39146100eb575b600080fd5b6100776004803603602081101561006757600080fd5b50356001600160a01b0316610111565b604080516001600160a01b039092168252519081900360200190f35b6100b9600480360360208110156100a957600080fd5b50356001600160a01b03166101d9565b604080519115158252519081900360200190f35b6100d56101ee565b6040805160ff9092168252519081900360200190f35b6100776004803603602081101561010157600080fd5b50356001600160a01b03166101f3565b600081336040516101219061020e565b6001600160a01b03928316815291166020820152604080519182900301906000f080158015610154573d6000803e3d6000fd5b506001600160a01b0380821660008181526020818152604080832080546001600160a01b03191633908117909155600180845293829020805460ff19169094179093558051938452938716908301528251939450927f69269b3068a3e7096157a812e3202533d347594a672c9729cfd5f0310219e151929181900390910190a2919050565b60016020526000908152604090205460ff1681565b600381565b6000602081905290815260409020546001600160a01b031681565b6108ba8061021c8339019056fe60c060405234801561001057600080fd5b506040516108ba3803806108ba8339818101604052604081101561003357600080fd5b5080516020909101516001600160601b0319606092831b811660a052911b1660805260805160601c60a05160601c6108296100916000398061017a5280610226528061030652508060e35280610110528061025352506108296000f3fe608060405234801561001057600080fd5b506004361061004c5760003560e01c806316f0115b146100515780631aa37cec14610075578063209b2bca146100ad578063a9059cbb146100b5575b600080fd5b6100596100e1565b604080516001600160a01b039092168252519081900360200190f35b6100ab6004803603606081101561008b57600080fd5b506001600160a01b03813581169160208101359091169060400135610105565b005b610059610224565b6100ab600480360360408110156100cb57600080fd5b506001600160a01b038135169060200135610248565b7f000000000000000000000000000000000000000000000000000000000000000081565b336001600160a01b037f0000000000000000000000000000000000000000000000000000000000000000161461016d576040805162461bcd60e51b815260206004820152600860248201526704c4c3a4e4f545f560c41b604482015290519081900360640190fd5b6101a76001600160a01b037f000000000000000000000000000000000000000000000000000000000000000016848363ffffffff61033716565b826001600160a01b031663e920b1e183836040518363ffffffff1660e01b815260040180836001600160a01b03166001600160a01b0316815260200182815260200192505050600060405180830381600087803b15801561020757600080fd5b505af115801561021b573d6000803e3d6000fd5b50505050505050565b7f000000000000000000000000000000000000000000000000000000000000000081565b336001600160a01b037f000000000000000000000000000000000000000000000000000000000000000016146102b0576040805162461bcd60e51b815260206004820152600860248201526704c4c3a4e4f545f560c41b604482015290519081900360640190fd5b6001600160a01b0382166102f9576040805162461bcd60e51b815260206004820152600b60248201526a13130e9395531317d114d560aa1b604482015290519081900360640190fd5b6103336001600160a01b037f000000000000000000000000000000000000000000000000000000000000000016838363ffffffff61044f16565b5050565b8015806103bd575060408051636eb1769f60e11b81523060048201526001600160a01b03848116602483015291519185169163dd62ed3e91604480820192602092909190829003018186803b15801561038f57600080fd5b505afa1580156103a3573d6000803e3d6000fd5b505050506040513d60208110156103b957600080fd5b5051155b6103f85760405162461bcd60e51b81526004018080602001828103825260368152602001806107be6036913960400191505060405180910390fd5b604080516001600160a01b038416602482015260448082018490528251808303909101815260649091019091526020810180516001600160e01b031663095ea7b360e01b17905261044a90849061049d565b505050565b604080516001600160a01b038416602482015260448082018490528251808303909101815260649091019091526020810180516001600160e01b031663a9059cbb60e01b17905261044a9084905b60606104f2826040518060400160405280602081526020017f5361666545524332303a206c6f772d6c6576656c2063616c6c206661696c6564815250856001600160a01b031661054e9092919063ffffffff16565b80519091501561044a5780806020019051602081101561051157600080fd5b505161044a5760405162461bcd60e51b815260040180806020018281038252602a815260200180610794602a913960400191505060405180910390fd5b606061055d8484600085610567565b90505b9392505050565b6060824710156105a85760405162461bcd60e51b815260040180806020018281038252602681526020018061076e6026913960400191505060405180910390fd5b6105b1856106c3565b610602576040805162461bcd60e51b815260206004820152601d60248201527f416464726573733a2063616c6c20746f206e6f6e2d636f6e7472616374000000604482015290519081900360640190fd5b60006060866001600160a01b031685876040518082805190602001908083835b602083106106415780518252601f199092019160209182019101610622565b6001836020036101000a03801982511681845116808217855250505050505090500191505060006040518083038185875af1925050503d80600081146106a3576040519150601f19603f3d011682016040523d82523d6000602084013e6106a8565b606091505b50915091506106b88282866106c9565b979650505050505050565b3b151590565b606083156106d8575081610560565b8251156106e85782518084602001fd5b8160405162461bcd60e51b81526004018080602001828103825283818151815260200191508051906020019080838360005b8381101561073257818101518382015260200161071a565b50505050905090810190601f16801561075f5780820380516001836020036101000a031916815260200191505b509250505060405180910390fdfe416464726573733a20696e73756666696369656e742062616c616e636520666f722063616c6c5361666545524332303a204552433230206f7065726174696f6e20646964206e6f7420737563636565645361666545524332303a20617070726f76652066726f6d206e6f6e2d7a65726f20746f206e6f6e2d7a65726f20616c6c6f77616e6365a26469706673582212201399c654f9a405aebd2c09e584e160cf37538eb12e93fed6889f1fa3f8a8d19b64736f6c634300060b0033a2646970667358221220ea0a2a3b7f93ba97164e49b342394a796c20f1fc8eb21a847dd90edad388d09864736f6c634300060b0033",
  "libraries": {},
  "devdoc": {
    "kind": "dev",
    "methods": {
      "newLocker(address)": {
        "details": "Instantiates a LiquidityLocker contract.It emits a `LiquidityLockerCreated` event.",
        "params": {
          "liquidityAsset": "The Liquidity Asset this LiquidityLocker will escrow."
        },
        "returns": {
          "liquidityLocker": "Address of the instantiated LiquidityLocker."
        }
      }
    },
    "title": "LiquidityLockerFactory instantiates LiquidityLockers.",
    "version": 1
  },
  "userdoc": {
    "kind": "user",
    "methods": {},
    "version": 1
  },
  "storageLayout": {
    "storage": [
      {
        "astId": 6557,
        "contract": "packages/protocol/contracts/LiquidityLockerFactory.sol:LiquidityLockerFactory",
        "label": "owner",
        "offset": 0,
        "slot": "0",
        "type": "t_mapping(t_address,t_address)"
      },
      {
        "astId": 6561,
        "contract": "packages/protocol/contracts/LiquidityLockerFactory.sol:LiquidityLockerFactory",
        "label": "isLocker",
        "offset": 0,
        "slot": "1",
        "type": "t_mapping(t_address,t_bool)"
      }
    ],
    "types": {
      "t_address": {
        "encoding": "inplace",
        "label": "address",
        "numberOfBytes": "20"
      },
      "t_bool": {
        "encoding": "inplace",
        "label": "bool",
        "numberOfBytes": "1"
      },
      "t_mapping(t_address,t_address)": {
        "encoding": "mapping",
        "key": "t_address",
        "label": "mapping(address => address)",
        "numberOfBytes": "32",
        "value": "t_address"
      },
      "t_mapping(t_address,t_bool)": {
        "encoding": "mapping",
        "key": "t_address",
        "label": "mapping(address => bool)",
        "numberOfBytes": "32",
        "value": "t_bool"
      }
    }
  }
}