{
  "address": "0xE7E4320c9b36cC3E0CD2b6Cac56A4ca10A7A89DE",
  "abi": [
    {
      "inputs": [
        {
          "internalType": "address",
          "name": "_globals",
          "type": "address"
        }
      ],
      "stateMutability": "nonpayable",
      "type": "constructor"
    },
    {
      "anonymous": false,
      "inputs": [
        {
          "indexed": false,
          "internalType": "address",
          "name": "account",
          "type": "address"
        }
      ],
      "name": "Paused",
      "type": "event"
    },
    {
      "anonymous": false,
      "inputs": [
        {
          "indexed": true,
          "internalType": "address",
          "name": "pool",
          "type": "address"
        },
        {
          "indexed": true,
          "internalType": "address",
          "name": "delegate",
          "type": "address"
        },
        {
          "indexed": false,
          "internalType": "address",
          "name": "liquidityAsset",
          "type": "address"
        },
        {
          "indexed": false,
          "internalType": "address",
          "name": "stakeAsset",
          "type": "address"
        },
        {
          "indexed": false,
          "internalType": "address",
          "name": "liquidityLocker",
          "type": "address"
        },
        {
          "indexed": false,
          "internalType": "address",
          "name": "stakeLocker",
          "type": "address"
        },
        {
          "indexed": false,
          "internalType": "uint256",
          "name": "stakingFee",
          "type": "uint256"
        },
        {
          "indexed": false,
          "internalType": "uint256",
          "name": "delegateFee",
          "type": "uint256"
        },
        {
          "indexed": false,
          "internalType": "uint256",
          "name": "liquidityCap",
          "type": "uint256"
        },
        {
          "indexed": false,
          "internalType": "string",
          "name": "name",
          "type": "string"
        },
        {
          "indexed": false,
          "internalType": "string",
          "name": "symbol",
          "type": "string"
        }
      ],
      "name": "PoolCreated",
      "type": "event"
    },
    {
      "anonymous": false,
      "inputs": [
        {
          "indexed": true,
          "internalType": "address",
          "name": "poolFactoryAdmin",
          "type": "address"
        },
        {
          "indexed": false,
          "internalType": "bool",
          "name": "allowed",
          "type": "bool"
        }
      ],
      "name": "PoolFactoryAdminSet",
      "type": "event"
    },
    {
      "anonymous": false,
      "inputs": [
        {
          "indexed": false,
          "internalType": "address",
          "name": "account",
          "type": "address"
        }
      ],
      "name": "Unpaused",
      "type": "event"
    },
    {
      "inputs": [],
      "name": "LL_FACTORY",
      "outputs": [
        {
          "internalType": "uint8",
          "name": "",
          "type": "uint8"
        }
      ],
      "stateMutability": "view",
      "type": "function"
    },
    {
      "inputs": [],
      "name": "SL_FACTORY",
      "outputs": [
        {
          "internalType": "uint8",
          "name": "",
          "type": "uint8"
        }
      ],
      "stateMutability": "view",
      "type": "function"
    },
    {
      "inputs": [
        {
          "internalType": "address",
          "name": "liquidityAsset",
          "type": "address"
        },
        {
          "internalType": "address",
          "name": "stakeAsset",
          "type": "address"
        },
        {
          "internalType": "address",
          "name": "slFactory",
          "type": "address"
        },
        {
          "internalType": "address",
          "name": "llFactory",
          "type": "address"
        },
        {
          "internalType": "uint256",
          "name": "stakingFee",
          "type": "uint256"
        },
        {
          "internalType": "uint256",
          "name": "delegateFee",
          "type": "uint256"
        },
        {
          "internalType": "uint256",
          "name": "liquidityCap",
          "type": "uint256"
        }
      ],
      "name": "createPool",
      "outputs": [
        {
          "internalType": "address",
          "name": "poolAddress",
          "type": "address"
        }
      ],
      "stateMutability": "nonpayable",
      "type": "function"
    },
    {
      "inputs": [],
      "name": "globals",
      "outputs": [
        {
          "internalType": "contract IHeliosGlobals",
          "name": "",
          "type": "address"
        }
      ],
      "stateMutability": "view",
      "type": "function"
    },
    {
      "inputs": [
        {
          "internalType": "address",
          "name": "",
          "type": "address"
        }
      ],
      "name": "isPool",
      "outputs": [
        {
          "internalType": "bool",
          "name": "",
          "type": "bool"
        }
      ],
      "stateMutability": "view",
      "type": "function"
    },
    {
      "inputs": [],
      "name": "pause",
      "outputs": [],
      "stateMutability": "nonpayable",
      "type": "function"
    },
    {
      "inputs": [],
      "name": "paused",
      "outputs": [
        {
          "internalType": "bool",
          "name": "",
          "type": "bool"
        }
      ],
      "stateMutability": "view",
      "type": "function"
    },
    {
      "inputs": [
        {
          "internalType": "address",
          "name": "",
          "type": "address"
        }
      ],
      "name": "poolFactoryAdmins",
      "outputs": [
        {
          "internalType": "bool",
          "name": "",
          "type": "bool"
        }
      ],
      "stateMutability": "view",
      "type": "function"
    },
    {
      "inputs": [
        {
          "internalType": "uint256",
          "name": "",
          "type": "uint256"
        }
      ],
      "name": "pools",
      "outputs": [
        {
          "internalType": "address",
          "name": "",
          "type": "address"
        }
      ],
      "stateMutability": "view",
      "type": "function"
    },
    {
      "inputs": [],
      "name": "poolsCreated",
      "outputs": [
        {
          "internalType": "uint256",
          "name": "",
          "type": "uint256"
        }
      ],
      "stateMutability": "view",
      "type": "function"
    },
    {
      "inputs": [
        {
          "internalType": "address",
          "name": "newGlobals",
          "type": "address"
        }
      ],
      "name": "setGlobals",
      "outputs": [],
      "stateMutability": "nonpayable",
      "type": "function"
    },
    {
      "inputs": [
        {
          "internalType": "address",
          "name": "poolFactoryAdmin",
          "type": "address"
        },
        {
          "internalType": "bool",
          "name": "allowed",
          "type": "bool"
        }
      ],
      "name": "setPoolFactoryAdmin",
      "outputs": [],
      "stateMutability": "nonpayable",
      "type": "function"
    },
    {
      "inputs": [],
      "name": "unpause",
      "outputs": [],
      "stateMutability": "nonpayable",
      "type": "function"
    }
  ],
  "transactionHash": "0xe50d8f66099c9c2b15e9905c8e904597761b6c293f90fef96f53270ca9d32f76",
  "args": [
    "0x0bBf151826CAd245DE3fEc0628f5C8e78e22e5aD"
  ],
  "numDeployments": 2,
  "solcInputHash": "dffa7e128f2b675162a5be10778a0091",
  "bytecode": "0x608060405234801561001057600080fd5b50604051615fcc380380615fcc8339818101604052602081101561003357600080fd5b50516000805460ff19169055600280546001600160a01b039092166001600160a01b0319909216919091179055615f5d8061006f6000396000f3fe60806040523480156200001157600080fd5b5060043610620000e25760003560e01c8063945164e71162000099578063c3124525116200006f578063c3124525146200023a578063c5ba73ed1462000244578063cc2e0a26146200024e578063f3f616c0146200027757620000e2565b8063945164e714620001de5780639f71f14a14620001fa578063ac4afa38146200021a57620000e2565b8063312b898214620000e75780633f4ba83a14620001585780635b16ebb714620001645780635c975abb14620001a15780636050abb214620001ab5780638456cb5914620001d4575b600080fd5b6200013c600480360360e0811015620000ff57600080fd5b506001600160a01b0381358116916020810135821691604082013581169160608101359091169060808101359060a08101359060c00135620002a8565b604080516001600160a01b039092168252519081900360200190f35b6200016262000a29565b005b6200018d600480360360208110156200017c57600080fd5b50356001600160a01b031662000a3f565b604080519115158252519081900360200190f35b6200018d62000a54565b6200018d60048036036020811015620001c357600080fd5b50356001600160a01b031662000a5d565b6200016262000a72565b620001e862000a86565b60408051918252519081900360200190f35b6200020462000a8c565b6040805160ff9092168252519081900360200190f35b6200013c600480360360208110156200023257600080fd5b503562000a91565b6200013c62000aac565b6200020462000abb565b62000162600480360360208110156200026657600080fd5b50356001600160a01b031662000ac0565b62000162600480360360408110156200028f57600080fd5b506001600160a01b038135169060200135151562000aec565b6000620002b462000a54565b15620002fa576040805162461bcd60e51b815260206004820152601060248201526f14185d5cd8589b194e881c185d5cd95960821b604482015290519081900360640190fd5b6200030462000b56565b600254604080516313d459fb60e01b81523060048201526001600160a01b038881166024830152600360448301529151919092169182916313d459fb91606480820192602092909190829003018186803b1580156200036257600080fd5b505afa15801562000377573d6000803e3d6000fd5b505050506040513d60208110156200038e57600080fd5b5051620003d3576040805162461bcd60e51b815260206004820152600e60248201526d28231d24a72b20a624a22fa6262360911b604482015290519081900360640190fd5b604080516313d459fb60e01b8152306004828101919091526001600160a01b038a8116602484015260448301919091529151918316916313d459fb91606480820192602092909190829003018186803b1580156200043057600080fd5b505afa15801562000445573d6000803e3d6000fd5b505050506040513d60208110156200045c57600080fd5b5051620004a1576040805162461bcd60e51b815260206004820152600e60248201526d28231d24a72b20a624a22fa9a62360911b604482015290519081900360640190fd5b60408051631b971aa360e11b815233600482015290516001600160a01b0383169163372e3546916024808301926020929190829003018186803b158015620004e857600080fd5b505afa158015620004fd573d6000803e3d6000fd5b505050506040513d60208110156200051457600080fd5b50516200055a576040805162461bcd60e51b815260206004820152600f60248201526e50463a4e4f545f44454c454741544560881b604482015290519081900360640190fd5b506060604051806040016040528060118152602001702432b634b7b9902837b7b6102a37b5b2b760791b81525090506060604051806040016040528060068152602001650484c532d4c560d41b81525090506000338b8b8b8b8b8b8b8a8a604051620005c69062000efb565b6001600160a01b03808c1682528a81166020808401919091528a821660408401528982166060840152908816608083015260a0820187905260c0820186905260e0820185905261014061010083018181528551918401919091528451909161012084019161016085019187019080838360005b838110156200065357818101518382015260200162000639565b50505050905090810190601f168015620006815780820380516001836020036101000a031916815260200191505b50838103825284518152845160209182019186019080838360005b83811015620006b65781810151838201526020016200069c565b50505050905090810190601f168015620006e45780820380516001836020036101000a031916815260200191505b509c50505050505050505050505050604051809103906000f08015801562000710573d6000803e3d6000fd5b5090508093508360036000600154815260200190815260200160002060006101000a8154816001600160a01b0302191690836001600160a01b03160217905550600160046000866001600160a01b03166001600160a01b0316815260200190815260200160002060006101000a81548160ff02191690831515021790555060016000815460010191905081905550336001600160a01b0316846001600160a01b03167fca6c57d58de1ff84c629ea4a44b3a2f19a6c83cc1dc3cd7d1ede2067a6a1016d8d8d856001600160a01b0316639759164a6040518163ffffffff1660e01b815260040160206040518083038186803b1580156200080f57600080fd5b505afa15801562000824573d6000803e3d6000fd5b505050506040513d60208110156200083b57600080fd5b5051604080516233b1cf60e41b815290516001600160a01b0389169163033b1cf0916004808301926020929190829003018186803b1580156200087d57600080fd5b505afa15801562000892573d6000803e3d6000fd5b505050506040513d6020811015620008a957600080fd5b81019080805190602001909291905050508d8d8d8c8c604051808a6001600160a01b03166001600160a01b03168152602001896001600160a01b03166001600160a01b03168152602001886001600160a01b03166001600160a01b03168152602001876001600160a01b03166001600160a01b031681526020018681526020018581526020018481526020018060200180602001838103835285818151815260200191508051906020019080838360005b83811015620009745781810151838201526020016200095a565b50505050905090810190601f168015620009a25780820380516001836020036101000a031916815260200191505b50838103825284518152845160209182019186019080838360005b83811015620009d7578181015183820152602001620009bd565b50505050905090810190601f16801562000a055780820380516001836020036101000a031916815260200191505b509b50505050505050505050505060405180910390a3505050979650505050505050565b62000a3362000c18565b62000a3d62000d03565b565b60046020526000908152604090205460ff1681565b60005460ff1690565b60056020526000908152604090205460ff1681565b62000a7c62000c18565b62000a3d62000da8565b60015481565b600481565b6003602052600090815260409020546001600160a01b031681565b6002546001600160a01b031681565b600381565b62000aca62000e30565b600280546001600160a01b0319166001600160a01b0392909216919091179055565b62000af662000e30565b6001600160a01b038216600081815260056020908152604091829020805460ff1916851515908117909155825190815291517fc0d8ae32722eafe08b35b2bb46dec31dcbbd5bb18069f66995df3c9f47f4d64f9281900390910190a25050565b600260009054906101000a90046001600160a01b03166001600160a01b031663425fad586040518163ffffffff1660e01b815260040160206040518083038186803b15801562000ba557600080fd5b505afa15801562000bba573d6000803e3d6000fd5b505050506040513d602081101562000bd157600080fd5b50511562000a3d576040805162461bcd60e51b815260206004820152600f60248201526e14118e941493d513d7d4105554d151608a1b604482015290519081900360640190fd5b600260009054906101000a90046001600160a01b03166001600160a01b0316630c340a246040518163ffffffff1660e01b815260040160206040518083038186803b15801562000c6757600080fd5b505afa15801562000c7c573d6000803e3d6000fd5b505050506040513d602081101562000c9357600080fd5b50516001600160a01b031633148062000cbb57503360009081526005602052604090205460ff165b62000a3d576040805162461bcd60e51b815260206004820152601360248201527228231d2727aa2fa3a7ab2fa7a92fa0a226a4a760691b604482015290519081900360640190fd5b62000d0d62000a54565b62000d56576040805162461bcd60e51b815260206004820152601460248201527314185d5cd8589b194e881b9bdd081c185d5cd95960621b604482015290519081900360640190fd5b6000805460ff191690557f5db9ee0a495bf2e6ff9c91a7834c1ba4fdd244a5e8aa4e537bd38aeae4b073aa62000d8b62000ef7565b604080516001600160a01b039092168252519081900360200190a1565b62000db262000a54565b1562000df8576040805162461bcd60e51b815260206004820152601060248201526f14185d5cd8589b194e881c185d5cd95960821b604482015290519081900360640190fd5b6000805460ff191660011790557f62e78cea01bee320cd4e420270b5ea74000d11b0c9f74754ebdbfc544b05a25862000d8b62000ef7565b600260009054906101000a90046001600160a01b03166001600160a01b0316630c340a246040518163ffffffff1660e01b815260040160206040518083038186803b15801562000e7f57600080fd5b505afa15801562000e94573d6000803e3d6000fd5b505050506040513d602081101562000eab57600080fd5b50516001600160a01b0316331462000a3d576040805162461bcd60e51b815260206004820152600a60248201526928231d2727aa2fa3a7ab60b11b604482015290519081900360640190fd5b3390565b61501e8062000f0a8339019056fe6101806040523480156200001257600080fd5b506040516200501e3803806200501e83398181016040526101408110156200003957600080fd5b815160208301516040808501516060860151608087015160a088015160c089015160e08a01516101008b0180519751999b989a969995989497939692959194919392820192846401000000008211156200009257600080fd5b908301906020820185811115620000a857600080fd5b8251640100000000811182820188101715620000c357600080fd5b82525081516020918201929091019080838360005b83811015620000f2578181015183820152602001620000d8565b50505050905090810190601f168015620001205780820380516001836020036101000a031916815260200191505b50604052602001805160405193929190846401000000008211156200014457600080fd5b9083019060208201858111156200015a57600080fd5b82516401000000008111828201881017156200017557600080fd5b82525081516020918201929091019080838360005b83811015620001a45781810151838201526020016200018a565b50505050905090810190601f168015620001d25780820380516001836020036101000a031916815260200191505b5060405250505081818181818181818160039080519060200190620001f99291906200056e565b5080516200020f9060049060208401906200056e565b50506005805460ff19166012179055507364b0dD6Fef23172abfE34fae0B954FE66F270274955063f30752bd9450620002589350339250506001600160e01b03620004fe169050565b604080516001600160e01b031960e085901b1681526001600160a01b039283166004820152828e166024820152918c16604483015260648201899052608482018890525160a4808301926000929190829003018186803b158015620002bc57600080fd5b505af4158015620002d1573d6000803e3d6000fd5b50505050886001600160a01b03166080816001600160a01b031660601b81525050886001600160a01b031663313ce5676040518163ffffffff1660e01b815260040160206040518083038186803b1580156200032c57600080fd5b505afa15801562000341573d6000803e3d6000fd5b505050506040513d60208110156200035857600080fd5b505160ff1661014052606088811b6001600160601b031990811660e0528b821b1660a052601086905561016085905233901b610120526012839055604080516342ef033f60e11b81526001600160a01b03808b1660048301528b811660248301529151918916916385de067e916044808201926020929091908290030181600087803b158015620003e857600080fd5b505af1158015620003fd573d6000803e3d6000fd5b505050506040513d60208110156200041457600080fd5b505160601b6001600160601b0319166101005260408051630cf5bc1d60e11b81526001600160a01b038b811660048301529151918816916319eb783a916024808201926020929091908290030181600087803b1580156200047457600080fd5b505af115801562000489573d6000803e3d6000fd5b505050506040513d6020811015620004a057600080fd5b505160601b6001600160601b03191660c05262ed4e00601355604080516000815290517f24b0afb747a8213aea796b9518bfa667de187b83390eda7cc93b8e57f80fcd1a916020908290030190a15050505050505050505062000613565b6000816001600160a01b031663c31245256040518163ffffffff1660e01b815260040160206040518083038186803b1580156200053a57600080fd5b505afa1580156200054f573d6000803e3d6000fd5b505050506040513d60208110156200056657600080fd5b505192915050565b828054600181600116156101000203166002900490600052602060002090601f016020900481019282601f10620005b157805160ff1916838001178555620005e1565b82800160010185558215620005e1579182015b82811115620005e1578251825591602001919060010190620005c4565b50620005ef929150620005f3565b5090565b6200061091905b80821115620005ef5760008155600101620005fa565b90565b60805160601c60a05160601c60c05160601c60e05160601c6101005160601c6101205160601c61014051610160516148d862000746600039806111395280611c6952806126445250806133b2525080610d5f5280610da85280610f5f52806119ae5280611ed152806123b15280612c755280613020525080610c875280610e6b528061127752806112f2528061139f52806114195280612e45525080610df3528061225f5280612e6d525080610f8752806112a1528061251052806127285280612c0c5280612f7552806132ac5280613820525080610e43528061124d5280611b4c5280612d4b5280613b43525080610e1b5280611027528061137552806113ea5280611efa528061238d52806127055280612be25280612dd95280612e1d5280612f5352806137f152506148d86000f3fe608060405234801561001057600080fd5b50600436106103fb5760003560e01c806370a0823111610215578063a9059cbb11610125578063c771c390116100b8578063d82745c811610087578063d82745c814610bfa578063dd62ed3e14610c20578063ee947a7c14610c4e578063eff9884314610c56578063fec984e314610c5e576103fb565b8063c771c39014610b79578063c965b54814610b96578063cc0fef0214610bc4578063d7bd3c9114610bcc576103fb565b8063b69410de116100f4578063b69410de14610acf578063b6b55f2514610ad7578063c374682514610af4578063c59e395914610b53576103fb565b8063a9059cbb14610a4f578063ac64165514610a7b578063aed4966a14610a83578063af6d557114610aa9576103fb565b806384b76824116101a85780639759164a116101775780639759164a146109ec5780639f3c7325146109f4578063a33142f7146109fc578063a43baa3d14610a04578063a457c2d714610a23576103fb565b806384b76824146109885780638905fd4f146109905780639185192a146109b657806395d89b41146109e4576103fb565b806376687d3d116101e457806376687d3d1461093e5780637b99adb11461094657806380cd916d1461096357806380e7ce851461096b576103fb565b806370a08231146108da57806371073bac1461090057806373ef9a50146109085780637666f12514610910576103fb565b80632e1a7d4d1161031057806346c162de116102a357806351b42b001161027257806351b42b001461081c578063613384f214610824578063641ad8a91461084a5780636696779114610876578063681cb10a1461089c576103fb565b806346c162de146107de5780634bb278f3146107e65780634e97415f146107ee5780634f85221a14610814576103fb565b806340504ba0116102df57806340504ba01461074757806340bde09814610775578063410dbf7e1461079b578063443bb293146107b8576103fb565b80632e1a7d4d146106ee578063313ce5671461070b57806339509351146107135780634046af2b1461073f576103fb565b80631831ccf21161039357806323b872dd1161036257806323b872dd1461062857806324600fc31461065e57806324b92e8e1461066657806327f918561461068c5780632ac04ac8146106b8576103fb565b80631831ccf21461057a5780631aa37cec14610582578063209b2bca146105ba57806321c0b342146105c2576103fb565b80630d49b38c116103cf5780630d49b38c1461051957806313bf9e7e14610521578063174a5be41461055457806318160ddd14610572576103fb565b806241c52c14610400578063033b1cf01461043857806306fdde031461045c578063095ea7b3146104d9575b600080fd5b6104266004803603602081101561041657600080fd5b50356001600160a01b0316610c66565b60408051918252519081900360200190f35b610440610c85565b604080516001600160a01b039092168252519081900360200190f35b610464610ca9565b6040805160208082528351818301528351919283929083019185019080838360005b8381101561049e578181015183820152602001610486565b50505050905090810190601f1680156104cb5780820380516001836020036101000a031916815260200191505b509250505060405180910390f35b610505600480360360408110156104ef57600080fd5b506001600160a01b038135169060200135610d3f565b604080519115158252519081900360200190f35b610440610d5d565b610529610d81565b6040805195865260208601949094529115158484015260608401526080830152519081900360a00190f35b61055c610f04565b6040805160ff9092168252519081900360200190f35b610426610f09565b610505610f0f565b6105b86004803603606081101561059857600080fd5b506001600160a01b03813581169160208101359091169060400135610f18565b005b610440611025565b6105f0600480360360408110156105d857600080fd5b506001600160a01b0381358116916020013516611049565b604051808260e080838360005b838110156106155781810151838201526020016105fd565b5050505090500191505060405180910390f35b6105056004803603606081101561063e57600080fd5b506001600160a01b03813581169160208101359091169060400135611525565b6105b86115b3565b6104266004803603602081101561067c57600080fd5b50356001600160a01b0316611607565b6105b8600480360360408110156106a257600080fd5b506001600160a01b038135169060200135611619565b6105b8600480360360608110156106ce57600080fd5b506001600160a01b038135811691602081013590911690604001356117ba565b6105b86004803603602081101561070457600080fd5b5035611991565b61055c611aed565b6105056004803603604081101561072957600080fd5b506001600160a01b038135169060200135611af6565b610440611b4a565b6105b86004803603604081101561075d57600080fd5b506001600160a01b0381358116916020013516611b6e565b6104266004803603602081101561078b57600080fd5b50356001600160a01b0316611bef565b6105b8600480360360208110156107b157600080fd5b5035611c58565b610426600480360360208110156107ce57600080fd5b50356001600160a01b0316611d0d565b6105b8611d3f565b6105b8611d6d565b6104266004803603602081101561080457600080fd5b50356001600160a01b0316611e3b565b610505611e80565b6105b8611ea0565b6105056004803603602081101561083a57600080fd5b50356001600160a01b0316611ff9565b61085261200e565b6040518082600281111561086257fe5b60ff16815260200191505060405180910390f35b6104266004803603602081101561088c57600080fd5b50356001600160a01b031661201c565b610426600480360360808110156108b257600080fd5b506001600160a01b038135811691602081013582169160408201358116916060013516612042565b610426600480360360208110156108f057600080fd5b50356001600160a01b03166120ed565b610426612108565b6105b861210e565b6105b86004803603604081101561092657600080fd5b506001600160a01b03813516906020013515156121a4565b61042661220c565b6105b86004803603602081101561095c57600080fd5b5035612212565b61044061225d565b6105056004803603602081101561098157600080fd5b5035612281565b6105b86122d4565b6105b8600480360360208110156109a657600080fd5b50356001600160a01b0316612370565b6105b8600480360360408110156109cc57600080fd5b506001600160a01b0381351690602001351515612445565b6104646124ad565b61044061250e565b610426612532565b610426612538565b6105b860048036036020811015610a1a57600080fd5b5035151561253e565b61050560048036036040811015610a3957600080fd5b506001600160a01b03813516906020013561258d565b61050560048036036040811015610a6557600080fd5b506001600160a01b0381351690602001356125fb565b61042661260f565b61042660048036036020811015610a9957600080fd5b50356001600160a01b0316612615565b61042660048036036020811015610abf57600080fd5b50356001600160a01b0316612630565b610426612642565b6105b860048036036020811015610aed57600080fd5b5035612666565b610b3a600480360360a0811015610b0a57600080fd5b506001600160a01b03813581169160208101358216916040820135811691606081013590911690608001356127a0565b6040805192835260208301919091528051918290030190f35b61050560048036036020811015610b6957600080fd5b50356001600160a01b031661285d565b6105b860048036036020811015610b8f57600080fd5b5035612872565b61042660048036036040811015610bac57600080fd5b506001600160a01b03813581169160200135166128fa565b6105b8612917565b61044060048036036040811015610be257600080fd5b506001600160a01b0381358116916020013516612942565b61042660048036036020811015610c1057600080fd5b50356001600160a01b0316612968565b61042660048036036040811015610c3657600080fd5b506001600160a01b038135811691602001351661297a565b6104266129a5565b6104266129ab565b6104266129b1565b6001600160a01b0381166000908152600860205260409020545b919050565b7f000000000000000000000000000000000000000000000000000000000000000081565b60038054604080516020601f6002600019610100600188161502019095169490940493840181900481028201810190925282815260609390929091830182828015610d355780601f10610d0a57610100808354040283529160200191610d35565b820191906000526020600020905b815481529060010190602001808311610d1857829003601f168201915b5050505050905090565b6000610d53610d4c6129b7565b84846129bb565b5060015b92915050565b7f000000000000000000000000000000000000000000000000000000000000000081565b60008060008060007364b0dD6Fef23172abfE34fae0B954FE66F270274635388e261610dcc7f0000000000000000000000000000000000000000000000000000000000000000612aa7565b6040805160e084901b6001600160e01b03191681526001600160a01b0392831660048201527f0000000000000000000000000000000000000000000000000000000000000000831660248201527f0000000000000000000000000000000000000000000000000000000000000000831660448201527f0000000000000000000000000000000000000000000000000000000000000000831660648201527f000000000000000000000000000000000000000000000000000000000000000090921660848301525160a48083019260a0929190829003018186803b158015610eb257600080fd5b505af4158015610ec6573d6000803e3d6000fd5b505050506040513d60a0811015610edc57600080fd5b5080516020820151604083015160608401516080909401519299919850965091945092509050565b600181565b60025490565b60145460ff1681565b610f20612b14565b610f2a6001612b24565b601154610f3d908263ffffffff612b8616565b6011556040805163fbecb17160e01b8152601660048201526001600160a01b037f0000000000000000000000000000000000000000000000000000000000000000811660248301527f00000000000000000000000000000000000000000000000000000000000000008116604483015280861660648301528416608482015260a4810183905290517364b0dD6Fef23172abfE34fae0B954FE66F2702749163fbecb1719160c4808301926000929190829003018186803b15801561100057600080fd5b505af4158015611014573d6000803e3d6000fd5b50505050611020612be0565b505050565b7f000000000000000000000000000000000000000000000000000000000000000081565b61105161468a565b611059612c70565b611061612d40565b6001600160a01b0380841660009081526016602090815260408083208685168452909152808220548151634e71d92d60e01b81529151931692634e71d92d9260048084019360e093929083900390910190829087803b1580156110c357600080fd5b505af11580156110d7573d6000803e3d6000fd5b505050506040513d601f19601f8201168201806040525060e08110156110fc57600080fd5b50601054604051633faa6c5d60e01b81529192506000918291829182917364b0dD6Fef23172abfE34fae0B954FE66F27027491633faa6c5d9188917f00000000000000000000000000000000000000000000000000000000000000009190600401808460e08083838c5b8381101561117e578181015183820152602001611166565b50505050905001838152602001828152602001935050505060806040518083038186803b1580156111ae57600080fd5b505af41580156111c2573d6000803e3d6000fd5b505050506040513d60808110156111d857600080fd5b50805160208201516040830151606090930151601154929750909550919350909150821161120e57601180548390039055611232565b601154611224908290840363ffffffff612b8616565b601180546000909155925090505b600c54611245908263ffffffff612b8616565b600c556112727f000000000000000000000000000000000000000000000000000000000000000085612dcc565b61129c7f000000000000000000000000000000000000000000000000000000000000000084612dcc565b6112d57f00000000000000000000000000000000000000000000000000000000000000006112d0848463ffffffff612b8616565b612dcc565b60c0850151156112f0576112f0878660066020020151612e06565b7f00000000000000000000000000000000000000000000000000000000000000006001600160a01b03166346c162de6040518163ffffffff1660e01b8152600401600060405180830381600087803b15801561134b57600080fd5b505af115801561135f573d6000803e3d6000fd5b5050505061136b611d3f565b611373612be0565b7f00000000000000000000000000000000000000000000000000000000000000006001600160a01b03167f00000000000000000000000000000000000000000000000000000000000000006001600160a01b03167f2047d1633ff7768462ae07d28cb16e484203bfd6d85ce832494270ebcd9081a27f00000000000000000000000000000000000000000000000000000000000000006001600160a01b03166370a082317f00000000000000000000000000000000000000000000000000000000000000006040518263ffffffff1660e01b815260040180826001600160a01b03166001600160a01b0316815260200191505060206040518083038186803b15801561147e57600080fd5b505afa158015611492573d6000803e3d6000fd5b505050506040513d60208110156114a857600080fd5b505160408051918252519081900360200190a36060808601516040805184815260208101869052808201929092529181018590526080810186905290516001600160a01b038916917f21280d282ce6aa29c649fd1825373d7c77892fac3f1958fd98d5ca52dd82a197919081900360a00190a25050505092915050565b6000611532848484613010565b6115a88461153e6129b7565b6115a38560405180606001604052806028815260200161479e602891396001600160a01b038a1660009081526001602052604081209061157c6129b7565b6001600160a01b03168152602081019190915260400160002054919063ffffffff61318e16565b6129bb565b5060015b9392505050565b6115bb612c70565b60006115c5613225565b9050806115d25750611605565b6115dc33826132aa565b6115e4612be0565b600c546115f7908263ffffffff61332a16565b600c55611602613387565b50505b565b60156020526000908152604090205481565b336000908152601a602090815260408083206001600160a01b03861684529091528120549061164e828463ffffffff612b8616565b336000908152601b602052604081205491925090611672908563ffffffff612b8616565b90507364b0dD6Fef23172abfE34fae0B954FE66F27027463297e7bf786868461169a336120ed565b6040518563ffffffff1660e01b815260040180856001600160a01b03166001600160a01b0316815260200184815260200183815260200182815260200194505050505060006040518083038186803b1580156116f557600080fd5b505af4158015611709573d6000803e3d6000fd5b5050336000818152601a602090815260408083206001600160a01b038c16808552908352818420899055848452601b835292819020879055805189815291820188905280519295509293507f847e03d69a7075471d42285f4ac63570c10f3012d8bf736d66de2eef17aac3e892908290030190a360408051828152905133917fe7f3fb4dacbff434e6d283d891f199c48b05b1629f610bd7ddc62353e162fb16919081900360200190a25050505050565b6001600160a01b0383166000908152601a60209081526040808320338452909152812054906117ef828463ffffffff61332a16565b60408051631b4c903160e01b81526001600160a01b038089166004830152871660248201526044810186905290519192507364b0dD6Fef23172abfE34fae0B954FE66F27027491631b4c903191606480820192600092909190829003018186803b15801561185c57600080fd5b505af4158015611870573d6000803e3d6000fd5b505050506001600160a01b0385166000818152601a602090815260408083203384528252808320859055928252601b9052908120546118af908561332a565b6001600160a01b038088166000818152601b60209081526040918290208590558151898152915194955092891693919233927ffaa022ea2cd7f14157070896fabadafe96cc4d4714eef7ae6a992a5084493ed59281900390910190a46040805184815260208101849052815133926001600160a01b038a16927f847e03d69a7075471d42285f4ac63570c10f3012d8bf736d66de2eef17aac3e8929081900390910190a360408051828152905133917fe7f3fb4dacbff434e6d283d891f199c48b05b1629f610bd7ddc62353e162fb16919081900360200190a2505050505050565b611999612c70565b60006119a4826133ab565b90506000806119d27f0000000000000000000000000000000000000000000000000000000000000000612aa7565b6001600160a01b0316639f51290b6040518163ffffffff1660e01b8152600401604080518083038186803b158015611a0957600080fd5b505afa158015611a1d573d6000803e3d6000fd5b505050506040513d6040811015611a3357600080fd5b5080516020909101519092509050611a4b33846133f8565b3360009081526019602052604090205482014203811015611aac576040805162461bcd60e51b8152602060048201526016602482015275140e95d2551211149055d7d393d517d0531313d5d15160521b604482015290519081900360640190fd5b611ab633846134d7565b611abe6115b3565b611adf33611ada611acd61357e565b879063ffffffff61332a16565b6132aa565b611ae7612be0565b50505050565b60055460ff1690565b6000610d53611b036129b7565b846115a38560016000611b146129b7565b6001600160a01b03908116825260208083019390935260409182016000908120918c16815292529020549063ffffffff612b8616565b7f000000000000000000000000000000000000000000000000000000000000000081565b611b76612b14565b6001600160a01b038083166000908152601660209081526040808320858516845290915280822054815163175f832960e01b8152915193169263175f83299260048084019391929182900301818387803b158015611bd357600080fd5b505af1158015611be7573d6000803e3d6000fd5b505050505050565b6001600160a01b0381166000908152600a6020526040812054600160801b90611c4a90611c4590611c39611c34611c25886120ed565b6009549063ffffffff6135ad16565b613606565b9063ffffffff61364716565b6136ac565b81611c5157fe5b0492915050565b611c60612b14565b612710611c93827f000000000000000000000000000000000000000000000000000000000000000063ffffffff612b8616565b1115611cd2576040805162461bcd60e51b8152602060048201526009602482015268503a4241445f46454560b81b604482015290519081900360640190fd5b60108190556040805182815290517f9408bb8c08d29b335e36090045074610352365476d9df02e203c25db4fcd67c09181900360200190a150565b6001600160a01b038116600090815260086020526040812054610d5790611d3384611e3b565b9063ffffffff61332a16565b6000611d49613387565b905060008113611d595750611605565b611d6a611d65826136ac565b6136ed565b50565b611d75612b14565b611d7f6000612b24565b6000611d89610d81565b50509250505080611dd1576040805162461bcd60e51b815260206004820152600d60248201526c503a494e5355465f5354414b4560981b604482015290519081900360640190fd5b601480546001919061ff0019166101008302179055506014546040517f24b0afb747a8213aea796b9518bfa667de187b83390eda7cc93b8e57f80fcd1a91610100900460ff169080826002811115611e2557fe5b60ff16815260200191505060405180910390a150565b6001600160a01b038116600090815260076020526040812054600160801b90611c4a90611c4590611c39611c34611e71886120ed565b6006549063ffffffff6135ad16565b60006001601454610100900460ff166002811115611e9a57fe5b14905090565b611ea8612b14565b611eb26001612b24565b7364b0dD6Fef23172abfE34fae0B954FE66F27027463ad1a3323611ef57f0000000000000000000000000000000000000000000000000000000000000000612aa7565b6011547f00000000000000000000000000000000000000000000000000000000000000006040518463ffffffff1660e01b815260040180846001600160a01b03166001600160a01b03168152602001838152602001826001600160a01b03166001600160a01b03168152602001935050505060006040518083038186803b158015611f7f57600080fd5b505af4158015611f93573d6000803e3d6000fd5b50506014805461ff00191661020017908190556040517f24b0afb747a8213aea796b9518bfa667de187b83390eda7cc93b8e57f80fcd1a935061010090910460ff16915080826002811115611fe457fe5b60ff16815260200191505060405180910390a1565b60176020526000908152604090205460ff1681565b601454610100900460ff1681565b6001600160a01b0381166000908152600b6020526040812054610d5790611d3384611bef565b6040805163340e588560e11b81526001600160a01b038087166004830152808616602483015280851660448301528316606482015290516000917364b0dD6Fef23172abfE34fae0B954FE66F2702749163681cb10a91608480820192602092909190829003018186803b1580156120b857600080fd5b505af41580156120cc573d6000803e3d6000fd5b505050506040513d60208110156120e257600080fd5b505195945050505050565b6001600160a01b031660009081526020819052604090205490565b600c5481565b6000612119336120ed565b1415612159576040805162461bcd60e51b815260206004820152600a602482015269140e96915493d7d0905360b21b604482015290519081900360640190fd5b336000818152601960209081526040918290204290819055825190815291517f8a05f911d8ab7fc50fec37ef4ba7f9bfcb1a3c191c81dcd824ad0946c4e20d659281900390910190a2565b6121ac612b14565b6001600160a01b038216600081815260186020908152604091829020805460ff1916851515908117909155825190815291517fdf56132520665b33cd5731c5cfbacd8bee82524e67df563bb25b2be304f91d449281900390910190a25050565b60125481565b61221a612c70565b612222612d40565b60128190556040805182815290517f3ff20538222f568f27ff436c0c49dfd3e48d5b8f86533a3f759dc1c7089775ab9181900360200190a150565b7f000000000000000000000000000000000000000000000000000000000000000081565b60145460009060ff16806122a457503360009081526018602052604090205460ff165b8015610d5757506012546122cc836122c06011546122c06137ed565b9063ffffffff612b8616565b111592915050565b33600090815260196020526040902054612329576040805162461bcd60e51b8152602060048201526011602482015270503a4e4f545f5749544844524157494e4760781b604482015290519081900360640190fd5b3360008181526019602090815260408083208390558051928352517f8a05f911d8ab7fc50fec37ef4ba7f9bfcb1a3c191c81dcd824ad0946c4e20d659281900390910190a2565b7364b0dD6Fef23172abfE34fae0B954FE66F2702746385937648827f00000000000000000000000000000000000000000000000000000000000000006123d57f0000000000000000000000000000000000000000000000000000000000000000612aa7565b604080516001600160e01b031960e087901b1681526001600160a01b03948516600482015292841660248401529216604482015290516064808301926000929190829003018186803b15801561242a57600080fd5b505af415801561243e573d6000803e3d6000fd5b5050505050565b61244d612b14565b6001600160a01b038216600081815260176020908152604091829020805460ff1916851515908117909155825190815291517f353578bbc0ab907b7018b0f7b50b5f822d31dc9fcf4c16fffa780e109ca7c9309281900390910190a25050565b60048054604080516020601f6002600019610100600188161502019095169490940493840181900481028201810190925282815260609390929091830182828015610d355780601f10610d0a57610100808354040283529160200191610d35565b7f000000000000000000000000000000000000000000000000000000000000000081565b600e5481565b600d5481565b612546612b14565b6014805482151560ff19909116811790915560408051918252517feeba6fd794e30165023f7e3d017e92901622076a95d36e45906955e025ff4fe79181900360200190a150565b6000610d5361259a6129b7565b846115a38560405180606001604052806025815260200161487e60259139600160006125c46129b7565b6001600160a01b03908116825260208083019390935260409182016000908120918d1681529252902054919063ffffffff61318e16565b6000610d536126086129b7565b8484613010565b60115481565b6001600160a01b03166000908152600b602052604090205490565b601b6020526000908152604090205481565b7f000000000000000000000000000000000000000000000000000000000000000081565b61266e612c70565b6126786001612b24565b61268181612281565b6126c6576040805162461bcd60e51b8152602060048201526011602482015270140e91115417d393d517d0531313d5d151607a1b604482015290519081900360640190fd5b3360009081526019602052604081208190556126e1826133ab565b90506126f860156126f1336120ed565b83336138b6565b6127536001600160a01b037f000000000000000000000000000000000000000000000000000000000000000016337f00000000000000000000000000000000000000000000000000000000000000008563ffffffff61396f16565b61275d33826139c9565b612765612be0565b6040805160008152905133917f8a05f911d8ab7fc50fec37ef4ba7f9bfcb1a3c191c81dcd824ad0946c4e20d65919081900360200190a25050565b6040805163c374682560e01b81526001600160a01b038088166004830152808716602483015280861660448301528416606482015260848101839052815160009283927364b0dD6Fef23172abfE34fae0B954FE66F2702749263c37468259260a480840193919291829003018186803b15801561281c57600080fd5b505af4158015612830573d6000803e3d6000fd5b505050506040513d604081101561284657600080fd5b508051602090910151909890975095505050505050565b60186020526000908152604090205460ff1681565b61287a612b14565b6013548111156128bf576040805162461bcd60e51b815260206004820152600b60248201526a503a4241445f56414c554560a81b604482015290519081900360640190fd5b60138190556040805182815290517f3094b4ce0463766c3cd81ed2ae2451610dcac39a1061fa023ca9d3d4df959f759181900360200190a150565b601a60209081526000928352604080842090915290825290205481565b6000612921613a15565b9050600081136129315750611605565b611d6a61293d826136ac565b613a33565b60166020908152600092835260408084209091529082529020546001600160a01b031681565b60196020526000908152604090205481565b6001600160a01b03918216600090815260016020908152604080832093909416825291909152205490565b60135481565b60105481565b600f5481565b3390565b6001600160a01b038316612a005760405162461bcd60e51b815260040180806020018281038252602481526020018061480c6024913960400191505060405180910390fd5b6001600160a01b038216612a455760405162461bcd60e51b81526004018080602001828103825260228152602001806146ee6022913960400191505060405180910390fd5b6001600160a01b03808416600081815260016020908152604080832094871680845294825291829020859055815185815291517f8c5be1e5ebec7d5bd14f71427d1e84f3dd0314c0f7b2291e5b200ac8c7c3b9259281900390910190a3505050565b6000816001600160a01b031663c31245256040518163ffffffff1660e01b815260040160206040518083038186803b158015612ae257600080fd5b505afa158015612af6573d6000803e3d6000fd5b505050506040513d6020811015612b0c57600080fd5b505192915050565b612b1c613b38565b611605612c70565b806002811115612b3057fe5b601454610100900460ff166002811115612b4657fe5b14611d6a576040805162461bcd60e51b815260206004820152600b60248201526a503a4241445f535441544560a81b604482015290519081900360640190fd5b6000828201838110156115ac576040805162461bcd60e51b815260206004820152601b60248201527f536166654d6174683a206164646974696f6e206f766572666c6f770000000000604482015290519081900360640190fd5b7f00000000000000000000000000000000000000000000000000000000000000006001600160a01b03167f00000000000000000000000000000000000000000000000000000000000000006001600160a01b03167f2047d1633ff7768462ae07d28cb16e484203bfd6d85ce832494270ebcd9081a2612c5d6137ed565b60408051918252519081900360200190a3565b612c997f0000000000000000000000000000000000000000000000000000000000000000612aa7565b6001600160a01b031663425fad586040518163ffffffff1660e01b815260040160206040518083038186803b158015612cd157600080fd5b505afa158015612ce5573d6000803e3d6000fd5b505050506040513d6020811015612cfb57600080fd5b505115611605576040805162461bcd60e51b815260206004820152600e60248201526d140e941493d513d7d4105554d15160921b604482015290519081900360640190fd5b336001600160a01b037f0000000000000000000000000000000000000000000000000000000000000000161480612d8657503360009081526017602052604090205460ff165b611605576040805162461bcd60e51b8152602060048201526012602482015271281d2727aa2fa222a62fa7a92fa0a226a4a760711b604482015290519081900360640190fd5b6116026001600160a01b037f000000000000000000000000000000000000000000000000000000000000000016838363ffffffff613ba116565b6040805162715b0960e41b81526001600160a01b037f0000000000000000000000000000000000000000000000000000000000000000811660048301527f0000000000000000000000000000000000000000000000000000000000000000811660248301527f0000000000000000000000000000000000000000000000000000000000000000166044820152606481018390529051600091829182917364b0dD6Fef23172abfE34fae0B954FE66F27027491630715b09091608480820192606092909190829003018186803b158015612ede57600080fd5b505af4158015612ef2573d6000803e3d6000fd5b505050506040513d6060811015612f0857600080fd5b5080516020820151604090920151909450909250905080841115612f4657600d54612f3b9082860363ffffffff612b8616565b600d55612f46612917565b612fa06001600160a01b037f0000000000000000000000000000000000000000000000000000000000000000167f00000000000000000000000000000000000000000000000000000000000000008363ffffffff613ba116565b601154612fb3908563ffffffff61332a16565b60115560408051858152602081018590528082018490526060810183905290516001600160a01b038716917fd393d18014c1898545668c52621bced9493753be5b8138f2539542ca606732eb919081900360800190a25050505050565b613018612c70565b6000806130447f0000000000000000000000000000000000000000000000000000000000000000612aa7565b6001600160a01b0316639f51290b6040518163ffffffff1660e01b8152600401604080518083038186803b15801561307b57600080fd5b505afa15801561308f573d6000803e3d6000fd5b505050506040513d60408110156130a557600080fd5b50805160209091015190925090506130bd85846133f8565b6001600160a01b038416600090815260196020526040902054820181014211613120576040805162461bcd60e51b815260206004820152601060248201526f140e9513d7d393d517d0531313d5d15160821b604482015290519081900360640190fd5b600061312b8661201c565b1461316e576040805162461bcd60e51b815260206004820152600e60248201526d503a5245434f475f4c4f5353455360901b604482015290519081900360640190fd5b613183601561317c866120ed565b85876138b6565b61243e858585613bf3565b6000818484111561321d5760405162461bcd60e51b81526004018080602001828103825283818151815260200191508051906020019080838360005b838110156131e25781810151838201526020016131ca565b50505050905090810190601f16801561320f5780820380516001836020036101000a031916815260200191505b509250505060405180910390fd5b505050900390565b600061323033611d0d565b3360009081526008602052604081205491925090613254908363ffffffff612b8616565b336000818152600860209081526040918290208490558151868152908101849052815193945091927ffbc3a599b784fe88772fc5abcc07223f64ca0b13acc341f4fb1e46bef0510eb49281900390910190a25090565b7f00000000000000000000000000000000000000000000000000000000000000006001600160a01b031663a9059cbb83836040518363ffffffff1660e01b815260040180836001600160a01b03166001600160a01b0316815260200182815260200192505050600060405180830381600087803b158015611bd357600080fd5b600082821115613381576040805162461bcd60e51b815260206004820152601e60248201527f536166654d6174683a207375627472616374696f6e206f766572666c6f770000604482015290519081900360640190fd5b50900390565b600e8054600c54918290556000916133a5908263ffffffff613d1f16565b91505090565b6000610d577f0000000000000000000000000000000000000000000000000000000000000000600a0a6133ec84670de0b6b3a764000063ffffffff6135ad16565b9063ffffffff613d8416565b6013546001600160a01b0383166000908152601560205260409020544291613426919063ffffffff612b8616565b111561346a576040805162461bcd60e51b815260206004820152600e60248201526d140e9195539114d7d313d0d2d15160921b604482015290519081900360640190fd5b6001600160a01b0382166000908152601b602052604090205461349082611d33856120ed565b1015611602576040805162461bcd60e51b8152602060048201526011602482015270140e925394d55197d514905394d7d09053607a1b604482015290519081900360640190fd5b6134e18282613deb565b60006135236134fe611c34846009546135ad90919063ffffffff16565b6001600160a01b0385166000908152600a60205260409020549063ffffffff61364716565b6001600160a01b0384166000818152600a60209081526040918290208490558151848152915193945091927fb464de3159e090617503d0166bff9ffeecdefd42cd9dbb49f918df95a80fdea3929181900390910190a2505050565b6000613588613e92565b600d5490915061359e908263ffffffff61332a16565b600d556135a9613a15565b5090565b6000826135bc57506000610d57565b828202828482816135c957fe5b04146115ac5760405162461bcd60e51b815260040180806020018281038252602181526020018061477d6021913960400191505060405180910390fd5b806000811215610c80576040805162461bcd60e51b815260206004820152600760248201526629a6aa9d27a7a160c91b604482015290519081900360640190fd5b600082820181831280159061365c5750838112155b80613671575060008312801561367157508381125b6115ac5760405162461bcd60e51b81526004018080602001828103825260218152602001806147366021913960400191505060405180910390fd5b6000808212156135a9576040805162461bcd60e51b8152602060048201526007602482015266534d493a4e454760c81b604482015290519081900360640190fd5b60006136f7610f09565b1161373b576040805162461bcd60e51b815260206004820152600f60248201526e4644543a5a45524f5f535550504c5960881b604482015290519081900360640190fd5b8061374557611d6a565b61377c613750610f09565b61376483600160801b63ffffffff6135ad16565b8161376b57fe5b60065491900463ffffffff612b8616565b60065560408051828152905133917f26536799ace2c3dbe12e638ec3ade6b4173dcf1289be0a58d51a5003015649bd919081900360200190a260065460408051918252517f1f8d7705f31c3337a080803a8ad7e71946fb88d84738879be2bf402f97156e969181900360200190a150565b60007f00000000000000000000000000000000000000000000000000000000000000006001600160a01b03166370a082317f00000000000000000000000000000000000000000000000000000000000000006040518263ffffffff1660e01b815260040180826001600160a01b03166001600160a01b0316815260200191505060206040518083038186803b15801561388557600080fd5b505afa158015613899573d6000803e3d6000fd5b505050506040513d60208110156138af57600080fd5b5051905090565b6001600160a01b038116600090815260208590526040812054908484016138dd5781613913565b6139136139068686016133ec876138fa428863ffffffff61332a16565b9063ffffffff6135ad16565b839063ffffffff612b8616565b6001600160a01b038416600081815260208981526040918290208490558151848152915193945091927ff9b842c70d79466435b46540bb988aa5c998b3243bf91c36380ddb5887c0f0e4929181900390910190a2505050505050565b604080516001600160a01b0380861660248301528416604482015260648082018490528251808303909101815260849091019091526020810180516001600160e01b03166323b872dd60e01b179052611ae7908590613f17565b6139d38282613fc8565b60006135236139f0611c34846009546135ad90919063ffffffff16565b6001600160a01b0385166000908152600a60205260409020549063ffffffff613d1f16565b600f8054600d54918290556000916133a5908263ffffffff613d1f16565b6000613a3d610f09565b11613a81576040805162461bcd60e51b815260206004820152600f60248201526e4644543a5a45524f5f535550504c5960881b604482015290519081900360640190fd5b80613a8b57611d6a565b6000613ac4613a98610f09565b613aac84600160801b63ffffffff6135ad16565b81613ab357fe5b60095491900463ffffffff612b8616565b600981905560408051848152905191925033917ff88156a8032a0d2c65df18fafaf84e0bea647b3d94a0f7fc6ab14c97dec2bf749181900360200190a26040805182815290517f240ce2b5ce9e9e5a70010c7f8034c233d89b7ce2d60f3a38d9bc3ca01a36f88c9181900360200190a15050565b336001600160a01b037f00000000000000000000000000000000000000000000000000000000000000001614611605576040805162461bcd60e51b8152602060048201526009602482015268140e9393d517d1115360ba1b604482015290519081900360640190fd5b604080516001600160a01b038416602482015260448082018490528251808303909101815260649091019091526020810180516001600160e01b031663a9059cbb60e01b179052611020908490613f17565b613bfe838383614014565b6000613c18611c34836009546135ad90919063ffffffff16565b6001600160a01b0385166000908152600a602052604081205491925090613c45908363ffffffff61364716565b6001600160a01b038087166000908152600a602052604080822084905591871681529081205491925090613c7f908463ffffffff613d1f16565b6001600160a01b038087166000908152600a602090815260409182902084905581518681529151939450918916927fb464de3159e090617503d0166bff9ffeecdefd42cd9dbb49f918df95a80fdea3929181900390910190a26040805182815290516001600160a01b038716917fb464de3159e090617503d0166bff9ffeecdefd42cd9dbb49f918df95a80fdea3919081900360200190a2505050505050565b6000818303818312801590613d345750838113155b80613d495750600083128015613d4957508381135b6115ac5760405162461bcd60e51b81526004018080602001828103825260248152602001806148306024913960400191505060405180910390fd5b6000808211613dda576040805162461bcd60e51b815260206004820152601a60248201527f536166654d6174683a206469766973696f6e206279207a65726f000000000000604482015290519081900360640190fd5b818381613de357fe5b049392505050565b613df58282614140565b6000613e37613e12611c34846006546135ad90919063ffffffff16565b6001600160a01b0385166000908152600760205260409020549063ffffffff61364716565b6001600160a01b0384166000818152600760209081526040918290208490558151848152915193945091927ff694bebd33ada288ae2f4485315db76739e2d5501daf315e71c9d8f841aa7773929181900390910190a2505050565b6000613e9d3361201c565b336000908152600b602052604081205491925090613ec1908363ffffffff612b8616565b336000818152600b60209081526040918290208490558151868152908101849052815193945091927f814eba35782909dbbaeefb8104073dfca45de43173f7077970c1584b3cf918b59281900390910190a25090565b6060613f6c826040518060400160405280602081526020017f5361666545524332303a206c6f772d6c6576656c2063616c6c206661696c6564815250856001600160a01b03166142489092919063ffffffff16565b80519091501561102057808060200190516020811015613f8b57600080fd5b50516110205760405162461bcd60e51b815260040180806020018281038252602a815260200180614854602a913960400191505060405180910390fd5b613fd2828261425f565b6000613e37613fef611c34846006546135ad90919063ffffffff16565b6001600160a01b0385166000908152600760205260409020549063ffffffff613d1f16565b61401f83838361435b565b6000614039611c34836006546135ad90919063ffffffff16565b6001600160a01b03851660009081526007602052604081205491925090614066908363ffffffff61364716565b6001600160a01b03808716600090815260076020526040808220849055918716815290812054919250906140a0908463ffffffff613d1f16565b6001600160a01b0380871660009081526007602090815260409182902084905581518681529151939450918916927ff694bebd33ada288ae2f4485315db76739e2d5501daf315e71c9d8f841aa7773929181900390910190a26040805182815290516001600160a01b038716917ff694bebd33ada288ae2f4485315db76739e2d5501daf315e71c9d8f841aa7773919081900360200190a2505050505050565b6001600160a01b0382166141855760405162461bcd60e51b81526004018080602001828103825260218152602001806147c66021913960400191505060405180910390fd5b61419182600083611020565b6141d4816040518060600160405280602281526020016146cc602291396001600160a01b038516600090815260208190526040902054919063ffffffff61318e16565b6001600160a01b038316600090815260208190526040902055600254614200908263ffffffff61332a16565b6002556040805182815290516000916001600160a01b038516917fddf252ad1be2c89b69c2b068fc378daa952ba7f163c4a11628f55a4df523b3ef9181900360200190a35050565b606061425784846000856144c2565b949350505050565b6001600160a01b0382166142ba576040805162461bcd60e51b815260206004820152601f60248201527f45524332303a206d696e7420746f20746865207a65726f206164647265737300604482015290519081900360640190fd5b6142c660008383611020565b6002546142d9908263ffffffff612b8616565b6002556001600160a01b038216600090815260208190526040902054614305908263ffffffff612b8616565b6001600160a01b0383166000818152602081815260408083209490945583518581529351929391927fddf252ad1be2c89b69c2b068fc378daa952ba7f163c4a11628f55a4df523b3ef9281900390910190a35050565b6001600160a01b0383166143a05760405162461bcd60e51b81526004018080602001828103825260258152602001806147e76025913960400191505060405180910390fd5b6001600160a01b0382166143e55760405162461bcd60e51b81526004018080602001828103825260238152602001806146a96023913960400191505060405180910390fd5b6143f0838383611020565b61443381604051806060016040528060268152602001614710602691396001600160a01b038616600090815260208190526040902054919063ffffffff61318e16565b6001600160a01b038085166000908152602081905260408082209390935590841681522054614468908263ffffffff612b8616565b6001600160a01b038084166000818152602081815260409182902094909455805185815290519193928716927fddf252ad1be2c89b69c2b068fc378daa952ba7f163c4a11628f55a4df523b3ef92918290030190a3505050565b6060824710156145035760405162461bcd60e51b81526004018080602001828103825260268152602001806147576026913960400191505060405180910390fd5b61450c8561461e565b61455d576040805162461bcd60e51b815260206004820152601d60248201527f416464726573733a2063616c6c20746f206e6f6e2d636f6e7472616374000000604482015290519081900360640190fd5b60006060866001600160a01b031685876040518082805190602001908083835b6020831061459c5780518252601f19909201916020918201910161457d565b6001836020036101000a03801982511681845116808217855250505050505090500191505060006040518083038185875af1925050503d80600081146145fe576040519150601f19603f3d011682016040523d82523d6000602084013e614603565b606091505b5091509150614613828286614624565b979650505050505050565b3b151590565b606083156146335750816115ac565b8251156146435782518084602001fd5b60405162461bcd60e51b81526020600482018181528451602484015284518593919283926044019190850190808383600083156131e25781810151838201526020016131ca565b6040518060e00160405280600790602082028036833750919291505056fe45524332303a207472616e7366657220746f20746865207a65726f206164647265737345524332303a206275726e20616d6f756e7420657863656564732062616c616e636545524332303a20617070726f766520746f20746865207a65726f206164647265737345524332303a207472616e7366657220616d6f756e7420657863656564732062616c616e63655369676e6564536166654d6174683a206164646974696f6e206f766572666c6f77416464726573733a20696e73756666696369656e742062616c616e636520666f722063616c6c536166654d6174683a206d756c7469706c69636174696f6e206f766572666c6f7745524332303a207472616e7366657220616d6f756e74206578636565647320616c6c6f77616e636545524332303a206275726e2066726f6d20746865207a65726f206164647265737345524332303a207472616e736665722066726f6d20746865207a65726f206164647265737345524332303a20617070726f76652066726f6d20746865207a65726f20616464726573735369676e6564536166654d6174683a207375627472616374696f6e206f766572666c6f775361666545524332303a204552433230206f7065726174696f6e20646964206e6f74207375636365656445524332303a2064656372656173656420616c6c6f77616e63652062656c6f77207a65726fa26469706673582212205fdbbcc475442bdb059c24b64c51f1582ef21c2201fc017086757d4310d2619264736f6c634300060b0033a26469706673582212202426f36531c92b4a73f0417cc93fae8a8acd8f9c8aaef507a41ce93cc456ccd964736f6c634300060b0033",
  "deployedBytecode": "0x60806040523480156200001157600080fd5b5060043610620000e25760003560e01c8063945164e71162000099578063c3124525116200006f578063c3124525146200023a578063c5ba73ed1462000244578063cc2e0a26146200024e578063f3f616c0146200027757620000e2565b8063945164e714620001de5780639f71f14a14620001fa578063ac4afa38146200021a57620000e2565b8063312b898214620000e75780633f4ba83a14620001585780635b16ebb714620001645780635c975abb14620001a15780636050abb214620001ab5780638456cb5914620001d4575b600080fd5b6200013c600480360360e0811015620000ff57600080fd5b506001600160a01b0381358116916020810135821691604082013581169160608101359091169060808101359060a08101359060c00135620002a8565b604080516001600160a01b039092168252519081900360200190f35b6200016262000a29565b005b6200018d600480360360208110156200017c57600080fd5b50356001600160a01b031662000a3f565b604080519115158252519081900360200190f35b6200018d62000a54565b6200018d60048036036020811015620001c357600080fd5b50356001600160a01b031662000a5d565b6200016262000a72565b620001e862000a86565b60408051918252519081900360200190f35b6200020462000a8c565b6040805160ff9092168252519081900360200190f35b6200013c600480360360208110156200023257600080fd5b503562000a91565b6200013c62000aac565b6200020462000abb565b62000162600480360360208110156200026657600080fd5b50356001600160a01b031662000ac0565b62000162600480360360408110156200028f57600080fd5b506001600160a01b038135169060200135151562000aec565b6000620002b462000a54565b15620002fa576040805162461bcd60e51b815260206004820152601060248201526f14185d5cd8589b194e881c185d5cd95960821b604482015290519081900360640190fd5b6200030462000b56565b600254604080516313d459fb60e01b81523060048201526001600160a01b038881166024830152600360448301529151919092169182916313d459fb91606480820192602092909190829003018186803b1580156200036257600080fd5b505afa15801562000377573d6000803e3d6000fd5b505050506040513d60208110156200038e57600080fd5b5051620003d3576040805162461bcd60e51b815260206004820152600e60248201526d28231d24a72b20a624a22fa6262360911b604482015290519081900360640190fd5b604080516313d459fb60e01b8152306004828101919091526001600160a01b038a8116602484015260448301919091529151918316916313d459fb91606480820192602092909190829003018186803b1580156200043057600080fd5b505afa15801562000445573d6000803e3d6000fd5b505050506040513d60208110156200045c57600080fd5b5051620004a1576040805162461bcd60e51b815260206004820152600e60248201526d28231d24a72b20a624a22fa9a62360911b604482015290519081900360640190fd5b60408051631b971aa360e11b815233600482015290516001600160a01b0383169163372e3546916024808301926020929190829003018186803b158015620004e857600080fd5b505afa158015620004fd573d6000803e3d6000fd5b505050506040513d60208110156200051457600080fd5b50516200055a576040805162461bcd60e51b815260206004820152600f60248201526e50463a4e4f545f44454c454741544560881b604482015290519081900360640190fd5b506060604051806040016040528060118152602001702432b634b7b9902837b7b6102a37b5b2b760791b81525090506060604051806040016040528060068152602001650484c532d4c560d41b81525090506000338b8b8b8b8b8b8b8a8a604051620005c69062000efb565b6001600160a01b03808c1682528a81166020808401919091528a821660408401528982166060840152908816608083015260a0820187905260c0820186905260e0820185905261014061010083018181528551918401919091528451909161012084019161016085019187019080838360005b838110156200065357818101518382015260200162000639565b50505050905090810190601f168015620006815780820380516001836020036101000a031916815260200191505b50838103825284518152845160209182019186019080838360005b83811015620006b65781810151838201526020016200069c565b50505050905090810190601f168015620006e45780820380516001836020036101000a031916815260200191505b509c50505050505050505050505050604051809103906000f08015801562000710573d6000803e3d6000fd5b5090508093508360036000600154815260200190815260200160002060006101000a8154816001600160a01b0302191690836001600160a01b03160217905550600160046000866001600160a01b03166001600160a01b0316815260200190815260200160002060006101000a81548160ff02191690831515021790555060016000815460010191905081905550336001600160a01b0316846001600160a01b03167fca6c57d58de1ff84c629ea4a44b3a2f19a6c83cc1dc3cd7d1ede2067a6a1016d8d8d856001600160a01b0316639759164a6040518163ffffffff1660e01b815260040160206040518083038186803b1580156200080f57600080fd5b505afa15801562000824573d6000803e3d6000fd5b505050506040513d60208110156200083b57600080fd5b5051604080516233b1cf60e41b815290516001600160a01b0389169163033b1cf0916004808301926020929190829003018186803b1580156200087d57600080fd5b505afa15801562000892573d6000803e3d6000fd5b505050506040513d6020811015620008a957600080fd5b81019080805190602001909291905050508d8d8d8c8c604051808a6001600160a01b03166001600160a01b03168152602001896001600160a01b03166001600160a01b03168152602001886001600160a01b03166001600160a01b03168152602001876001600160a01b03166001600160a01b031681526020018681526020018581526020018481526020018060200180602001838103835285818151815260200191508051906020019080838360005b83811015620009745781810151838201526020016200095a565b50505050905090810190601f168015620009a25780820380516001836020036101000a031916815260200191505b50838103825284518152845160209182019186019080838360005b83811015620009d7578181015183820152602001620009bd565b50505050905090810190601f16801562000a055780820380516001836020036101000a031916815260200191505b509b50505050505050505050505060405180910390a3505050979650505050505050565b62000a3362000c18565b62000a3d62000d03565b565b60046020526000908152604090205460ff1681565b60005460ff1690565b60056020526000908152604090205460ff1681565b62000a7c62000c18565b62000a3d62000da8565b60015481565b600481565b6003602052600090815260409020546001600160a01b031681565b6002546001600160a01b031681565b600381565b62000aca62000e30565b600280546001600160a01b0319166001600160a01b0392909216919091179055565b62000af662000e30565b6001600160a01b038216600081815260056020908152604091829020805460ff1916851515908117909155825190815291517fc0d8ae32722eafe08b35b2bb46dec31dcbbd5bb18069f66995df3c9f47f4d64f9281900390910190a25050565b600260009054906101000a90046001600160a01b03166001600160a01b031663425fad586040518163ffffffff1660e01b815260040160206040518083038186803b15801562000ba557600080fd5b505afa15801562000bba573d6000803e3d6000fd5b505050506040513d602081101562000bd157600080fd5b50511562000a3d576040805162461bcd60e51b815260206004820152600f60248201526e14118e941493d513d7d4105554d151608a1b604482015290519081900360640190fd5b600260009054906101000a90046001600160a01b03166001600160a01b0316630c340a246040518163ffffffff1660e01b815260040160206040518083038186803b15801562000c6757600080fd5b505afa15801562000c7c573d6000803e3d6000fd5b505050506040513d602081101562000c9357600080fd5b50516001600160a01b031633148062000cbb57503360009081526005602052604090205460ff165b62000a3d576040805162461bcd60e51b815260206004820152601360248201527228231d2727aa2fa3a7ab2fa7a92fa0a226a4a760691b604482015290519081900360640190fd5b62000d0d62000a54565b62000d56576040805162461bcd60e51b815260206004820152601460248201527314185d5cd8589b194e881b9bdd081c185d5cd95960621b604482015290519081900360640190fd5b6000805460ff191690557f5db9ee0a495bf2e6ff9c91a7834c1ba4fdd244a5e8aa4e537bd38aeae4b073aa62000d8b62000ef7565b604080516001600160a01b039092168252519081900360200190a1565b62000db262000a54565b1562000df8576040805162461bcd60e51b815260206004820152601060248201526f14185d5cd8589b194e881c185d5cd95960821b604482015290519081900360640190fd5b6000805460ff191660011790557f62e78cea01bee320cd4e420270b5ea74000d11b0c9f74754ebdbfc544b05a25862000d8b62000ef7565b600260009054906101000a90046001600160a01b03166001600160a01b0316630c340a246040518163ffffffff1660e01b815260040160206040518083038186803b15801562000e7f57600080fd5b505afa15801562000e94573d6000803e3d6000fd5b505050506040513d602081101562000eab57600080fd5b50516001600160a01b0316331462000a3d576040805162461bcd60e51b815260206004820152600a60248201526928231d2727aa2fa3a7ab60b11b604482015290519081900360640190fd5b3390565b61501e8062000f0a8339019056fe6101806040523480156200001257600080fd5b506040516200501e3803806200501e83398181016040526101408110156200003957600080fd5b815160208301516040808501516060860151608087015160a088015160c089015160e08a01516101008b0180519751999b989a969995989497939692959194919392820192846401000000008211156200009257600080fd5b908301906020820185811115620000a857600080fd5b8251640100000000811182820188101715620000c357600080fd5b82525081516020918201929091019080838360005b83811015620000f2578181015183820152602001620000d8565b50505050905090810190601f168015620001205780820380516001836020036101000a031916815260200191505b50604052602001805160405193929190846401000000008211156200014457600080fd5b9083019060208201858111156200015a57600080fd5b82516401000000008111828201881017156200017557600080fd5b82525081516020918201929091019080838360005b83811015620001a45781810151838201526020016200018a565b50505050905090810190601f168015620001d25780820380516001836020036101000a031916815260200191505b5060405250505081818181818181818160039080519060200190620001f99291906200056e565b5080516200020f9060049060208401906200056e565b50506005805460ff191660121790555073__$87c5565d2cb91337a618497edfeeda13b6$__955063f30752bd9450620002589350339250506001600160e01b03620004fe169050565b604080516001600160e01b031960e085901b1681526001600160a01b039283166004820152828e166024820152918c16604483015260648201899052608482018890525160a4808301926000929190829003018186803b158015620002bc57600080fd5b505af4158015620002d1573d6000803e3d6000fd5b50505050886001600160a01b03166080816001600160a01b031660601b81525050886001600160a01b031663313ce5676040518163ffffffff1660e01b815260040160206040518083038186803b1580156200032c57600080fd5b505afa15801562000341573d6000803e3d6000fd5b505050506040513d60208110156200035857600080fd5b505160ff1661014052606088811b6001600160601b031990811660e0528b821b1660a052601086905561016085905233901b610120526012839055604080516342ef033f60e11b81526001600160a01b03808b1660048301528b811660248301529151918916916385de067e916044808201926020929091908290030181600087803b158015620003e857600080fd5b505af1158015620003fd573d6000803e3d6000fd5b505050506040513d60208110156200041457600080fd5b505160601b6001600160601b0319166101005260408051630cf5bc1d60e11b81526001600160a01b038b811660048301529151918816916319eb783a916024808201926020929091908290030181600087803b1580156200047457600080fd5b505af115801562000489573d6000803e3d6000fd5b505050506040513d6020811015620004a057600080fd5b505160601b6001600160601b03191660c05262ed4e00601355604080516000815290517f24b0afb747a8213aea796b9518bfa667de187b83390eda7cc93b8e57f80fcd1a916020908290030190a15050505050505050505062000613565b6000816001600160a01b031663c31245256040518163ffffffff1660e01b815260040160206040518083038186803b1580156200053a57600080fd5b505afa1580156200054f573d6000803e3d6000fd5b505050506040513d60208110156200056657600080fd5b505192915050565b828054600181600116156101000203166002900490600052602060002090601f016020900481019282601f10620005b157805160ff1916838001178555620005e1565b82800160010185558215620005e1579182015b82811115620005e1578251825591602001919060010190620005c4565b50620005ef929150620005f3565b5090565b6200061091905b80821115620005ef5760008155600101620005fa565b90565b60805160601c60a05160601c60c05160601c60e05160601c6101005160601c6101205160601c61014051610160516148d862000746600039806111395280611c6952806126445250806133b2525080610d5f5280610da85280610f5f52806119ae5280611ed152806123b15280612c755280613020525080610c875280610e6b528061127752806112f2528061139f52806114195280612e45525080610df3528061225f5280612e6d525080610f8752806112a1528061251052806127285280612c0c5280612f7552806132ac5280613820525080610e43528061124d5280611b4c5280612d4b5280613b43525080610e1b5280611027528061137552806113ea5280611efa528061238d52806127055280612be25280612dd95280612e1d5280612f5352806137f152506148d86000f3fe608060405234801561001057600080fd5b50600436106103fb5760003560e01c806370a0823111610215578063a9059cbb11610125578063c771c390116100b8578063d82745c811610087578063d82745c814610bfa578063dd62ed3e14610c20578063ee947a7c14610c4e578063eff9884314610c56578063fec984e314610c5e576103fb565b8063c771c39014610b79578063c965b54814610b96578063cc0fef0214610bc4578063d7bd3c9114610bcc576103fb565b8063b69410de116100f4578063b69410de14610acf578063b6b55f2514610ad7578063c374682514610af4578063c59e395914610b53576103fb565b8063a9059cbb14610a4f578063ac64165514610a7b578063aed4966a14610a83578063af6d557114610aa9576103fb565b806384b76824116101a85780639759164a116101775780639759164a146109ec5780639f3c7325146109f4578063a33142f7146109fc578063a43baa3d14610a04578063a457c2d714610a23576103fb565b806384b76824146109885780638905fd4f146109905780639185192a146109b657806395d89b41146109e4576103fb565b806376687d3d116101e457806376687d3d1461093e5780637b99adb11461094657806380cd916d1461096357806380e7ce851461096b576103fb565b806370a08231146108da57806371073bac1461090057806373ef9a50146109085780637666f12514610910576103fb565b80632e1a7d4d1161031057806346c162de116102a357806351b42b001161027257806351b42b001461081c578063613384f214610824578063641ad8a91461084a5780636696779114610876578063681cb10a1461089c576103fb565b806346c162de146107de5780634bb278f3146107e65780634e97415f146107ee5780634f85221a14610814576103fb565b806340504ba0116102df57806340504ba01461074757806340bde09814610775578063410dbf7e1461079b578063443bb293146107b8576103fb565b80632e1a7d4d146106ee578063313ce5671461070b57806339509351146107135780634046af2b1461073f576103fb565b80631831ccf21161039357806323b872dd1161036257806323b872dd1461062857806324600fc31461065e57806324b92e8e1461066657806327f918561461068c5780632ac04ac8146106b8576103fb565b80631831ccf21461057a5780631aa37cec14610582578063209b2bca146105ba57806321c0b342146105c2576103fb565b80630d49b38c116103cf5780630d49b38c1461051957806313bf9e7e14610521578063174a5be41461055457806318160ddd14610572576103fb565b806241c52c14610400578063033b1cf01461043857806306fdde031461045c578063095ea7b3146104d9575b600080fd5b6104266004803603602081101561041657600080fd5b50356001600160a01b0316610c66565b60408051918252519081900360200190f35b610440610c85565b604080516001600160a01b039092168252519081900360200190f35b610464610ca9565b6040805160208082528351818301528351919283929083019185019080838360005b8381101561049e578181015183820152602001610486565b50505050905090810190601f1680156104cb5780820380516001836020036101000a031916815260200191505b509250505060405180910390f35b610505600480360360408110156104ef57600080fd5b506001600160a01b038135169060200135610d3f565b604080519115158252519081900360200190f35b610440610d5d565b610529610d81565b6040805195865260208601949094529115158484015260608401526080830152519081900360a00190f35b61055c610f04565b6040805160ff9092168252519081900360200190f35b610426610f09565b610505610f0f565b6105b86004803603606081101561059857600080fd5b506001600160a01b03813581169160208101359091169060400135610f18565b005b610440611025565b6105f0600480360360408110156105d857600080fd5b506001600160a01b0381358116916020013516611049565b604051808260e080838360005b838110156106155781810151838201526020016105fd565b5050505090500191505060405180910390f35b6105056004803603606081101561063e57600080fd5b506001600160a01b03813581169160208101359091169060400135611525565b6105b86115b3565b6104266004803603602081101561067c57600080fd5b50356001600160a01b0316611607565b6105b8600480360360408110156106a257600080fd5b506001600160a01b038135169060200135611619565b6105b8600480360360608110156106ce57600080fd5b506001600160a01b038135811691602081013590911690604001356117ba565b6105b86004803603602081101561070457600080fd5b5035611991565b61055c611aed565b6105056004803603604081101561072957600080fd5b506001600160a01b038135169060200135611af6565b610440611b4a565b6105b86004803603604081101561075d57600080fd5b506001600160a01b0381358116916020013516611b6e565b6104266004803603602081101561078b57600080fd5b50356001600160a01b0316611bef565b6105b8600480360360208110156107b157600080fd5b5035611c58565b610426600480360360208110156107ce57600080fd5b50356001600160a01b0316611d0d565b6105b8611d3f565b6105b8611d6d565b6104266004803603602081101561080457600080fd5b50356001600160a01b0316611e3b565b610505611e80565b6105b8611ea0565b6105056004803603602081101561083a57600080fd5b50356001600160a01b0316611ff9565b61085261200e565b6040518082600281111561086257fe5b60ff16815260200191505060405180910390f35b6104266004803603602081101561088c57600080fd5b50356001600160a01b031661201c565b610426600480360360808110156108b257600080fd5b506001600160a01b038135811691602081013582169160408201358116916060013516612042565b610426600480360360208110156108f057600080fd5b50356001600160a01b03166120ed565b610426612108565b6105b861210e565b6105b86004803603604081101561092657600080fd5b506001600160a01b03813516906020013515156121a4565b61042661220c565b6105b86004803603602081101561095c57600080fd5b5035612212565b61044061225d565b6105056004803603602081101561098157600080fd5b5035612281565b6105b86122d4565b6105b8600480360360208110156109a657600080fd5b50356001600160a01b0316612370565b6105b8600480360360408110156109cc57600080fd5b506001600160a01b0381351690602001351515612445565b6104646124ad565b61044061250e565b610426612532565b610426612538565b6105b860048036036020811015610a1a57600080fd5b5035151561253e565b61050560048036036040811015610a3957600080fd5b506001600160a01b03813516906020013561258d565b61050560048036036040811015610a6557600080fd5b506001600160a01b0381351690602001356125fb565b61042661260f565b61042660048036036020811015610a9957600080fd5b50356001600160a01b0316612615565b61042660048036036020811015610abf57600080fd5b50356001600160a01b0316612630565b610426612642565b6105b860048036036020811015610aed57600080fd5b5035612666565b610b3a600480360360a0811015610b0a57600080fd5b506001600160a01b03813581169160208101358216916040820135811691606081013590911690608001356127a0565b6040805192835260208301919091528051918290030190f35b61050560048036036020811015610b6957600080fd5b50356001600160a01b031661285d565b6105b860048036036020811015610b8f57600080fd5b5035612872565b61042660048036036040811015610bac57600080fd5b506001600160a01b03813581169160200135166128fa565b6105b8612917565b61044060048036036040811015610be257600080fd5b506001600160a01b0381358116916020013516612942565b61042660048036036020811015610c1057600080fd5b50356001600160a01b0316612968565b61042660048036036040811015610c3657600080fd5b506001600160a01b038135811691602001351661297a565b6104266129a5565b6104266129ab565b6104266129b1565b6001600160a01b0381166000908152600860205260409020545b919050565b7f000000000000000000000000000000000000000000000000000000000000000081565b60038054604080516020601f6002600019610100600188161502019095169490940493840181900481028201810190925282815260609390929091830182828015610d355780601f10610d0a57610100808354040283529160200191610d35565b820191906000526020600020905b815481529060010190602001808311610d1857829003601f168201915b5050505050905090565b6000610d53610d4c6129b7565b84846129bb565b5060015b92915050565b7f000000000000000000000000000000000000000000000000000000000000000081565b600080600080600073__$87c5565d2cb91337a618497edfeeda13b6$__635388e261610dcc7f0000000000000000000000000000000000000000000000000000000000000000612aa7565b6040805160e084901b6001600160e01b03191681526001600160a01b0392831660048201527f0000000000000000000000000000000000000000000000000000000000000000831660248201527f0000000000000000000000000000000000000000000000000000000000000000831660448201527f0000000000000000000000000000000000000000000000000000000000000000831660648201527f000000000000000000000000000000000000000000000000000000000000000090921660848301525160a48083019260a0929190829003018186803b158015610eb257600080fd5b505af4158015610ec6573d6000803e3d6000fd5b505050506040513d60a0811015610edc57600080fd5b5080516020820151604083015160608401516080909401519299919850965091945092509050565b600181565b60025490565b60145460ff1681565b610f20612b14565b610f2a6001612b24565b601154610f3d908263ffffffff612b8616565b6011556040805163fbecb17160e01b8152601660048201526001600160a01b037f0000000000000000000000000000000000000000000000000000000000000000811660248301527f00000000000000000000000000000000000000000000000000000000000000008116604483015280861660648301528416608482015260a48101839052905173__$87c5565d2cb91337a618497edfeeda13b6$__9163fbecb1719160c4808301926000929190829003018186803b15801561100057600080fd5b505af4158015611014573d6000803e3d6000fd5b50505050611020612be0565b505050565b7f000000000000000000000000000000000000000000000000000000000000000081565b61105161468a565b611059612c70565b611061612d40565b6001600160a01b0380841660009081526016602090815260408083208685168452909152808220548151634e71d92d60e01b81529151931692634e71d92d9260048084019360e093929083900390910190829087803b1580156110c357600080fd5b505af11580156110d7573d6000803e3d6000fd5b505050506040513d601f19601f8201168201806040525060e08110156110fc57600080fd5b50601054604051633faa6c5d60e01b815291925060009182918291829173__$87c5565d2cb91337a618497edfeeda13b6$__91633faa6c5d9188917f00000000000000000000000000000000000000000000000000000000000000009190600401808460e08083838c5b8381101561117e578181015183820152602001611166565b50505050905001838152602001828152602001935050505060806040518083038186803b1580156111ae57600080fd5b505af41580156111c2573d6000803e3d6000fd5b505050506040513d60808110156111d857600080fd5b50805160208201516040830151606090930151601154929750909550919350909150821161120e57601180548390039055611232565b601154611224908290840363ffffffff612b8616565b601180546000909155925090505b600c54611245908263ffffffff612b8616565b600c556112727f000000000000000000000000000000000000000000000000000000000000000085612dcc565b61129c7f000000000000000000000000000000000000000000000000000000000000000084612dcc565b6112d57f00000000000000000000000000000000000000000000000000000000000000006112d0848463ffffffff612b8616565b612dcc565b60c0850151156112f0576112f0878660066020020151612e06565b7f00000000000000000000000000000000000000000000000000000000000000006001600160a01b03166346c162de6040518163ffffffff1660e01b8152600401600060405180830381600087803b15801561134b57600080fd5b505af115801561135f573d6000803e3d6000fd5b5050505061136b611d3f565b611373612be0565b7f00000000000000000000000000000000000000000000000000000000000000006001600160a01b03167f00000000000000000000000000000000000000000000000000000000000000006001600160a01b03167f2047d1633ff7768462ae07d28cb16e484203bfd6d85ce832494270ebcd9081a27f00000000000000000000000000000000000000000000000000000000000000006001600160a01b03166370a082317f00000000000000000000000000000000000000000000000000000000000000006040518263ffffffff1660e01b815260040180826001600160a01b03166001600160a01b0316815260200191505060206040518083038186803b15801561147e57600080fd5b505afa158015611492573d6000803e3d6000fd5b505050506040513d60208110156114a857600080fd5b505160408051918252519081900360200190a36060808601516040805184815260208101869052808201929092529181018590526080810186905290516001600160a01b038916917f21280d282ce6aa29c649fd1825373d7c77892fac3f1958fd98d5ca52dd82a197919081900360a00190a25050505092915050565b6000611532848484613010565b6115a88461153e6129b7565b6115a38560405180606001604052806028815260200161479e602891396001600160a01b038a1660009081526001602052604081209061157c6129b7565b6001600160a01b03168152602081019190915260400160002054919063ffffffff61318e16565b6129bb565b5060015b9392505050565b6115bb612c70565b60006115c5613225565b9050806115d25750611605565b6115dc33826132aa565b6115e4612be0565b600c546115f7908263ffffffff61332a16565b600c55611602613387565b50505b565b60156020526000908152604090205481565b336000908152601a602090815260408083206001600160a01b03861684529091528120549061164e828463ffffffff612b8616565b336000908152601b602052604081205491925090611672908563ffffffff612b8616565b905073__$87c5565d2cb91337a618497edfeeda13b6$__63297e7bf786868461169a336120ed565b6040518563ffffffff1660e01b815260040180856001600160a01b03166001600160a01b0316815260200184815260200183815260200182815260200194505050505060006040518083038186803b1580156116f557600080fd5b505af4158015611709573d6000803e3d6000fd5b5050336000818152601a602090815260408083206001600160a01b038c16808552908352818420899055848452601b835292819020879055805189815291820188905280519295509293507f847e03d69a7075471d42285f4ac63570c10f3012d8bf736d66de2eef17aac3e892908290030190a360408051828152905133917fe7f3fb4dacbff434e6d283d891f199c48b05b1629f610bd7ddc62353e162fb16919081900360200190a25050505050565b6001600160a01b0383166000908152601a60209081526040808320338452909152812054906117ef828463ffffffff61332a16565b60408051631b4c903160e01b81526001600160a01b0380891660048301528716602482015260448101869052905191925073__$87c5565d2cb91337a618497edfeeda13b6$__91631b4c903191606480820192600092909190829003018186803b15801561185c57600080fd5b505af4158015611870573d6000803e3d6000fd5b505050506001600160a01b0385166000818152601a602090815260408083203384528252808320859055928252601b9052908120546118af908561332a565b6001600160a01b038088166000818152601b60209081526040918290208590558151898152915194955092891693919233927ffaa022ea2cd7f14157070896fabadafe96cc4d4714eef7ae6a992a5084493ed59281900390910190a46040805184815260208101849052815133926001600160a01b038a16927f847e03d69a7075471d42285f4ac63570c10f3012d8bf736d66de2eef17aac3e8929081900390910190a360408051828152905133917fe7f3fb4dacbff434e6d283d891f199c48b05b1629f610bd7ddc62353e162fb16919081900360200190a2505050505050565b611999612c70565b60006119a4826133ab565b90506000806119d27f0000000000000000000000000000000000000000000000000000000000000000612aa7565b6001600160a01b0316639f51290b6040518163ffffffff1660e01b8152600401604080518083038186803b158015611a0957600080fd5b505afa158015611a1d573d6000803e3d6000fd5b505050506040513d6040811015611a3357600080fd5b5080516020909101519092509050611a4b33846133f8565b3360009081526019602052604090205482014203811015611aac576040805162461bcd60e51b8152602060048201526016602482015275140e95d2551211149055d7d393d517d0531313d5d15160521b604482015290519081900360640190fd5b611ab633846134d7565b611abe6115b3565b611adf33611ada611acd61357e565b879063ffffffff61332a16565b6132aa565b611ae7612be0565b50505050565b60055460ff1690565b6000610d53611b036129b7565b846115a38560016000611b146129b7565b6001600160a01b03908116825260208083019390935260409182016000908120918c16815292529020549063ffffffff612b8616565b7f000000000000000000000000000000000000000000000000000000000000000081565b611b76612b14565b6001600160a01b038083166000908152601660209081526040808320858516845290915280822054815163175f832960e01b8152915193169263175f83299260048084019391929182900301818387803b158015611bd357600080fd5b505af1158015611be7573d6000803e3d6000fd5b505050505050565b6001600160a01b0381166000908152600a6020526040812054600160801b90611c4a90611c4590611c39611c34611c25886120ed565b6009549063ffffffff6135ad16565b613606565b9063ffffffff61364716565b6136ac565b81611c5157fe5b0492915050565b611c60612b14565b612710611c93827f000000000000000000000000000000000000000000000000000000000000000063ffffffff612b8616565b1115611cd2576040805162461bcd60e51b8152602060048201526009602482015268503a4241445f46454560b81b604482015290519081900360640190fd5b60108190556040805182815290517f9408bb8c08d29b335e36090045074610352365476d9df02e203c25db4fcd67c09181900360200190a150565b6001600160a01b038116600090815260086020526040812054610d5790611d3384611e3b565b9063ffffffff61332a16565b6000611d49613387565b905060008113611d595750611605565b611d6a611d65826136ac565b6136ed565b50565b611d75612b14565b611d7f6000612b24565b6000611d89610d81565b50509250505080611dd1576040805162461bcd60e51b815260206004820152600d60248201526c503a494e5355465f5354414b4560981b604482015290519081900360640190fd5b601480546001919061ff0019166101008302179055506014546040517f24b0afb747a8213aea796b9518bfa667de187b83390eda7cc93b8e57f80fcd1a91610100900460ff169080826002811115611e2557fe5b60ff16815260200191505060405180910390a150565b6001600160a01b038116600090815260076020526040812054600160801b90611c4a90611c4590611c39611c34611e71886120ed565b6006549063ffffffff6135ad16565b60006001601454610100900460ff166002811115611e9a57fe5b14905090565b611ea8612b14565b611eb26001612b24565b73__$87c5565d2cb91337a618497edfeeda13b6$__63ad1a3323611ef57f0000000000000000000000000000000000000000000000000000000000000000612aa7565b6011547f00000000000000000000000000000000000000000000000000000000000000006040518463ffffffff1660e01b815260040180846001600160a01b03166001600160a01b03168152602001838152602001826001600160a01b03166001600160a01b03168152602001935050505060006040518083038186803b158015611f7f57600080fd5b505af4158015611f93573d6000803e3d6000fd5b50506014805461ff00191661020017908190556040517f24b0afb747a8213aea796b9518bfa667de187b83390eda7cc93b8e57f80fcd1a935061010090910460ff16915080826002811115611fe457fe5b60ff16815260200191505060405180910390a1565b60176020526000908152604090205460ff1681565b601454610100900460ff1681565b6001600160a01b0381166000908152600b6020526040812054610d5790611d3384611bef565b6040805163340e588560e11b81526001600160a01b0380871660048301528086166024830152808516604483015283166064820152905160009173__$87c5565d2cb91337a618497edfeeda13b6$__9163681cb10a91608480820192602092909190829003018186803b1580156120b857600080fd5b505af41580156120cc573d6000803e3d6000fd5b505050506040513d60208110156120e257600080fd5b505195945050505050565b6001600160a01b031660009081526020819052604090205490565b600c5481565b6000612119336120ed565b1415612159576040805162461bcd60e51b815260206004820152600a602482015269140e96915493d7d0905360b21b604482015290519081900360640190fd5b336000818152601960209081526040918290204290819055825190815291517f8a05f911d8ab7fc50fec37ef4ba7f9bfcb1a3c191c81dcd824ad0946c4e20d659281900390910190a2565b6121ac612b14565b6001600160a01b038216600081815260186020908152604091829020805460ff1916851515908117909155825190815291517fdf56132520665b33cd5731c5cfbacd8bee82524e67df563bb25b2be304f91d449281900390910190a25050565b60125481565b61221a612c70565b612222612d40565b60128190556040805182815290517f3ff20538222f568f27ff436c0c49dfd3e48d5b8f86533a3f759dc1c7089775ab9181900360200190a150565b7f000000000000000000000000000000000000000000000000000000000000000081565b60145460009060ff16806122a457503360009081526018602052604090205460ff165b8015610d5757506012546122cc836122c06011546122c06137ed565b9063ffffffff612b8616565b111592915050565b33600090815260196020526040902054612329576040805162461bcd60e51b8152602060048201526011602482015270503a4e4f545f5749544844524157494e4760781b604482015290519081900360640190fd5b3360008181526019602090815260408083208390558051928352517f8a05f911d8ab7fc50fec37ef4ba7f9bfcb1a3c191c81dcd824ad0946c4e20d659281900390910190a2565b73__$87c5565d2cb91337a618497edfeeda13b6$__6385937648827f00000000000000000000000000000000000000000000000000000000000000006123d57f0000000000000000000000000000000000000000000000000000000000000000612aa7565b604080516001600160e01b031960e087901b1681526001600160a01b03948516600482015292841660248401529216604482015290516064808301926000929190829003018186803b15801561242a57600080fd5b505af415801561243e573d6000803e3d6000fd5b5050505050565b61244d612b14565b6001600160a01b038216600081815260176020908152604091829020805460ff1916851515908117909155825190815291517f353578bbc0ab907b7018b0f7b50b5f822d31dc9fcf4c16fffa780e109ca7c9309281900390910190a25050565b60048054604080516020601f6002600019610100600188161502019095169490940493840181900481028201810190925282815260609390929091830182828015610d355780601f10610d0a57610100808354040283529160200191610d35565b7f000000000000000000000000000000000000000000000000000000000000000081565b600e5481565b600d5481565b612546612b14565b6014805482151560ff19909116811790915560408051918252517feeba6fd794e30165023f7e3d017e92901622076a95d36e45906955e025ff4fe79181900360200190a150565b6000610d5361259a6129b7565b846115a38560405180606001604052806025815260200161487e60259139600160006125c46129b7565b6001600160a01b03908116825260208083019390935260409182016000908120918d1681529252902054919063ffffffff61318e16565b6000610d536126086129b7565b8484613010565b60115481565b6001600160a01b03166000908152600b602052604090205490565b601b6020526000908152604090205481565b7f000000000000000000000000000000000000000000000000000000000000000081565b61266e612c70565b6126786001612b24565b61268181612281565b6126c6576040805162461bcd60e51b8152602060048201526011602482015270140e91115417d393d517d0531313d5d151607a1b604482015290519081900360640190fd5b3360009081526019602052604081208190556126e1826133ab565b90506126f860156126f1336120ed565b83336138b6565b6127536001600160a01b037f000000000000000000000000000000000000000000000000000000000000000016337f00000000000000000000000000000000000000000000000000000000000000008563ffffffff61396f16565b61275d33826139c9565b612765612be0565b6040805160008152905133917f8a05f911d8ab7fc50fec37ef4ba7f9bfcb1a3c191c81dcd824ad0946c4e20d65919081900360200190a25050565b6040805163c374682560e01b81526001600160a01b0380881660048301528087166024830152808616604483015284166064820152608481018390528151600092839273__$87c5565d2cb91337a618497edfeeda13b6$__9263c37468259260a480840193919291829003018186803b15801561281c57600080fd5b505af4158015612830573d6000803e3d6000fd5b505050506040513d604081101561284657600080fd5b508051602090910151909890975095505050505050565b60186020526000908152604090205460ff1681565b61287a612b14565b6013548111156128bf576040805162461bcd60e51b815260206004820152600b60248201526a503a4241445f56414c554560a81b604482015290519081900360640190fd5b60138190556040805182815290517f3094b4ce0463766c3cd81ed2ae2451610dcac39a1061fa023ca9d3d4df959f759181900360200190a150565b601a60209081526000928352604080842090915290825290205481565b6000612921613a15565b9050600081136129315750611605565b611d6a61293d826136ac565b613a33565b60166020908152600092835260408084209091529082529020546001600160a01b031681565b60196020526000908152604090205481565b6001600160a01b03918216600090815260016020908152604080832093909416825291909152205490565b60135481565b60105481565b600f5481565b3390565b6001600160a01b038316612a005760405162461bcd60e51b815260040180806020018281038252602481526020018061480c6024913960400191505060405180910390fd5b6001600160a01b038216612a455760405162461bcd60e51b81526004018080602001828103825260228152602001806146ee6022913960400191505060405180910390fd5b6001600160a01b03808416600081815260016020908152604080832094871680845294825291829020859055815185815291517f8c5be1e5ebec7d5bd14f71427d1e84f3dd0314c0f7b2291e5b200ac8c7c3b9259281900390910190a3505050565b6000816001600160a01b031663c31245256040518163ffffffff1660e01b815260040160206040518083038186803b158015612ae257600080fd5b505afa158015612af6573d6000803e3d6000fd5b505050506040513d6020811015612b0c57600080fd5b505192915050565b612b1c613b38565b611605612c70565b806002811115612b3057fe5b601454610100900460ff166002811115612b4657fe5b14611d6a576040805162461bcd60e51b815260206004820152600b60248201526a503a4241445f535441544560a81b604482015290519081900360640190fd5b6000828201838110156115ac576040805162461bcd60e51b815260206004820152601b60248201527f536166654d6174683a206164646974696f6e206f766572666c6f770000000000604482015290519081900360640190fd5b7f00000000000000000000000000000000000000000000000000000000000000006001600160a01b03167f00000000000000000000000000000000000000000000000000000000000000006001600160a01b03167f2047d1633ff7768462ae07d28cb16e484203bfd6d85ce832494270ebcd9081a2612c5d6137ed565b60408051918252519081900360200190a3565b612c997f0000000000000000000000000000000000000000000000000000000000000000612aa7565b6001600160a01b031663425fad586040518163ffffffff1660e01b815260040160206040518083038186803b158015612cd157600080fd5b505afa158015612ce5573d6000803e3d6000fd5b505050506040513d6020811015612cfb57600080fd5b505115611605576040805162461bcd60e51b815260206004820152600e60248201526d140e941493d513d7d4105554d15160921b604482015290519081900360640190fd5b336001600160a01b037f0000000000000000000000000000000000000000000000000000000000000000161480612d8657503360009081526017602052604090205460ff165b611605576040805162461bcd60e51b8152602060048201526012602482015271281d2727aa2fa222a62fa7a92fa0a226a4a760711b604482015290519081900360640190fd5b6116026001600160a01b037f000000000000000000000000000000000000000000000000000000000000000016838363ffffffff613ba116565b6040805162715b0960e41b81526001600160a01b037f0000000000000000000000000000000000000000000000000000000000000000811660048301527f0000000000000000000000000000000000000000000000000000000000000000811660248301527f00000000000000000000000000000000000000000000000000000000000000001660448201526064810183905290516000918291829173__$87c5565d2cb91337a618497edfeeda13b6$__91630715b09091608480820192606092909190829003018186803b158015612ede57600080fd5b505af4158015612ef2573d6000803e3d6000fd5b505050506040513d6060811015612f0857600080fd5b5080516020820151604090920151909450909250905080841115612f4657600d54612f3b9082860363ffffffff612b8616565b600d55612f46612917565b612fa06001600160a01b037f0000000000000000000000000000000000000000000000000000000000000000167f00000000000000000000000000000000000000000000000000000000000000008363ffffffff613ba116565b601154612fb3908563ffffffff61332a16565b60115560408051858152602081018590528082018490526060810183905290516001600160a01b038716917fd393d18014c1898545668c52621bced9493753be5b8138f2539542ca606732eb919081900360800190a25050505050565b613018612c70565b6000806130447f0000000000000000000000000000000000000000000000000000000000000000612aa7565b6001600160a01b0316639f51290b6040518163ffffffff1660e01b8152600401604080518083038186803b15801561307b57600080fd5b505afa15801561308f573d6000803e3d6000fd5b505050506040513d60408110156130a557600080fd5b50805160209091015190925090506130bd85846133f8565b6001600160a01b038416600090815260196020526040902054820181014211613120576040805162461bcd60e51b815260206004820152601060248201526f140e9513d7d393d517d0531313d5d15160821b604482015290519081900360640190fd5b600061312b8661201c565b1461316e576040805162461bcd60e51b815260206004820152600e60248201526d503a5245434f475f4c4f5353455360901b604482015290519081900360640190fd5b613183601561317c866120ed565b85876138b6565b61243e858585613bf3565b6000818484111561321d5760405162461bcd60e51b81526004018080602001828103825283818151815260200191508051906020019080838360005b838110156131e25781810151838201526020016131ca565b50505050905090810190601f16801561320f5780820380516001836020036101000a031916815260200191505b509250505060405180910390fd5b505050900390565b600061323033611d0d565b3360009081526008602052604081205491925090613254908363ffffffff612b8616565b336000818152600860209081526040918290208490558151868152908101849052815193945091927ffbc3a599b784fe88772fc5abcc07223f64ca0b13acc341f4fb1e46bef0510eb49281900390910190a25090565b7f00000000000000000000000000000000000000000000000000000000000000006001600160a01b031663a9059cbb83836040518363ffffffff1660e01b815260040180836001600160a01b03166001600160a01b0316815260200182815260200192505050600060405180830381600087803b158015611bd357600080fd5b600082821115613381576040805162461bcd60e51b815260206004820152601e60248201527f536166654d6174683a207375627472616374696f6e206f766572666c6f770000604482015290519081900360640190fd5b50900390565b600e8054600c54918290556000916133a5908263ffffffff613d1f16565b91505090565b6000610d577f0000000000000000000000000000000000000000000000000000000000000000600a0a6133ec84670de0b6b3a764000063ffffffff6135ad16565b9063ffffffff613d8416565b6013546001600160a01b0383166000908152601560205260409020544291613426919063ffffffff612b8616565b111561346a576040805162461bcd60e51b815260206004820152600e60248201526d140e9195539114d7d313d0d2d15160921b604482015290519081900360640190fd5b6001600160a01b0382166000908152601b602052604090205461349082611d33856120ed565b1015611602576040805162461bcd60e51b8152602060048201526011602482015270140e925394d55197d514905394d7d09053607a1b604482015290519081900360640190fd5b6134e18282613deb565b60006135236134fe611c34846009546135ad90919063ffffffff16565b6001600160a01b0385166000908152600a60205260409020549063ffffffff61364716565b6001600160a01b0384166000818152600a60209081526040918290208490558151848152915193945091927fb464de3159e090617503d0166bff9ffeecdefd42cd9dbb49f918df95a80fdea3929181900390910190a2505050565b6000613588613e92565b600d5490915061359e908263ffffffff61332a16565b600d556135a9613a15565b5090565b6000826135bc57506000610d57565b828202828482816135c957fe5b04146115ac5760405162461bcd60e51b815260040180806020018281038252602181526020018061477d6021913960400191505060405180910390fd5b806000811215610c80576040805162461bcd60e51b815260206004820152600760248201526629a6aa9d27a7a160c91b604482015290519081900360640190fd5b600082820181831280159061365c5750838112155b80613671575060008312801561367157508381125b6115ac5760405162461bcd60e51b81526004018080602001828103825260218152602001806147366021913960400191505060405180910390fd5b6000808212156135a9576040805162461bcd60e51b8152602060048201526007602482015266534d493a4e454760c81b604482015290519081900360640190fd5b60006136f7610f09565b1161373b576040805162461bcd60e51b815260206004820152600f60248201526e4644543a5a45524f5f535550504c5960881b604482015290519081900360640190fd5b8061374557611d6a565b61377c613750610f09565b61376483600160801b63ffffffff6135ad16565b8161376b57fe5b60065491900463ffffffff612b8616565b60065560408051828152905133917f26536799ace2c3dbe12e638ec3ade6b4173dcf1289be0a58d51a5003015649bd919081900360200190a260065460408051918252517f1f8d7705f31c3337a080803a8ad7e71946fb88d84738879be2bf402f97156e969181900360200190a150565b60007f00000000000000000000000000000000000000000000000000000000000000006001600160a01b03166370a082317f00000000000000000000000000000000000000000000000000000000000000006040518263ffffffff1660e01b815260040180826001600160a01b03166001600160a01b0316815260200191505060206040518083038186803b15801561388557600080fd5b505afa158015613899573d6000803e3d6000fd5b505050506040513d60208110156138af57600080fd5b5051905090565b6001600160a01b038116600090815260208590526040812054908484016138dd5781613913565b6139136139068686016133ec876138fa428863ffffffff61332a16565b9063ffffffff6135ad16565b839063ffffffff612b8616565b6001600160a01b038416600081815260208981526040918290208490558151848152915193945091927ff9b842c70d79466435b46540bb988aa5c998b3243bf91c36380ddb5887c0f0e4929181900390910190a2505050505050565b604080516001600160a01b0380861660248301528416604482015260648082018490528251808303909101815260849091019091526020810180516001600160e01b03166323b872dd60e01b179052611ae7908590613f17565b6139d38282613fc8565b60006135236139f0611c34846009546135ad90919063ffffffff16565b6001600160a01b0385166000908152600a60205260409020549063ffffffff613d1f16565b600f8054600d54918290556000916133a5908263ffffffff613d1f16565b6000613a3d610f09565b11613a81576040805162461bcd60e51b815260206004820152600f60248201526e4644543a5a45524f5f535550504c5960881b604482015290519081900360640190fd5b80613a8b57611d6a565b6000613ac4613a98610f09565b613aac84600160801b63ffffffff6135ad16565b81613ab357fe5b60095491900463ffffffff612b8616565b600981905560408051848152905191925033917ff88156a8032a0d2c65df18fafaf84e0bea647b3d94a0f7fc6ab14c97dec2bf749181900360200190a26040805182815290517f240ce2b5ce9e9e5a70010c7f8034c233d89b7ce2d60f3a38d9bc3ca01a36f88c9181900360200190a15050565b336001600160a01b037f00000000000000000000000000000000000000000000000000000000000000001614611605576040805162461bcd60e51b8152602060048201526009602482015268140e9393d517d1115360ba1b604482015290519081900360640190fd5b604080516001600160a01b038416602482015260448082018490528251808303909101815260649091019091526020810180516001600160e01b031663a9059cbb60e01b179052611020908490613f17565b613bfe838383614014565b6000613c18611c34836009546135ad90919063ffffffff16565b6001600160a01b0385166000908152600a602052604081205491925090613c45908363ffffffff61364716565b6001600160a01b038087166000908152600a602052604080822084905591871681529081205491925090613c7f908463ffffffff613d1f16565b6001600160a01b038087166000908152600a602090815260409182902084905581518681529151939450918916927fb464de3159e090617503d0166bff9ffeecdefd42cd9dbb49f918df95a80fdea3929181900390910190a26040805182815290516001600160a01b038716917fb464de3159e090617503d0166bff9ffeecdefd42cd9dbb49f918df95a80fdea3919081900360200190a2505050505050565b6000818303818312801590613d345750838113155b80613d495750600083128015613d4957508381135b6115ac5760405162461bcd60e51b81526004018080602001828103825260248152602001806148306024913960400191505060405180910390fd5b6000808211613dda576040805162461bcd60e51b815260206004820152601a60248201527f536166654d6174683a206469766973696f6e206279207a65726f000000000000604482015290519081900360640190fd5b818381613de357fe5b049392505050565b613df58282614140565b6000613e37613e12611c34846006546135ad90919063ffffffff16565b6001600160a01b0385166000908152600760205260409020549063ffffffff61364716565b6001600160a01b0384166000818152600760209081526040918290208490558151848152915193945091927ff694bebd33ada288ae2f4485315db76739e2d5501daf315e71c9d8f841aa7773929181900390910190a2505050565b6000613e9d3361201c565b336000908152600b602052604081205491925090613ec1908363ffffffff612b8616565b336000818152600b60209081526040918290208490558151868152908101849052815193945091927f814eba35782909dbbaeefb8104073dfca45de43173f7077970c1584b3cf918b59281900390910190a25090565b6060613f6c826040518060400160405280602081526020017f5361666545524332303a206c6f772d6c6576656c2063616c6c206661696c6564815250856001600160a01b03166142489092919063ffffffff16565b80519091501561102057808060200190516020811015613f8b57600080fd5b50516110205760405162461bcd60e51b815260040180806020018281038252602a815260200180614854602a913960400191505060405180910390fd5b613fd2828261425f565b6000613e37613fef611c34846006546135ad90919063ffffffff16565b6001600160a01b0385166000908152600760205260409020549063ffffffff613d1f16565b61401f83838361435b565b6000614039611c34836006546135ad90919063ffffffff16565b6001600160a01b03851660009081526007602052604081205491925090614066908363ffffffff61364716565b6001600160a01b03808716600090815260076020526040808220849055918716815290812054919250906140a0908463ffffffff613d1f16565b6001600160a01b0380871660009081526007602090815260409182902084905581518681529151939450918916927ff694bebd33ada288ae2f4485315db76739e2d5501daf315e71c9d8f841aa7773929181900390910190a26040805182815290516001600160a01b038716917ff694bebd33ada288ae2f4485315db76739e2d5501daf315e71c9d8f841aa7773919081900360200190a2505050505050565b6001600160a01b0382166141855760405162461bcd60e51b81526004018080602001828103825260218152602001806147c66021913960400191505060405180910390fd5b61419182600083611020565b6141d4816040518060600160405280602281526020016146cc602291396001600160a01b038516600090815260208190526040902054919063ffffffff61318e16565b6001600160a01b038316600090815260208190526040902055600254614200908263ffffffff61332a16565b6002556040805182815290516000916001600160a01b038516917fddf252ad1be2c89b69c2b068fc378daa952ba7f163c4a11628f55a4df523b3ef9181900360200190a35050565b606061425784846000856144c2565b949350505050565b6001600160a01b0382166142ba576040805162461bcd60e51b815260206004820152601f60248201527f45524332303a206d696e7420746f20746865207a65726f206164647265737300604482015290519081900360640190fd5b6142c660008383611020565b6002546142d9908263ffffffff612b8616565b6002556001600160a01b038216600090815260208190526040902054614305908263ffffffff612b8616565b6001600160a01b0383166000818152602081815260408083209490945583518581529351929391927fddf252ad1be2c89b69c2b068fc378daa952ba7f163c4a11628f55a4df523b3ef9281900390910190a35050565b6001600160a01b0383166143a05760405162461bcd60e51b81526004018080602001828103825260258152602001806147e76025913960400191505060405180910390fd5b6001600160a01b0382166143e55760405162461bcd60e51b81526004018080602001828103825260238152602001806146a96023913960400191505060405180910390fd5b6143f0838383611020565b61443381604051806060016040528060268152602001614710602691396001600160a01b038616600090815260208190526040902054919063ffffffff61318e16565b6001600160a01b038085166000908152602081905260408082209390935590841681522054614468908263ffffffff612b8616565b6001600160a01b038084166000818152602081815260409182902094909455805185815290519193928716927fddf252ad1be2c89b69c2b068fc378daa952ba7f163c4a11628f55a4df523b3ef92918290030190a3505050565b6060824710156145035760405162461bcd60e51b81526004018080602001828103825260268152602001806147576026913960400191505060405180910390fd5b61450c8561461e565b61455d576040805162461bcd60e51b815260206004820152601d60248201527f416464726573733a2063616c6c20746f206e6f6e2d636f6e7472616374000000604482015290519081900360640190fd5b60006060866001600160a01b031685876040518082805190602001908083835b6020831061459c5780518252601f19909201916020918201910161457d565b6001836020036101000a03801982511681845116808217855250505050505090500191505060006040518083038185875af1925050503d80600081146145fe576040519150601f19603f3d011682016040523d82523d6000602084013e614603565b606091505b5091509150614613828286614624565b979650505050505050565b3b151590565b606083156146335750816115ac565b8251156146435782518084602001fd5b60405162461bcd60e51b81526020600482018181528451602484015284518593919283926044019190850190808383600083156131e25781810151838201526020016131ca565b6040518060e00160405280600790602082028036833750919291505056fe45524332303a207472616e7366657220746f20746865207a65726f206164647265737345524332303a206275726e20616d6f756e7420657863656564732062616c616e636545524332303a20617070726f766520746f20746865207a65726f206164647265737345524332303a207472616e7366657220616d6f756e7420657863656564732062616c616e63655369676e6564536166654d6174683a206164646974696f6e206f766572666c6f77416464726573733a20696e73756666696369656e742062616c616e636520666f722063616c6c536166654d6174683a206d756c7469706c69636174696f6e206f766572666c6f7745524332303a207472616e7366657220616d6f756e74206578636565647320616c6c6f77616e636545524332303a206275726e2066726f6d20746865207a65726f206164647265737345524332303a207472616e736665722066726f6d20746865207a65726f206164647265737345524332303a20617070726f76652066726f6d20746865207a65726f20616464726573735369676e6564536166654d6174683a207375627472616374696f6e206f766572666c6f775361666545524332303a204552433230206f7065726174696f6e20646964206e6f74207375636365656445524332303a2064656372656173656420616c6c6f77616e63652062656c6f77207a65726fa26469706673582212205fdbbcc475442bdb059c24b64c51f1582ef21c2201fc017086757d4310d2619264736f6c634300060b0033a26469706673582212202426f36531c92b4a73f0417cc93fae8a8acd8f9c8aaef507a41ce93cc456ccd964736f6c634300060b0033",
  "libraries": {
    "PoolLib": "0x64b0dD6Fef23172abfE34fae0B954FE66F270274"
  },
  "devdoc": {
    "kind": "dev",
    "methods": {
      "createPool(address,address,address,address,uint256,uint256,uint256)": {
        "details": "Instantiates a Pool.It emits a `PoolCreated` event.",
        "params": {
          "delegateFee": "Fee that the Pool Delegate earns on interest, in basis points.",
          "liquidityAsset": "The asset escrowed in a LiquidityLocker.",
          "liquidityCap": "Amount of Liquidity Asset accepted by the Pool.",
          "llFactory": "The factory to instantiate a LiquidityLocker from.",
          "slFactory": "The factory to instantiate a StakeLocker from.",
          "stakeAsset": "The asset escrowed in a StakeLocker.",
          "stakingFee": "Fee that Stakers earn on interest, in basis points."
        },
        "returns": {
          "poolAddress": "   Address of the instantiated Pool."
        }
      },
      "pause()": {
        "details": "Triggers paused state. Halts functionality for certain functions. Only the Governor or a PoolFactory Admin can call this function."
      },
      "paused()": {
        "details": "Returns true if the contract is paused, and false otherwise."
      },
      "setGlobals(address)": {
        "details": "Sets HeliosGlobals instance. Only the Governor can call this function.",
        "params": {
          "newGlobals": "Address of new HeliosGlobals."
        }
      },
      "setPoolFactoryAdmin(address,bool)": {
        "details": "Sets a PoolFactory Admin. Only the Governor can call this function.It emits a `PoolFactoryAdminSet` event.",
        "params": {
          "allowed": "Status of a PoolFactory Admin.",
          "poolFactoryAdmin": "An address being allowed or disallowed as a PoolFactory Admin."
        }
      },
      "unpause()": {
        "details": "Triggers unpaused state. Restores functionality for certain functions. Only the Governor or a PoolFactory Admin can call this function."
      }
    },
    "title": "PoolFactory instantiates Pools.",
    "version": 1
  },
  "userdoc": {
    "kind": "user",
    "methods": {},
    "version": 1
  },
  "storageLayout": {
    "storage": [
      {
        "astId": 1847,
        "contract": "packages/protocol/contracts/PoolFactory.sol:PoolFactory",
        "label": "_paused",
        "offset": 0,
        "slot": "0",
        "type": "t_bool"
      },
      {
        "astId": 9989,
        "contract": "packages/protocol/contracts/PoolFactory.sol:PoolFactory",
        "label": "poolsCreated",
        "offset": 0,
        "slot": "1",
        "type": "t_uint256"
      },
      {
        "astId": 9991,
        "contract": "packages/protocol/contracts/PoolFactory.sol:PoolFactory",
        "label": "globals",
        "offset": 0,
        "slot": "2",
        "type": "t_contract(IHeliosGlobals)12443"
      },
      {
        "astId": 9995,
        "contract": "packages/protocol/contracts/PoolFactory.sol:PoolFactory",
        "label": "pools",
        "offset": 0,
        "slot": "3",
        "type": "t_mapping(t_uint256,t_address)"
      },
      {
        "astId": 9999,
        "contract": "packages/protocol/contracts/PoolFactory.sol:PoolFactory",
        "label": "isPool",
        "offset": 0,
        "slot": "4",
        "type": "t_mapping(t_address,t_bool)"
      },
      {
        "astId": 10003,
        "contract": "packages/protocol/contracts/PoolFactory.sol:PoolFactory",
        "label": "poolFactoryAdmins",
        "offset": 0,
        "slot": "5",
        "type": "t_mapping(t_address,t_bool)"
      }
    ],
    "types": {
      "t_address": {
        "encoding": "inplace",
        "label": "address",
        "numberOfBytes": "20"
      },
      "t_bool": {
        "encoding": "inplace",
        "label": "bool",
        "numberOfBytes": "1"
      },
      "t_contract(IHeliosGlobals)12443": {
        "encoding": "inplace",
        "label": "contract IHeliosGlobals",
        "numberOfBytes": "20"
      },
      "t_mapping(t_address,t_bool)": {
        "encoding": "mapping",
        "key": "t_address",
        "label": "mapping(address => bool)",
        "numberOfBytes": "32",
        "value": "t_bool"
      },
      "t_mapping(t_uint256,t_address)": {
        "encoding": "mapping",
        "key": "t_uint256",
        "label": "mapping(uint256 => address)",
        "numberOfBytes": "32",
        "value": "t_address"
      },
      "t_uint256": {
        "encoding": "inplace",
        "label": "uint256",
        "numberOfBytes": "32"
      }
    }
  }
}