{
  "address": "0x85322f42ED83C64C4c41937Ae485733EB6896c06",
  "abi": [
    {
      "anonymous": false,
      "inputs": [
        {
          "indexed": true,
          "internalType": "address",
          "name": "owner",
          "type": "address"
        },
        {
          "indexed": false,
          "internalType": "address",
          "name": "stakeLocker",
          "type": "address"
        },
        {
          "indexed": false,
          "internalType": "address",
          "name": "stakeAsset",
          "type": "address"
        },
        {
          "indexed": false,
          "internalType": "address",
          "name": "liquidityAsset",
          "type": "address"
        },
        {
          "indexed": false,
          "internalType": "string",
          "name": "name",
          "type": "string"
        },
        {
          "indexed": false,
          "internalType": "string",
          "name": "symbol",
          "type": "string"
        }
      ],
      "name": "StakeLockerCreated",
      "type": "event"
    },
    {
      "inputs": [],
      "name": "factoryType",
      "outputs": [
        {
          "internalType": "uint8",
          "name": "",
          "type": "uint8"
        }
      ],
      "stateMutability": "view",
      "type": "function"
    },
    {
      "inputs": [
        {
          "internalType": "address",
          "name": "",
          "type": "address"
        }
      ],
      "name": "isLocker",
      "outputs": [
        {
          "internalType": "bool",
          "name": "",
          "type": "bool"
        }
      ],
      "stateMutability": "view",
      "type": "function"
    },
    {
      "inputs": [
        {
          "internalType": "address",
          "name": "stakeAsset",
          "type": "address"
        },
        {
          "internalType": "address",
          "name": "liquidityAsset",
          "type": "address"
        }
      ],
      "name": "newLocker",
      "outputs": [
        {
          "internalType": "address",
          "name": "stakeLocker",
          "type": "address"
        }
      ],
      "stateMutability": "nonpayable",
      "type": "function"
    },
    {
      "inputs": [
        {
          "internalType": "address",
          "name": "",
          "type": "address"
        }
      ],
      "name": "owner",
      "outputs": [
        {
          "internalType": "address",
          "name": "",
          "type": "address"
        }
      ],
      "stateMutability": "view",
      "type": "function"
    }
  ],
  "transactionHash": "0xc8350b6dcf07130f0e4899a5316d197c91221c3088da1e38494e0d224a728ffc",
  "args": [],
  "numDeployments": 1,
  "solcInputHash": "dffa7e128f2b675162a5be10778a0091",
  "bytecode": "0x608060405234801561001057600080fd5b5061469f806100206000396000f3fe608060405234801561001057600080fd5b506004361061004c5760003560e01c80632ec63d7c1461005157806364e1fd551461008b578063666e1b39146100a957806385de067e146100eb575b600080fd5b6100776004803603602081101561006757600080fd5b50356001600160a01b0316610119565b604080519115158252519081900360200190f35b61009361012e565b6040805160ff9092168252519081900360200190f35b6100cf600480360360208110156100bf57600080fd5b50356001600160a01b0316610133565b604080516001600160a01b039092168252519081900360200190f35b6100cf6004803603604081101561010157600080fd5b506001600160a01b038135811691602001351661014e565b60016020526000908152604090205460ff1681565b600481565b6000602081905290815260409020546001600160a01b031681565b600082823360405161015f9061057f565b6001600160a01b03938416815291831660208301529091166040808301919091525190819003606001906000f08015801561019e573d6000803e3d6000fd5b506001600160a01b03811660008181526020818152604080832080546001600160a01b03191633908117909155600192839052818420805460ff191690931790925580516306fdde0360e01b8152905194955090937f7048695351bc04a95befabe047a3ed13f1f6d553166422a344a49264f5e5cd38938693899389936306fdde0392600480840193919291829003018186803b15801561023e57600080fd5b505afa158015610252573d6000803e3d6000fd5b505050506040513d6000823e601f3d908101601f19168201604052602081101561027b57600080fd5b810190808051604051939291908464010000000082111561029b57600080fd5b9083019060208201858111156102b057600080fd5b82516401000000008111828201881017156102ca57600080fd5b82525081516020918201929091019080838360005b838110156102f75781810151838201526020016102df565b50505050905090810190601f1680156103245780820380516001836020036101000a031916815260200191505b50604052505050866001600160a01b03166395d89b416040518163ffffffff1660e01b815260040160006040518083038186803b15801561036457600080fd5b505afa158015610378573d6000803e3d6000fd5b505050506040513d6000823e601f3d908101601f1916820160405260208110156103a157600080fd5b81019080805160405193929190846401000000008211156103c157600080fd5b9083019060208201858111156103d657600080fd5b82516401000000008111828201881017156103f057600080fd5b82525081516020918201929091019080838360005b8381101561041d578181015183820152602001610405565b50505050905090810190601f16801561044a5780820380516001836020036101000a031916815260200191505b5060405250505060405180866001600160a01b03166001600160a01b03168152602001856001600160a01b03166001600160a01b03168152602001846001600160a01b03166001600160a01b031681526020018060200180602001838103835285818151815260200191508051906020019080838360005b838110156104da5781810151838201526020016104c2565b50505050905090810190601f1680156105075780820380516001836020036101000a031916815260200191505b50838103825284518152845160209182019186019080838360005b8381101561053a578181015183820152602001610522565b50505050905090810190601f1680156105675780820380516001836020036101000a031916815260200191505b5097505050505050505060405180910390a292915050565b6140dd8061058d8339019056fe6101006040523480156200001257600080fd5b50604051620040dd380380620040dd833981810160405260608110156200003857600080fd5b5080516020808301516040938401518451808601865260128152712432b634b7b99029ba30b5b2a637b1b5b2b960711b81850190815286518088019097526008875267484c535354414b4560c01b9487019490945280519495929491939092918591849184918391839183918391620000b5916003919062000125565b508051620000cb90600490602084019062000125565b50506005805460ff199081166012179091556001600160601b0319606097881b8116608052600f805490921690915599861b8a1660c052505050505094851b841660a052505090911b1660e05262ed4e00601055620001ca565b828054600181600116156101000203166002900490600052602060002090601f016020900481019282601f106200016857805160ff191683800117855562000198565b8280016001018555821562000198579182015b82811115620001985782518255916020019190600101906200017b565b50620001a6929150620001aa565b5090565b620001c791905b80821115620001a65760008155600101620001b1565b90565b60805160601c60a05160601c60c05160601c60e05160601c613e7c62000261600039806109cd5280610fcb5280611bae5280611d5752806120935280612169528061283752806128eb5280612d165280612e3d525080610a005250806112915280611316528061164f52806119745280611a3b5280611dc1525080610adc5280610b2b52806115ea528061261a5250613e7c6000f3fe608060405234801561001057600080fd5b50600436106102d55760003560e01c806370a0823111610182578063af6d5571116100e9578063d63a8e11116100a2578063f2d5d56b1161007c578063f2d5d56b14610839578063fab1107814610865578063fec984e314610882578063ff8871301461088a576102d5565b8063d63a8e11146107dd578063dd62ed3e14610803578063ee947a7c14610831576102d5565b8063af6d557114610719578063b12527f81461073f578063bcd01be71461076d578063c771c3901461078a578063c965b548146107a7578063cc0fef02146107d5576102d5565b8063a457c2d71161013b578063a457c2d71461066e578063a694fc3a1461069a578063a9059cbb146106b7578063a9691f3f146106e3578063aed4966a146106eb578063aedc78c314610711576102d5565b806370a082311461060257806380cd916d146106285780638456cb591461063057806386bf1da3146106385780638a10555c1461065e57806395d89b4114610666576102d5565b80632e17de781161024157806346c162de116101fa5780635190bbaf116101d45780635190bbaf146105a65780635c975abb146105cc57806363f04b15146105d457806366967791146105dc576102d5565b806346c162de146105705780634ab17969146105785780634e97415f14610580576102d5565b80632e17de78146104b5578063313ce567146104d257806339509351146104f05780633f4ba83a1461051c57806340bde09814610524578063443bb2931461054a576102d5565b80631831ccf2116102935780631831ccf214610405578063209b2bca1461040d57806323b872dd1461041557806324600fc31461044b57806327f91856146104535780632ac04ac81461047f576102d5565b806241c52c146102da57806306fdde0314610312578063095ea7b31461038f5780630e754e86146103cf57806316f0115b146103d957806318160ddd146103fd575b600080fd5b610300600480360360208110156102f057600080fd5b50356001600160a01b03166108b0565b60408051918252519081900360200190f35b61031a6108cf565b6040805160208082528351818301528351919283929083019185019080838360005b8381101561035457818101518382015260200161033c565b50505050905090810190601f1680156103815780820380516001836020036101000a031916815260200191505b509250505060405180910390f35b6103bb600480360360408110156103a557600080fd5b506001600160a01b038135169060200135610965565b604080519115158252519081900360200190f35b6103d7610983565b005b6103e16109cb565b604080516001600160a01b039092168252519081900360200190f35b6103006109ef565b6103bb6109f5565b6103e16109fe565b6103bb6004803603606081101561042b57600080fd5b506001600160a01b03813581169160208101359091169060400135610a22565b6103d7610ab0565b6103d76004803603604081101561046957600080fd5b506001600160a01b038135169060200135610be0565b6103d76004803603606081101561049557600080fd5b506001600160a01b03813581169160208101359091169060400135610dcd565b6103d7600480360360208110156104cb57600080fd5b5035610fc6565b6104da6113c3565b6040805160ff9092168252519081900360200190f35b6103bb6004803603604081101561050657600080fd5b506001600160a01b0381351690602001356113cc565b6103d7611420565b6103006004803603602081101561053a57600080fd5b50356001600160a01b0316611430565b6103006004803603602081101561056057600080fd5b50356001600160a01b0316611499565b6103d76114bf565b6103d76114ed565b6103006004803603602081101561059657600080fd5b50356001600160a01b0316611588565b610300600480360360208110156105bc57600080fd5b50356001600160a01b03166115cd565b6103bb6115df565b6103e16115e8565b610300600480360360208110156105f257600080fd5b50356001600160a01b031661160c565b6103006004803603602081101561061857600080fd5b50356001600160a01b0316611632565b6103e161164d565b6103d7611671565b6103bb6004803603602081101561064e57600080fd5b50356001600160a01b0316611681565b6103d7611785565b61031a611820565b6103bb6004803603604081101561068457600080fd5b506001600160a01b038135169060200135611881565b6103d7600480360360208110156106b057600080fd5b50356118ef565b6103bb600480360360408110156106cd57600080fd5b506001600160a01b038135169060200135611ae6565b610300611afa565b6103006004803603602081101561070157600080fd5b50356001600160a01b0316611b00565b610300611b1b565b6103006004803603602081101561072f57600080fd5b50356001600160a01b0316611b21565b6103d76004803603604081101561075557600080fd5b506001600160a01b0381351690602001351515611b33565b6103d76004803603602081101561078357600080fd5b5035611ba3565b6103d7600480360360208110156107a057600080fd5b5035611c29565b610300600480360360408110156107bd57600080fd5b506001600160a01b0381358116916020013516611cbe565b6103d7611cdb565b6103bb600480360360208110156107f357600080fd5b50356001600160a01b0316611d06565b6103006004803603604081101561081957600080fd5b506001600160a01b0381358116916020013516611d1b565b610300611d46565b6103d76004803603604081101561084f57600080fd5b506001600160a01b038135169060200135611d4c565b6103bb6004803603602081101561087b57600080fd5b5035611dee565b610300611ed9565b610300600480360360208110156108a057600080fd5b50356001600160a01b0316611edf565b6001600160a01b0381166000908152600860205260409020545b919050565b60038054604080516020601f600260001961010060018816150201909516949094049384018190048102820181019092528281526060939092909183018282801561095b5780601f106109305761010080835404028352916020019161095b565b820191906000526020600020905b81548152906001019060200180831161093e57829003601f168201915b5050505050905090565b6000610979610972611ef1565b8484611ef5565b5060015b92915050565b61098b611fe1565b610993612091565b6016805460ff191660011790556040517fd33782a61f25b663946a975c2c1799d6e6d2dc636024b8980789f9e9671abb7890600090a1565b7f000000000000000000000000000000000000000000000000000000000000000081565b60025490565b60165460ff1681565b7f000000000000000000000000000000000000000000000000000000000000000081565b6000610a2f848484612164565b610aa584610a3b611ef1565b610aa085604051806060016040528060288152602001613d42602891396001600160a01b038a16600090815260016020526040812090610a79611ef1565b6001600160a01b03168152602081019190915260400160002054919063ffffffff61248016565b611ef5565b5060015b9392505050565b610ab8611fe1565b6000610ac2612517565b905080610acf5750610bde565b610b096001600160a01b037f000000000000000000000000000000000000000000000000000000000000000016338363ffffffff61259c16565b604080516370a0823160e01b8152306004820181905291516001600160a01b037f00000000000000000000000000000000000000000000000000000000000000001692917f2047d1633ff7768462ae07d28cb16e484203bfd6d85ce832494270ebcd9081a29184916370a08231916024808301926020929190829003018186803b158015610b9657600080fd5b505afa158015610baa573d6000803e3d6000fd5b505050506040513d6020811015610bc057600080fd5b505160408051918252519081900360200190a3610bdb6125f3565b50505b565b3360009081526014602090815260408083206001600160a01b038616845290915281205490610c15828463ffffffff6126a816565b3360009081526015602052604081205491925090610c39908563ffffffff6126a816565b90506001600160a01b038516610c8d576040805162461bcd60e51b815260206004820152601460248201527329a61d24a72b20a624a22fa1aaa9aa27a224a0a760611b604482015290519081900360640190fd5b83610cd0576040805162461bcd60e51b815260206004820152600e60248201526d14d30e9253959053125117d0535560921b604482015290519081900360640190fd5b610cd933611632565b811115610d20576040805162461bcd60e51b815260206004820152601060248201526f534c3a494e5355465f42414c414e434560801b604482015290519081900360640190fd5b3360008181526014602090815260408083206001600160a01b038a168085529083528184208790558484526015835292819020859055805187815291820186905280519293927f847e03d69a7075471d42285f4ac63570c10f3012d8bf736d66de2eef17aac3e89281900390910190a360408051828152905133917fe7f3fb4dacbff434e6d283d891f199c48b05b1629f610bd7ddc62353e162fb16919081900360200190a25050505050565b6001600160a01b038316600090815260146020908152604080832033845290915281205490610e02828463ffffffff61270216565b9050846001600160a01b0316846001600160a01b031614610e60576040805162461bcd60e51b815260206004820152601360248201527229a61d24a72b20a624a22fa922a1a2a4ab22a960691b604482015290519081900360640190fd5b82610ea3576040805162461bcd60e51b815260206004820152600e60248201526d14d30e9253959053125117d0535560921b604482015290519081900360640190fd5b6001600160a01b038516600081815260146020908152604080832033845282528083208590559282526015905290812054610ee4908563ffffffff61270216565b6001600160a01b038088166000818152601560209081526040918290208590558151898152915194955092891693919233927ffaa022ea2cd7f14157070896fabadafe96cc4d4714eef7ae6a992a5084493ed59281900390910190a46040805184815260208101849052815133926001600160a01b038a16927f847e03d69a7075471d42285f4ac63570c10f3012d8bf736d66de2eef17aac3e8929081900390910190a360408051828152905133917fe7f3fb4dacbff434e6d283d891f199c48b05b1629f610bd7ddc62353e162fb16919081900360200190a2505050505050565b3360007f00000000000000000000000000000000000000000000000000000000000000009050806001600160a01b0316634f85221a6040518163ffffffff1660e01b815260040160206040518083038186803b15801561102557600080fd5b505afa158015611039573d6000803e3d6000fd5b505050506040513d602081101561104f57600080fd5b505115806110cd5750806001600160a01b0316634046af2b6040518163ffffffff1660e01b815260040160206040518083038186803b15801561109157600080fd5b505afa1580156110a5573d6000803e3d6000fd5b505050506040513d60208110156110bb57600080fd5b50516001600160a01b03838116911614155b611110576040805162461bcd60e51b815260206004820152600f60248201526e14d30e94d51052d157d313d0d2d151608a1b604482015290519081900360640190fd5b611118611fe1565b336000818152601560205260409020549061114490859061113890611632565b9063ffffffff61270216565b1015611197576040805162461bcd60e51b815260206004820152601860248201527f534c3a494e5355465f554e5354414b4541424c455f42414c0000000000000000604482015290519081900360640190fd5b6111a033611681565b6111e7576040805162461bcd60e51b815260206004820152601360248201527229a61d27aaaa29a4a222afa1a7a7a62227aba760691b604482015290519081900360640190fd5b60105433600090815260116020526040902054429161120c919063ffffffff6126a816565b1115611251576040805162461bcd60e51b815260206004820152600f60248201526e14d30e9195539114d7d313d0d2d151608a1b604482015290519081900360640190fd5b6112596114bf565b611263338461275f565b61126b610ab0565b6112be3361128761127a612806565b869063ffffffff61270216565b6001600160a01b037f000000000000000000000000000000000000000000000000000000000000000016919063ffffffff61259c16565b60408051848152905133917f85082129d87b2fe11527cb1b3b7a520aeb5aa6913f88a3d8757fe40d1db02fdd919081900360200190a2604080516370a0823160e01b8152306004820181905291516001600160a01b037f00000000000000000000000000000000000000000000000000000000000000001692917f2047d1633ff7768462ae07d28cb16e484203bfd6d85ce832494270ebcd9081a29184916370a08231916024808301926020929190829003018186803b15801561138157600080fd5b505afa158015611395573d6000803e3d6000fd5b505050506040513d60208110156113ab57600080fd5b505160408051918252519081900360200190a3505050565b60055460ff1690565b60006109796113d9611ef1565b84610aa085600160006113ea611ef1565b6001600160a01b03908116825260208083019390935260409182016000908120918c16815292529020549063ffffffff6126a816565b611428612835565b610bde6129af565b6001600160a01b0381166000908152600a6020526040812054600160801b9061148b906114869061147a61147561146688611632565b6009549063ffffffff612a4f16565b612aa8565b9063ffffffff612ae916565b612b4e565b8161149257fe5b0492915050565b6001600160a01b03811660009081526008602052604081205461097d9061113884611588565b60006114c96125f3565b9050600081136114d95750610bde565b6114ea6114e582612b4e565b612b8f565b50565b33600090815260126020526040902054611541576040805162461bcd60e51b815260206004820152601060248201526f534c3a4e4f545f554e5354414b494e4760801b604482015290519081900360640190fd5b3360008181526012602090815260408083208390558051928352517f8a05f911d8ab7fc50fec37ef4ba7f9bfcb1a3c191c81dcd824ad0946c4e20d659281900390910190a2565b6001600160a01b038116600090815260076020526040812054600160801b9061148b906114869061147a6114756115be88611632565b6006549063ffffffff612a4f16565b60116020526000908152604090205481565b600f5460ff1690565b7f000000000000000000000000000000000000000000000000000000000000000081565b6001600160a01b0381166000908152600b602052604081205461097d9061113884611430565b6001600160a01b031660009081526020819052604090205490565b7f000000000000000000000000000000000000000000000000000000000000000081565b611679612835565b610bde612c8f565b60008061168c612d12565b9050806001600160a01b0316632018b8706040518163ffffffff1660e01b815260040160206040518083038186803b1580156116c757600080fd5b505afa1580156116db573d6000803e3d6000fd5b505050506040513d60208110156116f157600080fd5b50516040805163a965d6b560e01b815290516001600160a01b0384169163a965d6b5916004808301926020929190829003018186803b15801561173357600080fd5b505afa158015611747573d6000803e3d6000fd5b505050506040513d602081101561175d57600080fd5b50516001600160a01b0385166000908152601260205260409020540142031115915050919050565b600061179033611632565b14156117d5576040805162461bcd60e51b815260206004820152600f60248201526e534c3a5a45524f5f42414c414e434560881b604482015290519081900360640190fd5b336000818152601260209081526040918290204290819055825190815291517f8a05f911d8ab7fc50fec37ef4ba7f9bfcb1a3c191c81dcd824ad0946c4e20d659281900390910190a2565b60048054604080516020601f600260001961010060018816150201909516949094049384018190048102820181019092528281526060939092909183018282801561095b5780601f106109305761010080835404028352916020019161095b565b600061097961188e611ef1565b84610aa085604051806060016040528060258152602001613e2260259139600160006118b8611ef1565b6001600160a01b03908116825260208083019390935260409182016000908120918d1681529252902054919063ffffffff61248016565b6118f76115df565b1561193c576040805162461bcd60e51b815260206004820152601060248201526f14185d5cd8589b194e881c185d5cd95960821b604482015290519081900360640190fd5b611944611fe1565b61194d33612e0c565b336000818152601260205260408120556119679082612f11565b6119a26001600160a01b037f00000000000000000000000000000000000000000000000000000000000000001633308463ffffffff612fe616565b6119ac3382613046565b60408051828152905133917febedb8b3c678666e7f36970bc8f57abf6d8fa2e828c0da91ea5b75bf68ed101a919081900360200190a26040805160008152905133917f8a05f911d8ab7fc50fec37ef4ba7f9bfcb1a3c191c81dcd824ad0946c4e20d65919081900360200190a2604080516370a0823160e01b8152306004820181905291516001600160a01b037f00000000000000000000000000000000000000000000000000000000000000001692917f2047d1633ff7768462ae07d28cb16e484203bfd6d85ce832494270ebcd9081a29184916370a08231916024808301926020929190829003018186803b158015611aa657600080fd5b505afa158015611aba573d6000803e3d6000fd5b505050506040513d6020811015611ad057600080fd5b505160408051918252519081900360200190a350565b6000610979611af3611ef1565b8484612164565b600e5481565b6001600160a01b03166000908152600b602052604090205490565b600c5481565b60156020526000908152604090205481565b611b3b611fe1565b611b43612091565b6001600160a01b038216600081815260136020908152604091829020805460ff1916851515908117909155825190815291517f73121574a4eadb4cfdeb2ba56a6a88067b03edd1f0a0dfcac0a5a95682a243679281900390910190a25050565b336001600160a01b037f00000000000000000000000000000000000000000000000000000000000000001614611c0b576040805162461bcd60e51b81526020600482015260086024820152670534c3a4e4f545f560c41b604482015290519081900360640190fd5b600c54611c1e908263ffffffff6126a816565b600c556114ea611cdb565b611c31611fe1565b611c39612091565b601054811115611c83576040805162461bcd60e51b815260206004820152601060248201526f534c3a494e56414c49445f56414c554560801b604482015290519081900360640190fd5b60108190556040805182815290517fcc67306c5d19f79a73208a1270ca19eb367b4bd5258eac096e974365d18e432c9181900360200190a150565b601460209081526000928352604080842090915290825290205481565b6000611ce5613092565b905060008113611cf55750610bde565b6114ea611d0182612b4e565b6130b0565b60136020526000908152604090205460ff1681565b6001600160a01b03918216600090815260016020908152604080832093909416825291909152205490565b60105481565b336001600160a01b037f00000000000000000000000000000000000000000000000000000000000000001614611db4576040805162461bcd60e51b81526020600482015260086024820152670534c3a4e4f545f560c41b604482015290519081900360640190fd5b610bdb6001600160a01b037f000000000000000000000000000000000000000000000000000000000000000016838363ffffffff61259c16565b600080611df9612d12565b9050806001600160a01b0316632018b8706040518163ffffffff1660e01b815260040160206040518083038186803b158015611e3457600080fd5b505afa158015611e48573d6000803e3d6000fd5b505050506040513d6020811015611e5e57600080fd5b50516040805163a965d6b560e01b815290516001600160a01b0384169163a965d6b5916004808301926020929190829003018186803b158015611ea057600080fd5b505afa158015611eb4573d6000803e3d6000fd5b505050506040513d6020811015611eca57600080fd5b50518401014211915050919050565b600d5481565b60126020526000908152604090205481565b3390565b6001600160a01b038316611f3a5760405162461bcd60e51b8152600401808060200182810382526024815260200180613db06024913960400191505060405180910390fd5b6001600160a01b038216611f7f5760405162461bcd60e51b8152600401808060200182810382526022815260200180613c926022913960400191505060405180910390fd5b6001600160a01b03808416600081815260016020908152604080832094871680845294825291829020859055815185815291517f8c5be1e5ebec7d5bd14f71427d1e84f3dd0314c0f7b2291e5b200ac8c7c3b9259281900390910190a3505050565b611fe9612d12565b6001600160a01b031663425fad586040518163ffffffff1660e01b815260040160206040518083038186803b15801561202157600080fd5b505afa158015612035573d6000803e3d6000fd5b505050506040513d602081101561204b57600080fd5b505115610bde576040805162461bcd60e51b815260206004820152600f60248201526e14d30e941493d513d7d4105554d151608a1b604482015290519081900360640190fd5b7f00000000000000000000000000000000000000000000000000000000000000006001600160a01b0316634046af2b6040518163ffffffff1660e01b815260040160206040518083038186803b1580156120ea57600080fd5b505afa1580156120fe573d6000803e3d6000fd5b505050506040513d602081101561211457600080fd5b50516001600160a01b03163314610bde576040805162461bcd60e51b815260206004820152600f60248201526e534c3a4e4f545f44454c454741544560881b604482015290519081900360640190fd5b8260007f00000000000000000000000000000000000000000000000000000000000000009050806001600160a01b0316634f85221a6040518163ffffffff1660e01b815260040160206040518083038186803b1580156121c357600080fd5b505afa1580156121d7573d6000803e3d6000fd5b505050506040513d60208110156121ed57600080fd5b5051158061226b5750806001600160a01b0316634046af2b6040518163ffffffff1660e01b815260040160206040518083038186803b15801561222f57600080fd5b505afa158015612243573d6000803e3d6000fd5b505050506040513d602081101561225957600080fd5b50516001600160a01b03838116911614155b6122ae576040805162461bcd60e51b815260206004820152600f60248201526e14d30e94d51052d157d313d0d2d151608a1b604482015290519081900360640190fd5b6122b6611fe1565b6010546001600160a01b03861660009081526011602052604090205442916122e4919063ffffffff6126a816565b1115612329576040805162461bcd60e51b815260206004820152600f60248201526e14d30e9195539114d7d313d0d2d151608a1b604482015290519081900360640190fd5b6001600160a01b03851660009081526015602052604090205461234f8461113888611632565b10156123a2576040805162461bcd60e51b815260206004820152601960248201527f534c3a494e5355465f5452414e5346455241424c455f42414c00000000000000604482015290519081900360640190fd5b6001600160a01b0384166000908152601260205260409020546123c490611dee565b612415576040805162461bcd60e51b815260206004820152601860248201527f534c3a524543495049454e545f4e4f545f414c4c4f5745440000000000000000604482015290519081900360640190fd5b60006124208661160c565b14612464576040805162461bcd60e51b815260206004820152600f60248201526e534c3a5245434f475f4c4f5353455360881b604482015290519081900360640190fd5b61246e8484612f11565b6124798585856131b5565b5050505050565b6000818484111561250f5760405162461bcd60e51b81526004018080602001828103825283818151815260200191508051906020019080838360005b838110156124d45781810151838201526020016124bc565b50505050905090810190601f1680156125015780820380516001836020036101000a031916815260200191505b509250505060405180910390fd5b505050900390565b600061252233611499565b3360009081526008602052604081205491925090612546908363ffffffff6126a816565b336000818152600860209081526040918290208490558151868152908101849052815193945091927ffbc3a599b784fe88772fc5abcc07223f64ca0b13acc341f4fb1e46bef0510eb49281900390910190a25090565b604080516001600160a01b038416602482015260448082018490528251808303909101815260649091019091526020810180516001600160e01b031663a9059cbb60e01b1790526125ee9084906132e1565b505050565b600e54604080516370a0823160e01b81523060048201529051600092916001600160a01b037f000000000000000000000000000000000000000000000000000000000000000016916370a0823191602480820192602092909190829003018186803b15801561266157600080fd5b505afa158015612675573d6000803e3d6000fd5b505050506040513d602081101561268b57600080fd5b5051600e8190556126a2908263ffffffff61339216565b91505090565b600082820183811015610aa9576040805162461bcd60e51b815260206004820152601b60248201527f536166654d6174683a206164646974696f6e206f766572666c6f770000000000604482015290519081900360640190fd5b600082821115612759576040805162461bcd60e51b815260206004820152601e60248201527f536166654d6174683a207375627472616374696f6e206f766572666c6f770000604482015290519081900360640190fd5b50900390565b61276982826133f7565b60006127ab61278661147584600954612a4f90919063ffffffff16565b6001600160a01b0385166000908152600a60205260409020549063ffffffff612ae916565b6001600160a01b0384166000818152600a60209081526040918290208490558151848152915193945091927fb464de3159e090617503d0166bff9ffeecdefd42cd9dbb49f918df95a80fdea3929181900390910190a2505050565b600061281061349e565b600c54909150612826908263ffffffff61270216565b600c55612831613092565b5090565b7f00000000000000000000000000000000000000000000000000000000000000006001600160a01b0316634046af2b6040518163ffffffff1660e01b815260040160206040518083038186803b15801561288e57600080fd5b505afa1580156128a2573d6000803e3d6000fd5b505050506040513d60208110156128b857600080fd5b50516001600160a01b031633148061295e575060408051633099c27960e11b815233600482015290516001600160a01b037f0000000000000000000000000000000000000000000000000000000000000000169163613384f2916024808301926020929190829003018186803b15801561293157600080fd5b505afa158015612945573d6000803e3d6000fd5b505050506040513d602081101561295b57600080fd5b50515b610bde576040805162461bcd60e51b815260206004820152601860248201527f534c3a4e4f545f44454c45474154455f4f525f41444d494e0000000000000000604482015290519081900360640190fd5b6129b76115df565b6129ff576040805162461bcd60e51b815260206004820152601460248201527314185d5cd8589b194e881b9bdd081c185d5cd95960621b604482015290519081900360640190fd5b600f805460ff191690557f5db9ee0a495bf2e6ff9c91a7834c1ba4fdd244a5e8aa4e537bd38aeae4b073aa612a32611ef1565b604080516001600160a01b039092168252519081900360200190a1565b600082612a5e5750600061097d565b82820282848281612a6b57fe5b0414610aa95760405162461bcd60e51b8152600401808060200182810382526021815260200180613d216021913960400191505060405180910390fd5b8060008112156108ca576040805162461bcd60e51b815260206004820152600760248201526629a6aa9d27a7a160c91b604482015290519081900360640190fd5b6000828201818312801590612afe5750838112155b80612b135750600083128015612b1357508381125b610aa95760405162461bcd60e51b8152600401808060200182810382526021815260200180613cda6021913960400191505060405180910390fd5b600080821215612831576040805162461bcd60e51b8152602060048201526007602482015266534d493a4e454760c81b604482015290519081900360640190fd5b6000612b996109ef565b11612bdd576040805162461bcd60e51b815260206004820152600f60248201526e4644543a5a45524f5f535550504c5960881b604482015290519081900360640190fd5b80612be7576114ea565b612c1e612bf26109ef565b612c0683600160801b63ffffffff612a4f16565b81612c0d57fe5b60065491900463ffffffff6126a816565b60065560408051828152905133917f26536799ace2c3dbe12e638ec3ade6b4173dcf1289be0a58d51a5003015649bd919081900360200190a260065460408051918252517f1f8d7705f31c3337a080803a8ad7e71946fb88d84738879be2bf402f97156e969181900360200190a150565b612c976115df565b15612cdc576040805162461bcd60e51b815260206004820152601060248201526f14185d5cd8589b194e881c185d5cd95960821b604482015290519081900360640190fd5b600f805460ff191660011790557f62e78cea01bee320cd4e420270b5ea74000d11b0c9f74754ebdbfc544b05a258612a32611ef1565b60007f00000000000000000000000000000000000000000000000000000000000000006001600160a01b0316630d49b38c6040518163ffffffff1660e01b815260040160206040518083038186803b158015612d6d57600080fd5b505afa158015612d81573d6000803e3d6000fd5b505050506040513d6020811015612d9757600080fd5b50516040805163c312452560e01b815290516001600160a01b039092169163c312452591600480820192602092909190829003018186803b158015612ddb57600080fd5b505afa158015612def573d6000803e3d6000fd5b505050506040513d6020811015612e0557600080fd5b5051905090565b60165460ff1680612e3557506001600160a01b03811660009081526013602052604090205460ff165b80612ecf57507f00000000000000000000000000000000000000000000000000000000000000006001600160a01b0316634046af2b6040518163ffffffff1660e01b815260040160206040518083038186803b158015612e9457600080fd5b505afa158015612ea8573d6000803e3d6000fd5b505050506040513d6020811015612ebe57600080fd5b50516001600160a01b038281169116145b6114ea576040805162461bcd60e51b815260206004820152600e60248201526d14d30e9393d517d0531313d5d15160921b604482015290519081900360640190fd5b6001600160a01b03821660009081526011602052604081205490612f3484611632565b905060008084830111612f475782612f89565b612f89612f7c838601612f7087612f64428963ffffffff61270216565b9063ffffffff612a4f16565b9063ffffffff61352316565b849063ffffffff6126a816565b6001600160a01b0386166000818152601160209081526040918290208490558151848152915193945091927f09686619568b9bd7c4faea3ba0efbeab967ec977167b97405ad208f1a9ccea69929181900390910190a25050505050565b604080516001600160a01b0380861660248301528416604482015260648082018490528251808303909101815260849091019091526020810180516001600160e01b03166323b872dd60e01b1790526130409085906132e1565b50505050565b613050828261358a565b60006127ab61306d61147584600954612a4f90919063ffffffff16565b6001600160a01b0385166000908152600a60205260409020549063ffffffff61339216565b600d8054600c54918290556000916126a2908263ffffffff61339216565b60006130ba6109ef565b116130fe576040805162461bcd60e51b815260206004820152600f60248201526e4644543a5a45524f5f535550504c5960881b604482015290519081900360640190fd5b80613108576114ea565b60006131416131156109ef565b61312984600160801b63ffffffff612a4f16565b8161313057fe5b60095491900463ffffffff6126a816565b600981905560408051848152905191925033917ff88156a8032a0d2c65df18fafaf84e0bea647b3d94a0f7fc6ab14c97dec2bf749181900360200190a26040805182815290517f240ce2b5ce9e9e5a70010c7f8034c233d89b7ce2d60f3a38d9bc3ca01a36f88c9181900360200190a15050565b6131c08383836135d6565b60006131da61147583600954612a4f90919063ffffffff16565b6001600160a01b0385166000908152600a602052604081205491925090613207908363ffffffff612ae916565b6001600160a01b038087166000908152600a602052604080822084905591871681529081205491925090613241908463ffffffff61339216565b6001600160a01b038087166000908152600a602090815260409182902084905581518681529151939450918916927fb464de3159e090617503d0166bff9ffeecdefd42cd9dbb49f918df95a80fdea3929181900390910190a26040805182815290516001600160a01b038716917fb464de3159e090617503d0166bff9ffeecdefd42cd9dbb49f918df95a80fdea3919081900360200190a2505050505050565b6060613336826040518060400160405280602081526020017f5361666545524332303a206c6f772d6c6576656c2063616c6c206661696c6564815250856001600160a01b03166137029092919063ffffffff16565b8051909150156125ee5780806020019051602081101561335557600080fd5b50516125ee5760405162461bcd60e51b815260040180806020018281038252602a815260200180613df8602a913960400191505060405180910390fd5b60008183038183128015906133a75750838113155b806133bc57506000831280156133bc57508381135b610aa95760405162461bcd60e51b8152600401808060200182810382526024815260200180613dd46024913960400191505060405180910390fd5b6134018282613719565b600061344361341e61147584600654612a4f90919063ffffffff16565b6001600160a01b0385166000908152600760205260409020549063ffffffff612ae916565b6001600160a01b0384166000818152600760209081526040918290208490558151848152915193945091927ff694bebd33ada288ae2f4485315db76739e2d5501daf315e71c9d8f841aa7773929181900390910190a2505050565b60006134a93361160c565b336000908152600b6020526040812054919250906134cd908363ffffffff6126a816565b336000818152600b60209081526040918290208490558151868152908101849052815193945091927f814eba35782909dbbaeefb8104073dfca45de43173f7077970c1584b3cf918b59281900390910190a25090565b6000808211613579576040805162461bcd60e51b815260206004820152601a60248201527f536166654d6174683a206469766973696f6e206279207a65726f000000000000604482015290519081900360640190fd5b81838161358257fe5b049392505050565b6135948282613821565b60006134436135b161147584600654612a4f90919063ffffffff16565b6001600160a01b0385166000908152600760205260409020549063ffffffff61339216565b6135e183838361391d565b60006135fb61147583600654612a4f90919063ffffffff16565b6001600160a01b03851660009081526007602052604081205491925090613628908363ffffffff612ae916565b6001600160a01b0380871660009081526007602052604080822084905591871681529081205491925090613662908463ffffffff61339216565b6001600160a01b0380871660009081526007602090815260409182902084905581518681529151939450918916927ff694bebd33ada288ae2f4485315db76739e2d5501daf315e71c9d8f841aa7773929181900390910190a26040805182815290516001600160a01b038716917ff694bebd33ada288ae2f4485315db76739e2d5501daf315e71c9d8f841aa7773919081900360200190a2505050505050565b60606137118484600085613a84565b949350505050565b6001600160a01b03821661375e5760405162461bcd60e51b8152600401808060200182810382526021815260200180613d6a6021913960400191505060405180910390fd5b61376a826000836125ee565b6137ad81604051806060016040528060228152602001613c70602291396001600160a01b038516600090815260208190526040902054919063ffffffff61248016565b6001600160a01b0383166000908152602081905260409020556002546137d9908263ffffffff61270216565b6002556040805182815290516000916001600160a01b038516917fddf252ad1be2c89b69c2b068fc378daa952ba7f163c4a11628f55a4df523b3ef9181900360200190a35050565b6001600160a01b03821661387c576040805162461bcd60e51b815260206004820152601f60248201527f45524332303a206d696e7420746f20746865207a65726f206164647265737300604482015290519081900360640190fd5b613888600083836125ee565b60025461389b908263ffffffff6126a816565b6002556001600160a01b0382166000908152602081905260409020546138c7908263ffffffff6126a816565b6001600160a01b0383166000818152602081815260408083209490945583518581529351929391927fddf252ad1be2c89b69c2b068fc378daa952ba7f163c4a11628f55a4df523b3ef9281900390910190a35050565b6001600160a01b0383166139625760405162461bcd60e51b8152600401808060200182810382526025815260200180613d8b6025913960400191505060405180910390fd5b6001600160a01b0382166139a75760405162461bcd60e51b8152600401808060200182810382526023815260200180613c4d6023913960400191505060405180910390fd5b6139b28383836125ee565b6139f581604051806060016040528060268152602001613cb4602691396001600160a01b038616600090815260208190526040902054919063ffffffff61248016565b6001600160a01b038085166000908152602081905260408082209390935590841681522054613a2a908263ffffffff6126a816565b6001600160a01b038084166000818152602081815260409182902094909455805185815290519193928716927fddf252ad1be2c89b69c2b068fc378daa952ba7f163c4a11628f55a4df523b3ef92918290030190a3505050565b606082471015613ac55760405162461bcd60e51b8152600401808060200182810382526026815260200180613cfb6026913960400191505060405180910390fd5b613ace85613be0565b613b1f576040805162461bcd60e51b815260206004820152601d60248201527f416464726573733a2063616c6c20746f206e6f6e2d636f6e7472616374000000604482015290519081900360640190fd5b60006060866001600160a01b031685876040518082805190602001908083835b60208310613b5e5780518252601f199092019160209182019101613b3f565b6001836020036101000a03801982511681845116808217855250505050505090500191505060006040518083038185875af1925050503d8060008114613bc0576040519150601f19603f3d011682016040523d82523d6000602084013e613bc5565b606091505b5091509150613bd5828286613be6565b979650505050505050565b3b151590565b60608315613bf5575081610aa9565b825115613c055782518084602001fd5b60405162461bcd60e51b81526020600482018181528451602484015284518593919283926044019190850190808383600083156124d45781810151838201526020016124bc56fe45524332303a207472616e7366657220746f20746865207a65726f206164647265737345524332303a206275726e20616d6f756e7420657863656564732062616c616e636545524332303a20617070726f766520746f20746865207a65726f206164647265737345524332303a207472616e7366657220616d6f756e7420657863656564732062616c616e63655369676e6564536166654d6174683a206164646974696f6e206f766572666c6f77416464726573733a20696e73756666696369656e742062616c616e636520666f722063616c6c536166654d6174683a206d756c7469706c69636174696f6e206f766572666c6f7745524332303a207472616e7366657220616d6f756e74206578636565647320616c6c6f77616e636545524332303a206275726e2066726f6d20746865207a65726f206164647265737345524332303a207472616e736665722066726f6d20746865207a65726f206164647265737345524332303a20617070726f76652066726f6d20746865207a65726f20616464726573735369676e6564536166654d6174683a207375627472616374696f6e206f766572666c6f775361666545524332303a204552433230206f7065726174696f6e20646964206e6f74207375636365656445524332303a2064656372656173656420616c6c6f77616e63652062656c6f77207a65726fa26469706673582212206439c6ba0ef5dcfb20f15971d7edf97fe83aed43e7abad769b317db91d706a1364736f6c634300060b0033a26469706673582212209e8e894d9e08112d15689d061ffeffe0c297292e71a0c7a8ac3534c1bb217e7f64736f6c634300060b0033",
  "libraries": {},
  "devdoc": {
    "kind": "dev",
    "methods": {
      "newLocker(address,address)": {
        "details": "Instantiate a StakeLocker.It emits a `StakeLockerCreated` event.",
        "params": {
          "liquidityAsset": "Address of the Liquidity Asset (as defined in the Pool).",
          "stakeAsset": "Address of the Stake Asset (generally Balancer Pool BPTs)."
        },
        "returns": {
          "stakeLocker": "   Address of the instantiated StakeLocker."
        }
      }
    },
    "title": "StakeLockerFactory instantiates StakeLockers.",
    "version": 1
  },
  "userdoc": {
    "kind": "user",
    "methods": {},
    "version": 1
  },
  "storageLayout": {
    "storage": [
      {
        "astId": 11581,
        "contract": "packages/protocol/contracts/StakeLockerFactory.sol:StakeLockerFactory",
        "label": "owner",
        "offset": 0,
        "slot": "0",
        "type": "t_mapping(t_address,t_address)"
      },
      {
        "astId": 11585,
        "contract": "packages/protocol/contracts/StakeLockerFactory.sol:StakeLockerFactory",
        "label": "isLocker",
        "offset": 0,
        "slot": "1",
        "type": "t_mapping(t_address,t_bool)"
      }
    ],
    "types": {
      "t_address": {
        "encoding": "inplace",
        "label": "address",
        "numberOfBytes": "20"
      },
      "t_bool": {
        "encoding": "inplace",
        "label": "bool",
        "numberOfBytes": "1"
      },
      "t_mapping(t_address,t_address)": {
        "encoding": "mapping",
        "key": "t_address",
        "label": "mapping(address => address)",
        "numberOfBytes": "32",
        "value": "t_address"
      },
      "t_mapping(t_address,t_bool)": {
        "encoding": "mapping",
        "key": "t_address",
        "label": "mapping(address => bool)",
        "numberOfBytes": "32",
        "value": "t_bool"
      }
    }
  }
}